{
  "_format": "hh-sol-artifact-1",
  "contractName": "Main",
  "sourceName": "contracts/Main.sol",
  "abi": [
    {
      "inputs": [],
      "stateMutability": "payable",
      "type": "constructor"
    },
    {
      "inputs": [
        {
          "internalType": "string",
          "name": "name",
          "type": "string"
        }
      ],
      "name": "NameAlreadyExists",
      "type": "error"
    },
    {
      "inputs": [
        {
          "internalType": "uint256",
          "name": "courseId",
          "type": "uint256"
        }
      ],
      "name": "NotCourseAuthor",
      "type": "error"
    },
    {
      "inputs": [
        {
          "internalType": "address",
          "name": "owner",
          "type": "address"
        }
      ],
      "name": "OwnableInvalidOwner",
      "type": "error"
    },
    {
      "inputs": [
        {
          "internalType": "address",
          "name": "account",
          "type": "address"
        }
      ],
      "name": "OwnableUnauthorizedAccount",
      "type": "error"
    },
    {
      "inputs": [
        {
          "internalType": "address",
          "name": "user",
          "type": "address"
        }
      ],
      "name": "UserAlreadyExists",
      "type": "error"
    },
    {
      "anonymous": false,
      "inputs": [
        {
          "indexed": true,
          "internalType": "uint256",
          "name": "cardId",
          "type": "uint256"
        },
        {
          "indexed": false,
          "internalType": "string",
          "name": "word",
          "type": "string"
        },
        {
          "indexed": false,
          "internalType": "string",
          "name": "meaning",
          "type": "string"
        },
        {
          "indexed": false,
          "internalType": "string",
          "name": "example",
          "type": "string"
        },
        {
          "indexed": false,
          "internalType": "uint256",
          "name": "courseId",
          "type": "uint256"
        }
      ],
      "name": "CardChange",
      "type": "event"
    },
    {
      "anonymous": false,
      "inputs": [
        {
          "indexed": true,
          "internalType": "uint256",
          "name": "courseId",
          "type": "uint256"
        },
        {
          "indexed": false,
          "internalType": "string",
          "name": "name",
          "type": "string"
        },
        {
          "indexed": false,
          "internalType": "string",
          "name": "description",
          "type": "string"
        },
        {
          "indexed": false,
          "internalType": "address",
          "name": "author",
          "type": "address"
        }
      ],
      "name": "CourseChange",
      "type": "event"
    },
    {
      "anonymous": false,
      "inputs": [
        {
          "indexed": true,
          "internalType": "address",
          "name": "previousOwner",
          "type": "address"
        },
        {
          "indexed": true,
          "internalType": "address",
          "name": "newOwner",
          "type": "address"
        }
      ],
      "name": "OwnershipTransferred",
      "type": "event"
    },
    {
      "anonymous": false,
      "inputs": [
        {
          "indexed": false,
          "internalType": "uint256",
          "name": "id",
          "type": "uint256"
        },
        {
          "indexed": false,
          "internalType": "string",
          "name": "name",
          "type": "string"
        }
      ],
      "name": "UserChanged",
      "type": "event"
    },
    {
      "anonymous": false,
      "inputs": [
        {
          "indexed": false,
          "internalType": "uint256",
          "name": "id",
          "type": "uint256"
        },
        {
          "indexed": false,
          "internalType": "string",
          "name": "name",
          "type": "string"
        }
      ],
      "name": "UserCreated",
      "type": "event"
    },
    {
      "inputs": [],
      "name": "cardCount",
      "outputs": [
        {
          "internalType": "uint256",
          "name": "",
          "type": "uint256"
        }
      ],
      "stateMutability": "view",
      "type": "function"
    },
    {
      "inputs": [],
      "name": "courseCount",
      "outputs": [
        {
          "internalType": "uint256",
          "name": "",
          "type": "uint256"
        }
      ],
      "stateMutability": "view",
      "type": "function"
    },
    {
      "inputs": [
        {
          "internalType": "string",
          "name": "word",
          "type": "string"
        },
        {
          "internalType": "string",
          "name": "meaning",
          "type": "string"
        },
        {
          "internalType": "string",
          "name": "example",
          "type": "string"
        },
        {
          "internalType": "uint256",
          "name": "courseId",
          "type": "uint256"
        }
      ],
      "name": "createCard",
      "outputs": [],
      "stateMutability": "nonpayable",
      "type": "function"
    },
    {
      "inputs": [
        {
          "internalType": "string",
          "name": "name",
          "type": "string"
        },
        {
          "internalType": "string",
          "name": "description",
          "type": "string"
        }
      ],
      "name": "createCourse",
      "outputs": [],
      "stateMutability": "nonpayable",
      "type": "function"
    },
    {
      "inputs": [
        {
          "internalType": "string",
          "name": "name",
          "type": "string"
        }
      ],
      "name": "createUser",
      "outputs": [],
      "stateMutability": "nonpayable",
      "type": "function"
    },
    {
      "inputs": [
        {
          "internalType": "uint256",
          "name": "cardId",
          "type": "uint256"
        }
      ],
      "name": "deleteCard",
      "outputs": [],
      "stateMutability": "nonpayable",
      "type": "function"
    },
    {
      "inputs": [
        {
          "internalType": "uint256",
          "name": "courseId",
          "type": "uint256"
        }
      ],
      "name": "deleteCourse",
      "outputs": [],
      "stateMutability": "nonpayable",
      "type": "function"
    },
    {
      "inputs": [],
      "name": "deleteUser",
      "outputs": [],
      "stateMutability": "nonpayable",
      "type": "function"
    },
    {
      "inputs": [],
      "name": "getAllUsers",
      "outputs": [
        {
          "components": [
            {
              "internalType": "uint256",
              "name": "id",
              "type": "uint256"
            },
            {
              "internalType": "string",
              "name": "name",
              "type": "string"
            }
          ],
          "internalType": "struct Main.User[]",
          "name": "",
          "type": "tuple[]"
        }
      ],
      "stateMutability": "view",
      "type": "function"
    },
    {
      "inputs": [
        {
          "internalType": "uint256",
          "name": "courseId",
          "type": "uint256"
        }
      ],
      "name": "getCardsByCourse",
      "outputs": [
        {
          "components": [
            {
              "internalType": "uint256",
              "name": "id",
              "type": "uint256"
            },
            {
              "internalType": "string",
              "name": "word",
              "type": "string"
            },
            {
              "internalType": "string",
              "name": "meaning",
              "type": "string"
            },
            {
              "internalType": "string",
              "name": "example",
              "type": "string"
            },
            {
              "internalType": "uint256",
              "name": "courseId",
              "type": "uint256"
            }
          ],
          "internalType": "struct CoursesStorage.Card[]",
          "name": "",
          "type": "tuple[]"
        }
      ],
      "stateMutability": "view",
      "type": "function"
    },
    {
      "inputs": [],
      "name": "getCourses",
      "outputs": [
        {
          "components": [
            {
              "internalType": "uint256",
              "name": "id",
              "type": "uint256"
            },
            {
              "internalType": "string",
              "name": "name",
              "type": "string"
            },
            {
              "internalType": "string",
              "name": "description",
              "type": "string"
            },
            {
              "internalType": "address",
              "name": "author",
              "type": "address"
            }
          ],
          "internalType": "struct CoursesStorage.Course[]",
          "name": "",
          "type": "tuple[]"
        }
      ],
      "stateMutability": "view",
      "type": "function"
    },
    {
      "inputs": [
        {
          "internalType": "address",
          "name": "author",
          "type": "address"
        }
      ],
      "name": "getCoursesByAuthor",
      "outputs": [
        {
          "components": [
            {
              "internalType": "uint256",
              "name": "id",
              "type": "uint256"
            },
            {
              "internalType": "string",
              "name": "name",
              "type": "string"
            },
            {
              "internalType": "string",
              "name": "description",
              "type": "string"
            },
            {
              "internalType": "address",
              "name": "author",
              "type": "address"
            }
          ],
          "internalType": "struct CoursesStorage.Course[]",
          "name": "",
          "type": "tuple[]"
        }
      ],
      "stateMutability": "view",
      "type": "function"
    },
    {
      "inputs": [],
      "name": "getUser",
      "outputs": [
        {
          "components": [
            {
              "internalType": "uint256",
              "name": "id",
              "type": "uint256"
            },
            {
              "internalType": "string",
              "name": "name",
              "type": "string"
            }
          ],
          "internalType": "struct Main.User",
          "name": "",
          "type": "tuple"
        }
      ],
      "stateMutability": "view",
      "type": "function"
    },
    {
      "inputs": [
        {
          "internalType": "address",
          "name": "userAddress",
          "type": "address"
        }
      ],
      "name": "getUserByAddress",
      "outputs": [
        {
          "components": [
            {
              "internalType": "uint256",
              "name": "id",
              "type": "uint256"
            },
            {
              "internalType": "string",
              "name": "name",
              "type": "string"
            }
          ],
          "internalType": "struct Main.User",
          "name": "",
          "type": "tuple"
        }
      ],
      "stateMutability": "view",
      "type": "function"
    },
    {
      "inputs": [
        {
          "internalType": "string",
          "name": "",
          "type": "string"
        }
      ],
      "name": "nameExists",
      "outputs": [
        {
          "internalType": "bool",
          "name": "",
          "type": "bool"
        }
      ],
      "stateMutability": "view",
      "type": "function"
    },
    {
      "inputs": [],
      "name": "owner",
      "outputs": [
        {
          "internalType": "address",
          "name": "",
          "type": "address"
        }
      ],
      "stateMutability": "view",
      "type": "function"
    },
    {
      "inputs": [],
      "name": "receivedEther",
      "outputs": [
        {
          "internalType": "uint256",
          "name": "",
          "type": "uint256"
        }
      ],
      "stateMutability": "view",
      "type": "function"
    },
    {
      "inputs": [],
      "name": "renounceOwnership",
      "outputs": [],
      "stateMutability": "nonpayable",
      "type": "function"
    },
    {
      "inputs": [
        {
          "internalType": "address",
          "name": "newOwner",
          "type": "address"
        }
      ],
      "name": "transferOwnership",
      "outputs": [],
      "stateMutability": "nonpayable",
      "type": "function"
    },
    {
      "inputs": [
        {
          "internalType": "uint256",
          "name": "cardId",
          "type": "uint256"
        },
        {
          "internalType": "string",
          "name": "word",
          "type": "string"
        },
        {
          "internalType": "string",
          "name": "meaning",
          "type": "string"
        },
        {
          "internalType": "string",
          "name": "example",
          "type": "string"
        }
      ],
      "name": "updateCard",
      "outputs": [],
      "stateMutability": "nonpayable",
      "type": "function"
    },
    {
      "inputs": [
        {
          "internalType": "uint256",
          "name": "courseId",
          "type": "uint256"
        },
        {
          "internalType": "string",
          "name": "name",
          "type": "string"
        },
        {
          "internalType": "string",
          "name": "description",
          "type": "string"
        }
      ],
      "name": "updateCourse",
      "outputs": [],
      "stateMutability": "nonpayable",
      "type": "function"
    },
    {
      "inputs": [
        {
          "internalType": "string",
          "name": "name",
          "type": "string"
        }
      ],
      "name": "updateUser",
      "outputs": [],
      "stateMutability": "nonpayable",
      "type": "function"
    },
    {
      "inputs": [],
      "name": "userCount",
      "outputs": [
        {
          "internalType": "uint256",
          "name": "",
          "type": "uint256"
        }
      ],
      "stateMutability": "view",
      "type": "function"
    },
    {
      "inputs": [
        {
          "internalType": "address",
          "name": "",
          "type": "address"
        }
      ],
      "name": "users",
      "outputs": [
        {
          "internalType": "uint256",
          "name": "id",
          "type": "uint256"
        },
        {
          "internalType": "string",
          "name": "name",
          "type": "string"
        }
      ],
      "stateMutability": "view",
      "type": "function"
    },
    {
      "stateMutability": "payable",
      "type": "receive"
    }
  ],
  "bytecode": "0x6080604052600060015560006005556000600c5533600073ffffffffffffffffffffffffffffffffffffffff168173ffffffffffffffffffffffffffffffffffffffff1603620000895760006040517f1e4fbdf7000000000000000000000000000000000000000000000000000000008152600401620000809190620004b9565b60405180910390fd5b6200009a81620000e760201b60201c565b50620000e16040518060400160405280600581526020017f41646d696e000000000000000000000000000000000000000000000000000000815250620001ad60201b60201c565b620009c1565b6000600b60009054906101000a900473ffffffffffffffffffffffffffffffffffffffff16905081600b60006101000a81548173ffffffffffffffffffffffffffffffffffffffff021916908373ffffffffffffffffffffffffffffffffffffffff1602179055508173ffffffffffffffffffffffffffffffffffffffff168173ffffffffffffffffffffffffffffffffffffffff167f8be0079c531659141344cd1fd0a4f28419497f9722a3daafe3b4186f6b6457e060405160405180910390a35050565b80601081604051620001c091906200054f565b908152602001604051809103902060009054906101000a900460ff16156200022157806040517f4a31fcb8000000000000000000000000000000000000000000000000000000008152600401620002189190620005cb565b60405180910390fd5b6000600d60003373ffffffffffffffffffffffffffffffffffffffff1673ffffffffffffffffffffffffffffffffffffffff168152602001908152602001600020600101805462000272906200061e565b905014620002b957336040517f23ee4bac000000000000000000000000000000000000000000000000000000008152600401620002b09190620004b9565b60405180910390fd5b600c6000815480929190620002ce906200068c565b91905055506040518060400160405280600c54815260200183815250600d60003373ffffffffffffffffffffffffffffffffffffffff1673ffffffffffffffffffffffffffffffffffffffff1681526020019081526020016000206000820151816000015560208201518160010190816200034a9190620008da565b5090505062000361600e336200039f60201b60201c565b5060016010836040516200037691906200054f565b908152602001604051809103902060006101000a81548160ff0219169083151502179055505050565b6000620003cf836000018373ffffffffffffffffffffffffffffffffffffffff1660001b620003d760201b60201c565b905092915050565b6000620003eb83836200045160201b60201c565b620004465782600001829080600181540180825580915050600190039060005260206000200160009091909190915055826000018054905083600101600084815260200190815260200160002081905550600190506200044b565b600090505b92915050565b600080836001016000848152602001908152602001600020541415905092915050565b600073ffffffffffffffffffffffffffffffffffffffff82169050919050565b6000620004a18262000474565b9050919050565b620004b38162000494565b82525050565b6000602082019050620004d06000830184620004a8565b92915050565b600081519050919050565b600081905092915050565b60005b838110156200050c578082015181840152602081019050620004ef565b60008484015250505050565b60006200052582620004d6565b620005318185620004e1565b935062000543818560208601620004ec565b80840191505092915050565b60006200055d828462000518565b915081905092915050565b600082825260208201905092915050565b6000601f19601f8301169050919050565b60006200059782620004d6565b620005a3818562000568565b9350620005b5818560208601620004ec565b620005c08162000579565b840191505092915050565b60006020820190508181036000830152620005e781846200058a565b905092915050565b7f4e487b7100000000000000000000000000000000000000000000000000000000600052602260045260246000fd5b600060028204905060018216806200063757607f821691505b6020821081036200064d576200064c620005ef565b5b50919050565b7f4e487b7100000000000000000000000000000000000000000000000000000000600052601160045260246000fd5b6000819050919050565b6000620006998262000682565b91507fffffffffffffffffffffffffffffffffffffffffffffffffffffffffffffffff8203620006ce57620006cd62000653565b5b600182019050919050565b7f4e487b7100000000000000000000000000000000000000000000000000000000600052604160045260246000fd5b60008190508160005260206000209050919050565b60006020601f8301049050919050565b600082821b905092915050565b6000600883026200076c7fffffffffffffffffffffffffffffffffffffffffffffffffffffffffffffffff826200072d565b6200077886836200072d565b95508019841693508086168417925050509392505050565b6000819050919050565b6000620007bb620007b5620007af8462000682565b62000790565b62000682565b9050919050565b6000819050919050565b620007d7836200079a565b620007ef620007e682620007c2565b8484546200073a565b825550505050565b600090565b62000806620007f7565b62000813818484620007cc565b505050565b5b818110156200083b576200082f600082620007fc565b60018101905062000819565b5050565b601f8211156200088a57620008548162000708565b6200085f846200071d565b810160208510156200086f578190505b620008876200087e856200071d565b83018262000818565b50505b505050565b600082821c905092915050565b6000620008af600019846008026200088f565b1980831691505092915050565b6000620008ca83836200089c565b9150826002028217905092915050565b620008e582620004d6565b67ffffffffffffffff811115620009015762000900620006d9565b5b6200090d82546200061e565b6200091a8282856200083f565b600060209050601f8311600181146200095257600084156200093d578287015190505b620009498582620008bc565b865550620009b9565b601f198416620009628662000708565b60005b828110156200098c5784890151825560018201915060208501945060208101905062000965565b86831015620009ac5784890151620009a8601f8916826200089c565b8355505b6001600288020188555050505b505050505050565b61368180620009d16000396000f3fe60806040526004361061014f5760003560e01c8063832880e7116100b6578063b51183b01161006f578063b51183b01461048b578063cc126479146104b4578063cc637afe146104df578063cd53e4551461051c578063e2842d7914610547578063f2fde38b146105725761016d565b8063832880e71461037c5780638da5cb5b146103a757806394f9d84c146103d25780639dad8d22146103fb578063a26a795314610424578063a87430ba1461044d5761016d565b806357744a611161010857806357744a611461026e5780635e1acf651461029757806366055159146102c057806369c212f6146102eb57806370e24a2f14610328578063715018a6146103655761016d565b8063026ff05e1461017257806307973ccf146101895780630b4f12f6146101b45780631b6cde10146101dd5780635069ca2e14610208578063507ffba5146102455761016d565b3661016d573460008082825461016591906125da565b925050819055005b600080fd5b34801561017e57600080fd5b5061018761059b565b005b34801561019557600080fd5b5061019e61067b565b6040516101ab919061261d565b60405180910390f35b3480156101c057600080fd5b506101db60048036038101906101d69190612792565b610681565b005b3480156101e957600080fd5b506101f261086e565b6040516101ff919061261d565b60405180910390f35b34801561021457600080fd5b5061022f600480360381019061022a9190612807565b610874565b60405161023c9190612a08565b60405180910390f35b34801561025157600080fd5b5061026c60048036038101906102679190612792565b610b4b565b005b34801561027a57600080fd5b5061029560048036038101906102909190612a2a565b610d25565b005b3480156102a357600080fd5b506102be60048036038101906102b99190612807565b610eef565b005b3480156102cc57600080fd5b506102d5611045565b6040516102e2919061261d565b60405180910390f35b3480156102f757600080fd5b50610312600480360381019061030d9190612b43565b61104b565b60405161031f9190612bad565b60405180910390f35b34801561033457600080fd5b5061034f600480360381019061034a9190612b43565b611140565b60405161035c9190612d0a565b60405180910390f35b34801561037157600080fd5b5061037a611455565b005b34801561038857600080fd5b50610391611469565b60405161039e9190612bad565b60405180910390f35b3480156103b357600080fd5b506103bc61155c565b6040516103c99190612d3b565b60405180910390f35b3480156103de57600080fd5b506103f960048036038101906103f49190612d56565b611586565b005b34801561040757600080fd5b50610422600480360381019061041d9190612807565b6116b7565b005b34801561043057600080fd5b5061044b60048036038101906104469190612de1565b61181c565b005b34801561045957600080fd5b50610474600480360381019061046f9190612b43565b61199d565b604051610482929190612ea3565b60405180910390f35b34801561049757600080fd5b506104b260048036038101906104ad9190612ed3565b611a49565b005b3480156104c057600080fd5b506104c9611bcd565b6040516104d69190612d0a565b60405180910390f35b3480156104eb57600080fd5b5061050660048036038101906105019190612792565b611e29565b6040516105139190612fa9565b60405180910390f35b34801561052857600080fd5b50610531611e5f565b60405161053e919061261d565b60405180910390f35b34801561055357600080fd5b5061055c611e65565b60405161056991906130c3565b60405180910390f35b34801561057e57600080fd5b5061059960048036038101906105949190612b43565b61200d565b005b60006010600d60003373ffffffffffffffffffffffffffffffffffffffff1673ffffffffffffffffffffffffffffffffffffffff1681526020019081526020016000206001016040516105ee91906131e8565b908152602001604051809103902060006101000a81548160ff02191690831515021790555061061e600e33612093565b50600d60003373ffffffffffffffffffffffffffffffffffffffff1673ffffffffffffffffffffffffffffffffffffffff16815260200190815260200160002060008082016000905560018201600061067791906124bd565b5050565b600c5481565b806010816040516106929190613230565b908152602001604051809103902060009054906101000a900460ff16156106f057806040517f4a31fcb80000000000000000000000000000000000000000000000000000000081526004016106e79190613247565b60405180910390fd5b60016010836040516107029190613230565b908152602001604051809103902060006101000a81548160ff02191690831515021790555060006010600d60003373ffffffffffffffffffffffffffffffffffffffff1673ffffffffffffffffffffffffffffffffffffffff16815260200190815260200160002060010160405161077a91906131e8565b908152602001604051809103902060006101000a81548160ff02191690831515021790555081600d60003373ffffffffffffffffffffffffffffffffffffffff1673ffffffffffffffffffffffffffffffffffffffff16815260200190815260200160002060010190816107ee9190613400565b507f9d2c295aab95e31a7ed611ea0592f8d1ade2f72e3118f8de28b41d31cf3d2a76600d60003373ffffffffffffffffffffffffffffffffffffffff1673ffffffffffffffffffffffffffffffffffffffff1681526020019081526020016000206000015483604051610862929190612ea3565b60405180910390a15050565b60055481565b60606000610893600a60008581526020019081526020016000206120c3565b67ffffffffffffffff8111156108ac576108ab612667565b5b6040519080825280602002602001820160405280156108e557816020015b6108d26124fd565b8152602001906001900390816108ca5790505b50905060005b610906600a60008681526020019081526020016000206120c3565b811015610b41576006600061092d600a6000888152602001908152602001600020846120d8565b81526020019081526020016000206040518060a00160405290816000820154815260200160018201805461096090613114565b80601f016020809104026020016040519081016040528092919081815260200182805461098c90613114565b80156109d95780601f106109ae576101008083540402835291602001916109d9565b820191906000526020600020905b8154815290600101906020018083116109bc57829003601f168201915b505050505081526020016002820180546109f290613114565b80601f0160208091040260200160405190810160405280929190818152602001828054610a1e90613114565b8015610a6b5780601f10610a4057610100808354040283529160200191610a6b565b820191906000526020600020905b815481529060010190602001808311610a4e57829003601f168201915b50505050508152602001600382018054610a8490613114565b80601f0160208091040260200160405190810160405280929190818152602001828054610ab090613114565b8015610afd5780601f10610ad257610100808354040283529160200191610afd565b820191906000526020600020905b815481529060010190602001808311610ae057829003601f168201915b50505050508152602001600482015481525050828281518110610b2357610b226134d2565b5b60200260200101819052508080610b3990613501565b9150506108eb565b5080915050919050565b80601081604051610b5c9190613230565b908152602001604051809103902060009054906101000a900460ff1615610bba57806040517f4a31fcb8000000000000000000000000000000000000000000000000000000008152600401610bb19190613247565b60405180910390fd5b6000600d60003373ffffffffffffffffffffffffffffffffffffffff1673ffffffffffffffffffffffffffffffffffffffff1681526020019081526020016000206001018054610c0990613114565b905014610c4d57336040517f23ee4bac000000000000000000000000000000000000000000000000000000008152600401610c449190612d3b565b60405180910390fd5b600c6000815480929190610c6090613501565b91905055506040518060400160405280600c54815260200183815250600d60003373ffffffffffffffffffffffffffffffffffffffff1673ffffffffffffffffffffffffffffffffffffffff168152602001908152602001600020600082015181600001556020820151816001019081610cda9190613400565b50905050610ce9600e336120f2565b506001601083604051610cfc9190613230565b908152602001604051809103902060006101000a81548160ff0219169083151502179055505050565b803373ffffffffffffffffffffffffffffffffffffffff166002600083815260200190815260200160002060030160009054906101000a900473ffffffffffffffffffffffffffffffffffffffff1673ffffffffffffffffffffffffffffffffffffffff1614610dcc57806040517ff034e054000000000000000000000000000000000000000000000000000000008152600401610dc3919061261d565b60405180910390fd5b60056000815480929190610ddf90613501565b91905055506040518060a00160405280600554815260200186815260200185815260200184815260200183815250600660006005548152602001908152602001600020600082015181600001556020820151816001019081610e419190613400565b506040820151816002019081610e579190613400565b506060820151816003019081610e6d9190613400565b5060808201518160040155905050610e99600a6000848152602001908152602001600020600554612122565b50610ea76007600554612122565b506005547fad8078e4cde9c5c4cad797281d98afbfec3bb4ca040ac0b3ad2d72b5677d13e186868686604051610ee09493929190613549565b60405180910390a25050505050565b60066000828152602001908152602001600020600401543373ffffffffffffffffffffffffffffffffffffffff166002600083815260200190815260200160002060030160009054906101000a900473ffffffffffffffffffffffffffffffffffffffff1673ffffffffffffffffffffffffffffffffffffffff1614610fac57806040517ff034e054000000000000000000000000000000000000000000000000000000008152600401610fa3919061261d565b60405180910390fd5b610fde600a6000600660008681526020019081526020016000206004015481526020019081526020016000208361213c565b50610fea60078361213c565b506006600083815260200190815260200160002060008082016000905560018201600061101791906124bd565b60028201600061102791906124bd565b60038201600061103791906124bd565b600482016000905550505050565b60015481565b61105361252c565b600d60008373ffffffffffffffffffffffffffffffffffffffff1673ffffffffffffffffffffffffffffffffffffffff168152602001908152602001600020604051806040016040529081600082015481526020016001820180546110b790613114565b80601f01602080910402602001604051908101604052809291908181526020018280546110e390613114565b80156111305780601f1061110557610100808354040283529160200191611130565b820191906000526020600020905b81548152906001019060200180831161111357829003601f168201915b5050505050815250509050919050565b6060600061118b600960008573ffffffffffffffffffffffffffffffffffffffff1673ffffffffffffffffffffffffffffffffffffffff1681526020019081526020016000206120c3565b67ffffffffffffffff8111156111a4576111a3612667565b5b6040519080825280602002602001820160405280156111dd57816020015b6111ca612546565b8152602001906001900390816111c25790505b50905060005b61122a600960008673ffffffffffffffffffffffffffffffffffffffff1673ffffffffffffffffffffffffffffffffffffffff1681526020019081526020016000206120c3565b81101561144b576002600061127d600960008873ffffffffffffffffffffffffffffffffffffffff1673ffffffffffffffffffffffffffffffffffffffff168152602001908152602001600020846120d8565b8152602001908152602001600020604051806080016040529081600082015481526020016001820180546112b090613114565b80601f01602080910402602001604051908101604052809291908181526020018280546112dc90613114565b80156113295780601f106112fe57610100808354040283529160200191611329565b820191906000526020600020905b81548152906001019060200180831161130c57829003601f168201915b5050505050815260200160028201805461134290613114565b80601f016020809104026020016040519081016040528092919081815260200182805461136e90613114565b80156113bb5780601f10611390576101008083540402835291602001916113bb565b820191906000526020600020905b81548152906001019060200180831161139e57829003601f168201915b505050505081526020016003820160009054906101000a900473ffffffffffffffffffffffffffffffffffffffff1673ffffffffffffffffffffffffffffffffffffffff1673ffffffffffffffffffffffffffffffffffffffff168152505082828151811061142d5761142c6134d2565b5b6020026020010181905250808061144390613501565b9150506111e3565b5080915050919050565b61145d612156565b61146760006121dd565b565b61147161252c565b600d60003373ffffffffffffffffffffffffffffffffffffffff1673ffffffffffffffffffffffffffffffffffffffff168152602001908152602001600020604051806040016040529081600082015481526020016001820180546114d590613114565b80601f016020809104026020016040519081016040528092919081815260200182805461150190613114565b801561154e5780601f106115235761010080835404028352916020019161154e565b820191906000526020600020905b81548152906001019060200180831161153157829003601f168201915b505050505081525050905090565b6000600b60009054906101000a900473ffffffffffffffffffffffffffffffffffffffff16905090565b823373ffffffffffffffffffffffffffffffffffffffff166002600083815260200190815260200160002060030160009054906101000a900473ffffffffffffffffffffffffffffffffffffffff1673ffffffffffffffffffffffffffffffffffffffff161461162d57806040517ff034e054000000000000000000000000000000000000000000000000000000008152600401611624919061261d565b60405180910390fd5b826002600086815260200190815260200160002060010190816116509190613400565b50816002600086815260200190815260200160002060020190816116749190613400565b50837f258ba6fc11ff8d29dfc369bc96e8baaf90ae86401a366c5767a11c0f1f90b5ce8484336040516116a9939291906135a3565b60405180910390a250505050565b803373ffffffffffffffffffffffffffffffffffffffff166002600083815260200190815260200160002060030160009054906101000a900473ffffffffffffffffffffffffffffffffffffffff1673ffffffffffffffffffffffffffffffffffffffff161461175e57806040517ff034e054000000000000000000000000000000000000000000000000000000008152600401611755919061261d565b60405180910390fd5b6117a6600960003373ffffffffffffffffffffffffffffffffffffffff1673ffffffffffffffffffffffffffffffffffffffff1681526020019081526020016000208361213c565b506117b260038361213c565b50600260008381526020019081526020016000206000808201600090556001820160006117df91906124bd565b6002820160006117ef91906124bd565b6003820160006101000a81549073ffffffffffffffffffffffffffffffffffffffff021916905550505050565b6001600081548092919061182f90613501565b9190505550604051806080016040528060015481526020018381526020018281526020013373ffffffffffffffffffffffffffffffffffffffff168152506002600060015481526020019081526020016000206000820151816000015560208201518160010190816118a19190613400565b5060408201518160020190816118b79190613400565b5060608201518160030160006101000a81548173ffffffffffffffffffffffffffffffffffffffff021916908373ffffffffffffffffffffffffffffffffffffffff16021790555090505061194c600960003373ffffffffffffffffffffffffffffffffffffffff1673ffffffffffffffffffffffffffffffffffffffff168152602001908152602001600020600154612122565b5061195a6003600154612122565b506001547f258ba6fc11ff8d29dfc369bc96e8baaf90ae86401a366c5767a11c0f1f90b5ce838333604051611991939291906135a3565b60405180910390a25050565b600d6020528060005260406000206000915090508060000154908060010180546119c690613114565b80601f01602080910402602001604051908101604052809291908181526020018280546119f290613114565b8015611a3f5780601f10611a1457610100808354040283529160200191611a3f565b820191906000526020600020905b815481529060010190602001808311611a2257829003601f168201915b5050505050905082565b60066000858152602001908152602001600020600401543373ffffffffffffffffffffffffffffffffffffffff166002600083815260200190815260200160002060030160009054906101000a900473ffffffffffffffffffffffffffffffffffffffff1673ffffffffffffffffffffffffffffffffffffffff1614611b0657806040517ff034e054000000000000000000000000000000000000000000000000000000008152600401611afd919061261d565b60405180910390fd5b83600660008781526020019081526020016000206001019081611b299190613400565b5082600660008781526020019081526020016000206002019081611b4d9190613400565b5081600660008781526020019081526020016000206003019081611b719190613400565b50847fad8078e4cde9c5c4cad797281d98afbfec3bb4ca040ac0b3ad2d72b5677d13e1858585600660008b815260200190815260200160002060040154604051611bbe9493929190613549565b60405180910390a25050505050565b60606000611bdb60036120c3565b67ffffffffffffffff811115611bf457611bf3612667565b5b604051908082528060200260200182016040528015611c2d57816020015b611c1a612546565b815260200190600190039081611c125790505b50905060005b611c3d60036120c3565b811015611e215760026000611c536003846120d8565b815260200190815260200160002060405180608001604052908160008201548152602001600182018054611c8690613114565b80601f0160208091040260200160405190810160405280929190818152602001828054611cb290613114565b8015611cff5780601f10611cd457610100808354040283529160200191611cff565b820191906000526020600020905b815481529060010190602001808311611ce257829003601f168201915b50505050508152602001600282018054611d1890613114565b80601f0160208091040260200160405190810160405280929190818152602001828054611d4490613114565b8015611d915780601f10611d6657610100808354040283529160200191611d91565b820191906000526020600020905b815481529060010190602001808311611d7457829003601f168201915b505050505081526020016003820160009054906101000a900473ffffffffffffffffffffffffffffffffffffffff1673ffffffffffffffffffffffffffffffffffffffff1673ffffffffffffffffffffffffffffffffffffffff1681525050828281518110611e0357611e026134d2565b5b60200260200101819052508080611e1990613501565b915050611c33565b508091505090565b6010818051602081018201805184825260208301602085012081835280955050505050506000915054906101000a900460ff1681565b60005481565b6060611e6f612156565b6000611e7b600e6122a3565b67ffffffffffffffff811115611e9457611e93612667565b5b604051908082528060200260200182016040528015611ecd57816020015b611eba61252c565b815260200190600190039081611eb25790505b50905060005b611edd600e6122a3565b81101561200557600d6000611ef3600e846122b8565b73ffffffffffffffffffffffffffffffffffffffff1673ffffffffffffffffffffffffffffffffffffffff16815260200190815260200160002060405180604001604052908160008201548152602001600182018054611f5290613114565b80601f0160208091040260200160405190810160405280929190818152602001828054611f7e90613114565b8015611fcb5780601f10611fa057610100808354040283529160200191611fcb565b820191906000526020600020905b815481529060010190602001808311611fae57829003601f168201915b505050505081525050828281518110611fe757611fe66134d2565b5b60200260200101819052508080611ffd90613501565b915050611ed3565b508091505090565b612015612156565b600073ffffffffffffffffffffffffffffffffffffffff168173ffffffffffffffffffffffffffffffffffffffff16036120875760006040517f1e4fbdf700000000000000000000000000000000000000000000000000000000815260040161207e9190612d3b565b60405180910390fd5b612090816121dd565b50565b60006120bb836000018373ffffffffffffffffffffffffffffffffffffffff1660001b6122d2565b905092915050565b60006120d1826000016123e6565b9050919050565b60006120e783600001836123f7565b60001c905092915050565b600061211a836000018373ffffffffffffffffffffffffffffffffffffffff1660001b612422565b905092915050565b6000612134836000018360001b612422565b905092915050565b600061214e836000018360001b6122d2565b905092915050565b61215e612492565b73ffffffffffffffffffffffffffffffffffffffff1661217c61155c565b73ffffffffffffffffffffffffffffffffffffffff16146121db5761219f612492565b6040517f118cdaa70000000000000000000000000000000000000000000000000000000081526004016121d29190612d3b565b60405180910390fd5b565b6000600b60009054906101000a900473ffffffffffffffffffffffffffffffffffffffff16905081600b60006101000a81548173ffffffffffffffffffffffffffffffffffffffff021916908373ffffffffffffffffffffffffffffffffffffffff1602179055508173ffffffffffffffffffffffffffffffffffffffff168173ffffffffffffffffffffffffffffffffffffffff167f8be0079c531659141344cd1fd0a4f28419497f9722a3daafe3b4186f6b6457e060405160405180910390a35050565b60006122b1826000016123e6565b9050919050565b60006122c783600001836123f7565b60001c905092915050565b600080836001016000848152602001908152602001600020549050600081146123da57600060018261230491906135e8565b905060006001866000018054905061231c91906135e8565b905080821461238b57600086600001828154811061233d5761233c6134d2565b5b9060005260206000200154905080876000018481548110612361576123606134d2565b5b90600052602060002001819055508387600101600083815260200190815260200160002081905550505b8560000180548061239f5761239e61361c565b5b6001900381819060005260206000200160009055905585600101600086815260200190815260200160002060009055600193505050506123e0565b60009150505b92915050565b600081600001805490509050919050565b600082600001828154811061240f5761240e6134d2565b5b9060005260206000200154905092915050565b600061242e838361249a565b61248757826000018290806001815401808255809150506001900390600052602060002001600090919091909150558260000180549050836001016000848152602001908152602001600020819055506001905061248c565b600090505b92915050565b600033905090565b600080836001016000848152602001908152602001600020541415905092915050565b5080546124c990613114565b6000825580601f106124db57506124fa565b601f0160209004906000526020600020908101906124f99190612584565b5b50565b6040518060a0016040528060008152602001606081526020016060815260200160608152602001600081525090565b604051806040016040528060008152602001606081525090565b6040518060800160405280600081526020016060815260200160608152602001600073ffffffffffffffffffffffffffffffffffffffff1681525090565b5b8082111561259d576000816000905550600101612585565b5090565b6000819050919050565b7f4e487b7100000000000000000000000000000000000000000000000000000000600052601160045260246000fd5b60006125e5826125a1565b91506125f0836125a1565b9250828201905080821115612608576126076125ab565b5b92915050565b612617816125a1565b82525050565b6000602082019050612632600083018461260e565b92915050565b6000604051905090565b600080fd5b600080fd5b600080fd5b600080fd5b6000601f19601f8301169050919050565b7f4e487b7100000000000000000000000000000000000000000000000000000000600052604160045260246000fd5b61269f82612656565b810181811067ffffffffffffffff821117156126be576126bd612667565b5b80604052505050565b60006126d1612638565b90506126dd8282612696565b919050565b600067ffffffffffffffff8211156126fd576126fc612667565b5b61270682612656565b9050602081019050919050565b82818337600083830152505050565b6000612735612730846126e2565b6126c7565b90508281526020810184848401111561275157612750612651565b5b61275c848285612713565b509392505050565b600082601f8301126127795761277861264c565b5b8135612789848260208601612722565b91505092915050565b6000602082840312156127a8576127a7612642565b5b600082013567ffffffffffffffff8111156127c6576127c5612647565b5b6127d284828501612764565b91505092915050565b6127e4816125a1565b81146127ef57600080fd5b50565b600081359050612801816127db565b92915050565b60006020828403121561281d5761281c612642565b5b600061282b848285016127f2565b91505092915050565b600081519050919050565b600082825260208201905092915050565b6000819050602082019050919050565b612869816125a1565b82525050565b600081519050919050565b600082825260208201905092915050565b60005b838110156128a957808201518184015260208101905061288e565b60008484015250505050565b60006128c08261286f565b6128ca818561287a565b93506128da81856020860161288b565b6128e381612656565b840191505092915050565b600060a0830160008301516129066000860182612860565b506020830151848203602086015261291e82826128b5565b9150506040830151848203604086015261293882826128b5565b9150506060830151848203606086015261295282826128b5565b91505060808301516129676080860182612860565b508091505092915050565b600061297e83836128ee565b905092915050565b6000602082019050919050565b600061299e82612834565b6129a8818561283f565b9350836020820285016129ba85612850565b8060005b858110156129f657848403895281516129d78582612972565b94506129e283612986565b925060208a019950506001810190506129be565b50829750879550505050505092915050565b60006020820190508181036000830152612a228184612993565b905092915050565b60008060008060808587031215612a4457612a43612642565b5b600085013567ffffffffffffffff811115612a6257612a61612647565b5b612a6e87828801612764565b945050602085013567ffffffffffffffff811115612a8f57612a8e612647565b5b612a9b87828801612764565b935050604085013567ffffffffffffffff811115612abc57612abb612647565b5b612ac887828801612764565b9250506060612ad9878288016127f2565b91505092959194509250565b600073ffffffffffffffffffffffffffffffffffffffff82169050919050565b6000612b1082612ae5565b9050919050565b612b2081612b05565b8114612b2b57600080fd5b50565b600081359050612b3d81612b17565b92915050565b600060208284031215612b5957612b58612642565b5b6000612b6784828501612b2e565b91505092915050565b6000604083016000830151612b886000860182612860565b5060208301518482036020860152612ba082826128b5565b9150508091505092915050565b60006020820190508181036000830152612bc78184612b70565b905092915050565b600081519050919050565b600082825260208201905092915050565b6000819050602082019050919050565b612c0481612b05565b82525050565b6000608083016000830151612c226000860182612860565b5060208301518482036020860152612c3a82826128b5565b91505060408301518482036040860152612c5482826128b5565b9150506060830151612c696060860182612bfb565b508091505092915050565b6000612c808383612c0a565b905092915050565b6000602082019050919050565b6000612ca082612bcf565b612caa8185612bda565b935083602082028501612cbc85612beb565b8060005b85811015612cf85784840389528151612cd98582612c74565b9450612ce483612c88565b925060208a01995050600181019050612cc0565b50829750879550505050505092915050565b60006020820190508181036000830152612d248184612c95565b905092915050565b612d3581612b05565b82525050565b6000602082019050612d506000830184612d2c565b92915050565b600080600060608486031215612d6f57612d6e612642565b5b6000612d7d868287016127f2565b935050602084013567ffffffffffffffff811115612d9e57612d9d612647565b5b612daa86828701612764565b925050604084013567ffffffffffffffff811115612dcb57612dca612647565b5b612dd786828701612764565b9150509250925092565b60008060408385031215612df857612df7612642565b5b600083013567ffffffffffffffff811115612e1657612e15612647565b5b612e2285828601612764565b925050602083013567ffffffffffffffff811115612e4357612e42612647565b5b612e4f85828601612764565b9150509250929050565b600082825260208201905092915050565b6000612e758261286f565b612e7f8185612e59565b9350612e8f81856020860161288b565b612e9881612656565b840191505092915050565b6000604082019050612eb8600083018561260e565b8181036020830152612eca8184612e6a565b90509392505050565b60008060008060808587031215612eed57612eec612642565b5b6000612efb878288016127f2565b945050602085013567ffffffffffffffff811115612f1c57612f1b612647565b5b612f2887828801612764565b935050604085013567ffffffffffffffff811115612f4957612f48612647565b5b612f5587828801612764565b925050606085013567ffffffffffffffff811115612f7657612f75612647565b5b612f8287828801612764565b91505092959194509250565b60008115159050919050565b612fa381612f8e565b82525050565b6000602082019050612fbe6000830184612f9a565b92915050565b600081519050919050565b600082825260208201905092915050565b6000819050602082019050919050565b60006040830160008301516130086000860182612860565b506020830151848203602086015261302082826128b5565b9150508091505092915050565b60006130398383612ff0565b905092915050565b6000602082019050919050565b600061305982612fc4565b6130638185612fcf565b93508360208202850161307585612fe0565b8060005b858110156130b15784840389528151613092858261302d565b945061309d83613041565b925060208a01995050600181019050613079565b50829750879550505050505092915050565b600060208201905081810360008301526130dd818461304e565b905092915050565b7f4e487b7100000000000000000000000000000000000000000000000000000000600052602260045260246000fd5b6000600282049050600182168061312c57607f821691505b60208210810361313f5761313e6130e5565b5b50919050565b600081905092915050565b60008190508160005260206000209050919050565b6000815461317281613114565b61317c8186613145565b9450600182166000811461319757600181146131ac576131df565b60ff19831686528115158202860193506131df565b6131b585613150565b60005b838110156131d7578154818901526001820191506020810190506131b8565b838801955050505b50505092915050565b60006131f48284613165565b915081905092915050565b600061320a8261286f565b6132148185613145565b935061322481856020860161288b565b80840191505092915050565b600061323c82846131ff565b915081905092915050565b600060208201905081810360008301526132618184612e6a565b905092915050565b60006020601f8301049050919050565b600082821b905092915050565b6000600883026132b67fffffffffffffffffffffffffffffffffffffffffffffffffffffffffffffffff82613279565b6132c08683613279565b95508019841693508086168417925050509392505050565b6000819050919050565b60006132fd6132f86132f3846125a1565b6132d8565b6125a1565b9050919050565b6000819050919050565b613317836132e2565b61332b61332382613304565b848454613286565b825550505050565b600090565b613340613333565b61334b81848461330e565b505050565b5b8181101561336f57613364600082613338565b600181019050613351565b5050565b601f8211156133b45761338581613150565b61338e84613269565b8101602085101561339d578190505b6133b16133a985613269565b830182613350565b50505b505050565b600082821c905092915050565b60006133d7600019846008026133b9565b1980831691505092915050565b60006133f083836133c6565b9150826002028217905092915050565b6134098261286f565b67ffffffffffffffff81111561342257613421612667565b5b61342c8254613114565b613437828285613373565b600060209050601f83116001811461346a5760008415613458578287015190505b61346285826133e4565b8655506134ca565b601f19841661347886613150565b60005b828110156134a05784890151825560018201915060208501945060208101905061347b565b868310156134bd57848901516134b9601f8916826133c6565b8355505b6001600288020188555050505b505050505050565b7f4e487b7100000000000000000000000000000000000000000000000000000000600052603260045260246000fd5b600061350c826125a1565b91507fffffffffffffffffffffffffffffffffffffffffffffffffffffffffffffffff820361353e5761353d6125ab565b5b600182019050919050565b600060808201905081810360008301526135638187612e6a565b905081810360208301526135778186612e6a565b9050818103604083015261358b8185612e6a565b905061359a606083018461260e565b95945050505050565b600060608201905081810360008301526135bd8186612e6a565b905081810360208301526135d18185612e6a565b90506135e06040830184612d2c565b949350505050565b60006135f3826125a1565b91506135fe836125a1565b9250828203905081811115613616576136156125ab565b5b92915050565b7f4e487b7100000000000000000000000000000000000000000000000000000000600052603160045260246000fdfea264697066735822122003282f8be065c1e455de31d418d9a6e44648da9ebe4593435b6a59ff3692fb8d64736f6c63430008140033",
  "linkReferences": {},
  "deployedLinkReferences": {}
}