{
  "_format": "hh-sol-artifact-1",
  "contractName": "Main",
  "sourceName": "contracts/Main.sol",
  "abi": [
    {
      "inputs": [],
      "stateMutability": "payable",
      "type": "constructor"
    },
    {
      "inputs": [
        {
          "internalType": "string",
          "name": "name",
          "type": "string"
        }
      ],
      "name": "NameAlreadyExists",
      "type": "error"
    },
    {
      "inputs": [
        {
          "internalType": "uint256",
          "name": "courseId",
          "type": "uint256"
        }
      ],
      "name": "NotCourseAuthor",
      "type": "error"
    },
    {
      "inputs": [
        {
          "internalType": "address",
          "name": "owner",
          "type": "address"
        }
      ],
      "name": "OwnableInvalidOwner",
      "type": "error"
    },
    {
      "inputs": [
        {
          "internalType": "address",
          "name": "account",
          "type": "address"
        }
      ],
      "name": "OwnableUnauthorizedAccount",
      "type": "error"
    },
    {
      "inputs": [
        {
          "internalType": "address",
          "name": "user",
          "type": "address"
        }
      ],
      "name": "UserAlreadyExists",
      "type": "error"
    },
    {
      "anonymous": false,
      "inputs": [
        {
          "indexed": true,
          "internalType": "uint256",
          "name": "cardId",
          "type": "uint256"
        },
        {
          "indexed": false,
          "internalType": "string",
          "name": "word",
          "type": "string"
        },
        {
          "indexed": false,
          "internalType": "string",
          "name": "meaning",
          "type": "string"
        },
        {
          "indexed": false,
          "internalType": "string",
          "name": "example",
          "type": "string"
        },
        {
          "indexed": false,
          "internalType": "uint256",
          "name": "courseId",
          "type": "uint256"
        }
      ],
      "name": "CardChange",
      "type": "event"
    },
    {
      "anonymous": false,
      "inputs": [
        {
          "indexed": true,
          "internalType": "uint256",
          "name": "courseId",
          "type": "uint256"
        },
        {
          "indexed": false,
          "internalType": "string",
          "name": "name",
          "type": "string"
        },
        {
          "indexed": false,
          "internalType": "string",
          "name": "description",
          "type": "string"
        },
        {
          "indexed": false,
          "internalType": "address",
          "name": "author",
          "type": "address"
        }
      ],
      "name": "CourseChange",
      "type": "event"
    },
    {
      "anonymous": false,
      "inputs": [
        {
          "indexed": true,
          "internalType": "address",
          "name": "previousOwner",
          "type": "address"
        },
        {
          "indexed": true,
          "internalType": "address",
          "name": "newOwner",
          "type": "address"
        }
      ],
      "name": "OwnershipTransferred",
      "type": "event"
    },
    {
      "anonymous": false,
      "inputs": [
        {
          "indexed": false,
          "internalType": "uint256",
          "name": "id",
          "type": "uint256"
        },
        {
          "indexed": false,
          "internalType": "string",
          "name": "name",
          "type": "string"
        }
      ],
      "name": "UserChanged",
      "type": "event"
    },
    {
      "anonymous": false,
      "inputs": [
        {
          "indexed": false,
          "internalType": "uint256",
          "name": "id",
          "type": "uint256"
        },
        {
          "indexed": false,
          "internalType": "string",
          "name": "name",
          "type": "string"
        }
      ],
      "name": "UserCreated",
      "type": "event"
    },
    {
      "inputs": [],
      "name": "cardCount",
      "outputs": [
        {
          "internalType": "uint256",
          "name": "",
          "type": "uint256"
        }
      ],
      "stateMutability": "view",
      "type": "function"
    },
    {
      "inputs": [
        {
          "internalType": "uint256",
          "name": "",
          "type": "uint256"
        }
      ],
      "name": "cards",
      "outputs": [
        {
          "internalType": "uint256",
          "name": "id",
          "type": "uint256"
        },
        {
          "internalType": "string",
          "name": "word",
          "type": "string"
        },
        {
          "internalType": "string",
          "name": "meaning",
          "type": "string"
        },
        {
          "internalType": "string",
          "name": "example",
          "type": "string"
        },
        {
          "internalType": "uint256",
          "name": "courseId",
          "type": "uint256"
        }
      ],
      "stateMutability": "view",
      "type": "function"
    },
    {
      "inputs": [],
      "name": "courseCount",
      "outputs": [
        {
          "internalType": "uint256",
          "name": "",
          "type": "uint256"
        }
      ],
      "stateMutability": "view",
      "type": "function"
    },
    {
      "inputs": [
        {
          "internalType": "uint256",
          "name": "",
          "type": "uint256"
        }
      ],
      "name": "courses",
      "outputs": [
        {
          "internalType": "uint256",
          "name": "id",
          "type": "uint256"
        },
        {
          "internalType": "string",
          "name": "name",
          "type": "string"
        },
        {
          "internalType": "string",
          "name": "description",
          "type": "string"
        },
        {
          "internalType": "address",
          "name": "author",
          "type": "address"
        }
      ],
      "stateMutability": "view",
      "type": "function"
    },
    {
      "inputs": [
        {
          "internalType": "string",
          "name": "word",
          "type": "string"
        },
        {
          "internalType": "string",
          "name": "meaning",
          "type": "string"
        },
        {
          "internalType": "string",
          "name": "example",
          "type": "string"
        },
        {
          "internalType": "uint256",
          "name": "courseId",
          "type": "uint256"
        }
      ],
      "name": "createCard",
      "outputs": [],
      "stateMutability": "nonpayable",
      "type": "function"
    },
    {
      "inputs": [
        {
          "internalType": "string",
          "name": "name",
          "type": "string"
        },
        {
          "internalType": "string",
          "name": "description",
          "type": "string"
        }
      ],
      "name": "createCourse",
      "outputs": [],
      "stateMutability": "nonpayable",
      "type": "function"
    },
    {
      "inputs": [
        {
          "internalType": "string",
          "name": "name",
          "type": "string"
        }
      ],
      "name": "createUser",
      "outputs": [],
      "stateMutability": "nonpayable",
      "type": "function"
    },
    {
      "inputs": [
        {
          "internalType": "uint256",
          "name": "cardId",
          "type": "uint256"
        }
      ],
      "name": "deleteCard",
      "outputs": [],
      "stateMutability": "nonpayable",
      "type": "function"
    },
    {
      "inputs": [
        {
          "internalType": "uint256",
          "name": "courseId",
          "type": "uint256"
        }
      ],
      "name": "deleteCourse",
      "outputs": [],
      "stateMutability": "nonpayable",
      "type": "function"
    },
    {
      "inputs": [],
      "name": "deleteUser",
      "outputs": [],
      "stateMutability": "nonpayable",
      "type": "function"
    },
    {
      "inputs": [],
      "name": "getAllUsers",
      "outputs": [
        {
          "components": [
            {
              "internalType": "uint256",
              "name": "id",
              "type": "uint256"
            },
            {
              "internalType": "string",
              "name": "name",
              "type": "string"
            }
          ],
          "internalType": "struct Main.User[]",
          "name": "",
          "type": "tuple[]"
        }
      ],
      "stateMutability": "view",
      "type": "function"
    },
    {
      "inputs": [
        {
          "internalType": "uint256",
          "name": "courseId",
          "type": "uint256"
        }
      ],
      "name": "getCardsByCourse",
      "outputs": [
        {
          "components": [
            {
              "internalType": "uint256",
              "name": "id",
              "type": "uint256"
            },
            {
              "internalType": "string",
              "name": "word",
              "type": "string"
            },
            {
              "internalType": "string",
              "name": "meaning",
              "type": "string"
            },
            {
              "internalType": "string",
              "name": "example",
              "type": "string"
            },
            {
              "internalType": "uint256",
              "name": "courseId",
              "type": "uint256"
            }
          ],
          "internalType": "struct CoursesStorage.Card[]",
          "name": "",
          "type": "tuple[]"
        }
      ],
      "stateMutability": "view",
      "type": "function"
    },
    {
      "inputs": [],
      "name": "getCourses",
      "outputs": [
        {
          "components": [
            {
              "internalType": "uint256",
              "name": "id",
              "type": "uint256"
            },
            {
              "internalType": "string",
              "name": "name",
              "type": "string"
            },
            {
              "internalType": "string",
              "name": "description",
              "type": "string"
            },
            {
              "internalType": "uint256[]",
              "name": "cardIds",
              "type": "uint256[]"
            },
            {
              "internalType": "address",
              "name": "author",
              "type": "address"
            }
          ],
          "internalType": "struct CoursesStorage.Course[]",
          "name": "",
          "type": "tuple[]"
        }
      ],
      "stateMutability": "view",
      "type": "function"
    },
    {
      "inputs": [
        {
          "internalType": "address",
          "name": "author",
          "type": "address"
        }
      ],
      "name": "getCoursesByAuthor",
      "outputs": [
        {
          "components": [
            {
              "internalType": "uint256",
              "name": "id",
              "type": "uint256"
            },
            {
              "internalType": "string",
              "name": "name",
              "type": "string"
            },
            {
              "internalType": "string",
              "name": "description",
              "type": "string"
            },
            {
              "internalType": "uint256[]",
              "name": "cardIds",
              "type": "uint256[]"
            },
            {
              "internalType": "address",
              "name": "author",
              "type": "address"
            }
          ],
          "internalType": "struct CoursesStorage.Course[]",
          "name": "",
          "type": "tuple[]"
        }
      ],
      "stateMutability": "view",
      "type": "function"
    },
    {
      "inputs": [],
      "name": "getUser",
      "outputs": [
        {
          "components": [
            {
              "internalType": "uint256",
              "name": "id",
              "type": "uint256"
            },
            {
              "internalType": "string",
              "name": "name",
              "type": "string"
            }
          ],
          "internalType": "struct Main.User",
          "name": "",
          "type": "tuple"
        }
      ],
      "stateMutability": "view",
      "type": "function"
    },
    {
      "inputs": [
        {
          "internalType": "address",
          "name": "userAddress",
          "type": "address"
        }
      ],
      "name": "getUserByAddress",
      "outputs": [
        {
          "components": [
            {
              "internalType": "uint256",
              "name": "id",
              "type": "uint256"
            },
            {
              "internalType": "string",
              "name": "name",
              "type": "string"
            }
          ],
          "internalType": "struct Main.User",
          "name": "",
          "type": "tuple"
        }
      ],
      "stateMutability": "view",
      "type": "function"
    },
    {
      "inputs": [
        {
          "internalType": "string",
          "name": "",
          "type": "string"
        }
      ],
      "name": "nameExists",
      "outputs": [
        {
          "internalType": "bool",
          "name": "",
          "type": "bool"
        }
      ],
      "stateMutability": "view",
      "type": "function"
    },
    {
      "inputs": [],
      "name": "owner",
      "outputs": [
        {
          "internalType": "address",
          "name": "",
          "type": "address"
        }
      ],
      "stateMutability": "view",
      "type": "function"
    },
    {
      "inputs": [],
      "name": "receivedEther",
      "outputs": [
        {
          "internalType": "uint256",
          "name": "",
          "type": "uint256"
        }
      ],
      "stateMutability": "view",
      "type": "function"
    },
    {
      "inputs": [],
      "name": "renounceOwnership",
      "outputs": [],
      "stateMutability": "nonpayable",
      "type": "function"
    },
    {
      "inputs": [
        {
          "internalType": "address",
          "name": "newOwner",
          "type": "address"
        }
      ],
      "name": "transferOwnership",
      "outputs": [],
      "stateMutability": "nonpayable",
      "type": "function"
    },
    {
      "inputs": [
        {
          "internalType": "uint256",
          "name": "cardId",
          "type": "uint256"
        },
        {
          "internalType": "string",
          "name": "word",
          "type": "string"
        },
        {
          "internalType": "string",
          "name": "meaning",
          "type": "string"
        },
        {
          "internalType": "string",
          "name": "example",
          "type": "string"
        }
      ],
      "name": "updateCard",
      "outputs": [],
      "stateMutability": "nonpayable",
      "type": "function"
    },
    {
      "inputs": [
        {
          "internalType": "uint256",
          "name": "courseId",
          "type": "uint256"
        },
        {
          "internalType": "string",
          "name": "name",
          "type": "string"
        },
        {
          "internalType": "string",
          "name": "description",
          "type": "string"
        }
      ],
      "name": "updateCourse",
      "outputs": [],
      "stateMutability": "nonpayable",
      "type": "function"
    },
    {
      "inputs": [
        {
          "internalType": "string",
          "name": "name",
          "type": "string"
        }
      ],
      "name": "updateUser",
      "outputs": [],
      "stateMutability": "nonpayable",
      "type": "function"
    },
    {
      "inputs": [
        {
          "internalType": "uint256",
          "name": "",
          "type": "uint256"
        }
      ],
      "name": "userAddresses",
      "outputs": [
        {
          "internalType": "address",
          "name": "",
          "type": "address"
        }
      ],
      "stateMutability": "view",
      "type": "function"
    },
    {
      "inputs": [],
      "name": "userCount",
      "outputs": [
        {
          "internalType": "uint256",
          "name": "",
          "type": "uint256"
        }
      ],
      "stateMutability": "view",
      "type": "function"
    },
    {
      "inputs": [
        {
          "internalType": "address",
          "name": "",
          "type": "address"
        }
      ],
      "name": "users",
      "outputs": [
        {
          "internalType": "uint256",
          "name": "id",
          "type": "uint256"
        },
        {
          "internalType": "string",
          "name": "name",
          "type": "string"
        }
      ],
      "stateMutability": "view",
      "type": "function"
    },
    {
      "stateMutability": "payable",
      "type": "receive"
    }
  ],
  "bytecode": "0x608060405260006001556000600355600060085533600073ffffffffffffffffffffffffffffffffffffffff168173ffffffffffffffffffffffffffffffffffffffff1603620000895760006040517f1e4fbdf700000000000000000000000000000000000000000000000000000000815260040162000080919062000461565b60405180910390fd5b6200009a81620000e760201b60201c565b50620000e16040518060400160405280600581526020017f41646d696e000000000000000000000000000000000000000000000000000000815250620001ad60201b60201c565b620009ae565b6000600760009054906101000a900473ffffffffffffffffffffffffffffffffffffffff16905081600760006101000a81548173ffffffffffffffffffffffffffffffffffffffff021916908373ffffffffffffffffffffffffffffffffffffffff1602179055508173ffffffffffffffffffffffffffffffffffffffff168173ffffffffffffffffffffffffffffffffffffffff167f8be0079c531659141344cd1fd0a4f28419497f9722a3daafe3b4186f6b6457e060405160405180910390a35050565b80600b81604051620001c09190620004f7565b908152602001604051809103902060009054906101000a900460ff16156200022157806040517f4a31fcb800000000000000000000000000000000000000000000000000000000815260040162000218919062000573565b60405180910390fd5b6000600960003373ffffffffffffffffffffffffffffffffffffffff1673ffffffffffffffffffffffffffffffffffffffff16815260200190815260200160002060010180546200027290620005c6565b905014620002b957336040517f23ee4bac000000000000000000000000000000000000000000000000000000008152600401620002b0919062000461565b60405180910390fd5b60086000815480929190620002ce9062000634565b91905055506040518060400160405280600854815260200183815250600960003373ffffffffffffffffffffffffffffffffffffffff1673ffffffffffffffffffffffffffffffffffffffff1681526020019081526020016000206000820151816000015560208201518160010190816200034a919062000882565b5090505033600a6000600854815260200190815260200160002060006101000a81548173ffffffffffffffffffffffffffffffffffffffff021916908373ffffffffffffffffffffffffffffffffffffffff1602179055506001600b83604051620003b69190620004f7565b908152602001604051809103902060006101000a81548160ff0219169083151502179055507fee305ea110dac8054a0415771cedeb3372a69ef1c3916abb2f5e1b3658d77c0e60085483604051620004109291906200097a565b60405180910390a15050565b600073ffffffffffffffffffffffffffffffffffffffff82169050919050565b600062000449826200041c565b9050919050565b6200045b816200043c565b82525050565b600060208201905062000478600083018462000450565b92915050565b600081519050919050565b600081905092915050565b60005b83811015620004b457808201518184015260208101905062000497565b60008484015250505050565b6000620004cd826200047e565b620004d9818562000489565b9350620004eb81856020860162000494565b80840191505092915050565b6000620005058284620004c0565b915081905092915050565b600082825260208201905092915050565b6000601f19601f8301169050919050565b60006200053f826200047e565b6200054b818562000510565b93506200055d81856020860162000494565b620005688162000521565b840191505092915050565b600060208201905081810360008301526200058f818462000532565b905092915050565b7f4e487b7100000000000000000000000000000000000000000000000000000000600052602260045260246000fd5b60006002820490506001821680620005df57607f821691505b602082108103620005f557620005f462000597565b5b50919050565b7f4e487b7100000000000000000000000000000000000000000000000000000000600052601160045260246000fd5b6000819050919050565b600062000641826200062a565b91507fffffffffffffffffffffffffffffffffffffffffffffffffffffffffffffffff8203620006765762000675620005fb565b5b600182019050919050565b7f4e487b7100000000000000000000000000000000000000000000000000000000600052604160045260246000fd5b60008190508160005260206000209050919050565b60006020601f8301049050919050565b600082821b905092915050565b600060088302620007147fffffffffffffffffffffffffffffffffffffffffffffffffffffffffffffffff82620006d5565b620007208683620006d5565b95508019841693508086168417925050509392505050565b6000819050919050565b6000620007636200075d62000757846200062a565b62000738565b6200062a565b9050919050565b6000819050919050565b6200077f8362000742565b620007976200078e826200076a565b848454620006e2565b825550505050565b600090565b620007ae6200079f565b620007bb81848462000774565b505050565b5b81811015620007e357620007d7600082620007a4565b600181019050620007c1565b5050565b601f8211156200083257620007fc81620006b0565b6200080784620006c5565b8101602085101562000817578190505b6200082f6200082685620006c5565b830182620007c0565b50505b505050565b600082821c905092915050565b6000620008576000198460080262000837565b1980831691505092915050565b600062000872838362000844565b9150826002028217905092915050565b6200088d826200047e565b67ffffffffffffffff811115620008a957620008a862000681565b5b620008b58254620005c6565b620008c2828285620007e7565b600060209050601f831160018114620008fa5760008415620008e5578287015190505b620008f1858262000864565b86555062000961565b601f1984166200090a86620006b0565b60005b8281101562000934578489015182556001820191506020850194506020810190506200090d565b8683101562000954578489015162000950601f89168262000844565b8355505b6001600288020188555050505b505050505050565b62000974816200062a565b82525050565b600060408201905062000991600083018562000969565b8181036020830152620009a5818462000532565b90509392505050565b613ba280620009be6000396000f3fe6080604052600436106101a05760003560e01c8063832880e7116100ec578063a87430ba1161008a578063cc637afe11610064578063cc637afe146105ee578063cd53e4551461062b578063e2842d7914610656578063f2fde38b14610681576101be565b8063a87430ba1461055c578063b51183b01461059a578063cc126479146105c3576101be565b806394f9d84c116100c657806394f9d84c146104a157806396f979d2146104ca5780639dad8d221461050a578063a26a795314610533576101be565b8063832880e71461040a5780638da5cb5b146104355780638dc1076814610460576101be565b8063507ffba5116101595780636605515911610133578063660551591461034e57806369c212f61461037957806370e24a2f146103b6578063715018a6146103f3576101be565b8063507ffba5146102d357806357744a61146102fc5780635e1acf6514610325576101be565b8063026ff05e146101c357806307973ccf146101da5780630b4f12f6146102055780631b6cde101461022e578063502c9bd5146102595780635069ca2e14610296576101be565b366101be57346000808282546101b691906129da565b925050819055005b600080fd5b3480156101cf57600080fd5b506101d86106aa565b005b3480156101e657600080fd5b506101ef6107f6565b6040516101fc9190612a1d565b60405180910390f35b34801561021157600080fd5b5061022c60048036038101906102279190612b92565b6107fc565b005b34801561023a57600080fd5b506102436109e9565b6040516102509190612a1d565b60405180910390f35b34801561026557600080fd5b50610280600480360381019061027b9190612c07565b6109ef565b60405161028d9190612c75565b60405180910390f35b3480156102a257600080fd5b506102bd60048036038101906102b89190612c07565b610a22565b6040516102ca9190612e64565b60405180910390f35b3480156102df57600080fd5b506102fa60048036038101906102f59190612b92565b610d0e565b005b34801561030857600080fd5b50610323600480360381019061031e9190612e86565b610f6b565b005b34801561033157600080fd5b5061034c60048036038101906103479190612c07565b611183565b005b34801561035a57600080fd5b5061036361129a565b6040516103709190612a1d565b60405180910390f35b34801561038557600080fd5b506103a0600480360381019061039b9190612f6d565b6112a0565b6040516103ad9190612fd7565b60405180910390f35b3480156103c257600080fd5b506103dd60048036038101906103d89190612f6d565b611395565b6040516103ea91906131fd565b60405180910390f35b3480156103ff57600080fd5b506104086116de565b005b34801561041657600080fd5b5061041f6116f2565b60405161042c9190612fd7565b60405180910390f35b34801561044157600080fd5b5061044a6117e5565b6040516104579190612c75565b60405180910390f35b34801561046c57600080fd5b5061048760048036038101906104829190612c07565b61180f565b604051610498959493929190613269565b60405180910390f35b3480156104ad57600080fd5b506104c860048036038101906104c391906132d1565b6119dd565b005b3480156104d657600080fd5b506104f160048036038101906104ec9190612c07565b611b0e565b604051610501949392919061335c565b60405180910390f35b34801561051657600080fd5b50610531600480360381019061052c9190612c07565b611c6e565b005b34801561053f57600080fd5b5061055a600480360381019061055591906133af565b611d8e565b005b34801561056857600080fd5b50610583600480360381019061057e9190612f6d565b611f8a565b604051610591929190613427565b60405180910390f35b3480156105a657600080fd5b506105c160048036038101906105bc9190613457565b612036565b005b3480156105cf57600080fd5b506105d86121ba565b6040516105e591906131fd565b60405180910390f35b3480156105fa57600080fd5b5061061560048036038101906106109190612b92565b612462565b604051610622919061352d565b60405180910390f35b34801561063757600080fd5b50610640612498565b60405161064d9190612a1d565b60405180910390f35b34801561066257600080fd5b5061066b61249e565b6040516106789190613647565b60405180910390f35b34801561068d57600080fd5b506106a860048036038101906106a39190612f6d565b61266d565b005b6000600b600960003373ffffffffffffffffffffffffffffffffffffffff1673ffffffffffffffffffffffffffffffffffffffff1681526020019081526020016000206001016040516106fd919061376c565b908152602001604051809103902060006101000a81548160ff021916908315150217905550600a6000600960003373ffffffffffffffffffffffffffffffffffffffff1673ffffffffffffffffffffffffffffffffffffffff16815260200190815260200160002060000154815260200190815260200160002060006101000a81549073ffffffffffffffffffffffffffffffffffffffff0219169055600960003373ffffffffffffffffffffffffffffffffffffffff1673ffffffffffffffffffffffffffffffffffffffff1681526020019081526020016000206000808201600090556001820160006107f29190612848565b5050565b60085481565b80600b8160405161080d91906137b4565b908152602001604051809103902060009054906101000a900460ff161561086b57806040517f4a31fcb800000000000000000000000000000000000000000000000000000000815260040161086291906137cb565b60405180910390fd5b6001600b8360405161087d91906137b4565b908152602001604051809103902060006101000a81548160ff0219169083151502179055506000600b600960003373ffffffffffffffffffffffffffffffffffffffff1673ffffffffffffffffffffffffffffffffffffffff1681526020019081526020016000206001016040516108f5919061376c565b908152602001604051809103902060006101000a81548160ff02191690831515021790555081600960003373ffffffffffffffffffffffffffffffffffffffff1673ffffffffffffffffffffffffffffffffffffffff16815260200190815260200160002060010190816109699190613984565b507f9d2c295aab95e31a7ed611ea0592f8d1ade2f72e3118f8de28b41d31cf3d2a76600960003373ffffffffffffffffffffffffffffffffffffffff1673ffffffffffffffffffffffffffffffffffffffff16815260200190815260200160002060000154836040516109dd929190613427565b60405180910390a15050565b60035481565b600a6020528060005260406000206000915054906101000a900473ffffffffffffffffffffffffffffffffffffffff1681565b60606000600260008481526020019081526020016000206003018054905067ffffffffffffffff811115610a5957610a58612a67565b5b604051908082528060200260200182016040528015610a9257816020015b610a7f612888565b815260200190600190039081610a775790505b50905060005b6002600085815260200190815260200160002060030180549050811015610d045760046000600260008781526020019081526020016000206003018381548110610ae557610ae4613a56565b5b906000526020600020015481526020019081526020016000206040518060a001604052908160008201548152602001600182018054610b2390613698565b80601f0160208091040260200160405190810160405280929190818152602001828054610b4f90613698565b8015610b9c5780601f10610b7157610100808354040283529160200191610b9c565b820191906000526020600020905b815481529060010190602001808311610b7f57829003601f168201915b50505050508152602001600282018054610bb590613698565b80601f0160208091040260200160405190810160405280929190818152602001828054610be190613698565b8015610c2e5780601f10610c0357610100808354040283529160200191610c2e565b820191906000526020600020905b815481529060010190602001808311610c1157829003601f168201915b50505050508152602001600382018054610c4790613698565b80601f0160208091040260200160405190810160405280929190818152602001828054610c7390613698565b8015610cc05780601f10610c9557610100808354040283529160200191610cc0565b820191906000526020600020905b815481529060010190602001808311610ca357829003601f168201915b50505050508152602001600482015481525050828281518110610ce657610ce5613a56565b5b60200260200101819052508080610cfc90613a85565b915050610a98565b5080915050919050565b80600b81604051610d1f91906137b4565b908152602001604051809103902060009054906101000a900460ff1615610d7d57806040517f4a31fcb8000000000000000000000000000000000000000000000000000000008152600401610d7491906137cb565b60405180910390fd5b6000600960003373ffffffffffffffffffffffffffffffffffffffff1673ffffffffffffffffffffffffffffffffffffffff1681526020019081526020016000206001018054610dcc90613698565b905014610e1057336040517f23ee4bac000000000000000000000000000000000000000000000000000000008152600401610e079190612c75565b60405180910390fd5b60086000815480929190610e2390613a85565b91905055506040518060400160405280600854815260200183815250600960003373ffffffffffffffffffffffffffffffffffffffff1673ffffffffffffffffffffffffffffffffffffffff168152602001908152602001600020600082015181600001556020820151816001019081610e9d9190613984565b5090505033600a6000600854815260200190815260200160002060006101000a81548173ffffffffffffffffffffffffffffffffffffffff021916908373ffffffffffffffffffffffffffffffffffffffff1602179055506001600b83604051610f0791906137b4565b908152602001604051809103902060006101000a81548160ff0219169083151502179055507fee305ea110dac8054a0415771cedeb3372a69ef1c3916abb2f5e1b3658d77c0e60085483604051610f5f929190613427565b60405180910390a15050565b803373ffffffffffffffffffffffffffffffffffffffff166002600083815260200190815260200160002060040160009054906101000a900473ffffffffffffffffffffffffffffffffffffffff1673ffffffffffffffffffffffffffffffffffffffff161461101257806040517ff034e0540000000000000000000000000000000000000000000000000000000081526004016110099190612a1d565b60405180910390fd5b6003600081548092919061102590613a85565b91905055506040518060a001604052806003548152602001868152602001858152602001848152602001838152506004600060035481526020019081526020016000206000820151816000015560208201518160010190816110879190613984565b50604082015181600201908161109d9190613984565b5060608201518160030190816110b39190613984565b50608082015181600401559050506002600083815260200190815260200160002060030160035490806001815401808255809150506001900390600052602060002001600090919091909150556006600083815260200190815260200160002060035490806001815401808255809150506001900390600052602060002001600090919091909150556003547fad8078e4cde9c5c4cad797281d98afbfec3bb4ca040ac0b3ad2d72b5677d13e1868686866040516111749493929190613acd565b60405180910390a25050505050565b60046000828152602001908152602001600020600401543373ffffffffffffffffffffffffffffffffffffffff166002600083815260200190815260200160002060040160009054906101000a900473ffffffffffffffffffffffffffffffffffffffff1673ffffffffffffffffffffffffffffffffffffffff161461124057806040517ff034e0540000000000000000000000000000000000000000000000000000000081526004016112379190612a1d565b60405180910390fd5b6004600083815260200190815260200160002060008082016000905560018201600061126c9190612848565b60028201600061127c9190612848565b60038201600061128c9190612848565b600482016000905550505050565b60015481565b6112a86128b7565b600960008373ffffffffffffffffffffffffffffffffffffffff1673ffffffffffffffffffffffffffffffffffffffff1681526020019081526020016000206040518060400160405290816000820154815260200160018201805461130c90613698565b80601f016020809104026020016040519081016040528092919081815260200182805461133890613698565b80156113855780601f1061135a57610100808354040283529160200191611385565b820191906000526020600020905b81548152906001019060200180831161136857829003601f168201915b5050505050815250509050919050565b60606000600560008473ffffffffffffffffffffffffffffffffffffffff1673ffffffffffffffffffffffffffffffffffffffff16815260200190815260200160002080548060200260200160405190810160405280929190818152602001828054801561142257602002820191906000526020600020905b81548152602001906001019080831161140e575b505050505090506000815167ffffffffffffffff81111561144657611445612a67565b5b60405190808252806020026020018201604052801561147f57816020015b61146c6128d1565b8152602001906001900390816114645790505b50905060005b82518110156116d357600260008483815181106114a5576114a4613a56565b5b602002602001015181526020019081526020016000206040518060a0016040529081600082015481526020016001820180546114e090613698565b80601f016020809104026020016040519081016040528092919081815260200182805461150c90613698565b80156115595780601f1061152e57610100808354040283529160200191611559565b820191906000526020600020905b81548152906001019060200180831161153c57829003601f168201915b5050505050815260200160028201805461157290613698565b80601f016020809104026020016040519081016040528092919081815260200182805461159e90613698565b80156115eb5780601f106115c0576101008083540402835291602001916115eb565b820191906000526020600020905b8154815290600101906020018083116115ce57829003601f168201915b505050505081526020016003820180548060200260200160405190810160405280929190818152602001828054801561164357602002820191906000526020600020905b81548152602001906001019080831161162f575b505050505081526020016004820160009054906101000a900473ffffffffffffffffffffffffffffffffffffffff1673ffffffffffffffffffffffffffffffffffffffff1673ffffffffffffffffffffffffffffffffffffffff16815250508282815181106116b5576116b4613a56565b5b602002602001018190525080806116cb90613a85565b915050611485565b508092505050919050565b6116e66126f3565b6116f0600061277a565b565b6116fa6128b7565b600960003373ffffffffffffffffffffffffffffffffffffffff1673ffffffffffffffffffffffffffffffffffffffff1681526020019081526020016000206040518060400160405290816000820154815260200160018201805461175e90613698565b80601f016020809104026020016040519081016040528092919081815260200182805461178a90613698565b80156117d75780601f106117ac576101008083540402835291602001916117d7565b820191906000526020600020905b8154815290600101906020018083116117ba57829003601f168201915b505050505081525050905090565b6000600760009054906101000a900473ffffffffffffffffffffffffffffffffffffffff16905090565b600460205280600052604060002060009150905080600001549080600101805461183890613698565b80601f016020809104026020016040519081016040528092919081815260200182805461186490613698565b80156118b15780601f10611886576101008083540402835291602001916118b1565b820191906000526020600020905b81548152906001019060200180831161189457829003601f168201915b5050505050908060020180546118c690613698565b80601f01602080910402602001604051908101604052809291908181526020018280546118f290613698565b801561193f5780601f106119145761010080835404028352916020019161193f565b820191906000526020600020905b81548152906001019060200180831161192257829003601f168201915b50505050509080600301805461195490613698565b80601f016020809104026020016040519081016040528092919081815260200182805461198090613698565b80156119cd5780601f106119a2576101008083540402835291602001916119cd565b820191906000526020600020905b8154815290600101906020018083116119b057829003601f168201915b5050505050908060040154905085565b823373ffffffffffffffffffffffffffffffffffffffff166002600083815260200190815260200160002060040160009054906101000a900473ffffffffffffffffffffffffffffffffffffffff1673ffffffffffffffffffffffffffffffffffffffff1614611a8457806040517ff034e054000000000000000000000000000000000000000000000000000000008152600401611a7b9190612a1d565b60405180910390fd5b82600260008681526020019081526020016000206001019081611aa79190613984565b5081600260008681526020019081526020016000206002019081611acb9190613984565b50837f258ba6fc11ff8d29dfc369bc96e8baaf90ae86401a366c5767a11c0f1f90b5ce848433604051611b0093929190613b27565b60405180910390a250505050565b6002602052806000526040600020600091509050806000015490806001018054611b3790613698565b80601f0160208091040260200160405190810160405280929190818152602001828054611b6390613698565b8015611bb05780601f10611b8557610100808354040283529160200191611bb0565b820191906000526020600020905b815481529060010190602001808311611b9357829003601f168201915b505050505090806002018054611bc590613698565b80601f0160208091040260200160405190810160405280929190818152602001828054611bf190613698565b8015611c3e5780601f10611c1357610100808354040283529160200191611c3e565b820191906000526020600020905b815481529060010190602001808311611c2157829003601f168201915b5050505050908060040160009054906101000a900473ffffffffffffffffffffffffffffffffffffffff16905084565b803373ffffffffffffffffffffffffffffffffffffffff166002600083815260200190815260200160002060040160009054906101000a900473ffffffffffffffffffffffffffffffffffffffff1673ffffffffffffffffffffffffffffffffffffffff1614611d1557806040517ff034e054000000000000000000000000000000000000000000000000000000008152600401611d0c9190612a1d565b60405180910390fd5b60026000838152602001908152602001600020600080820160009055600182016000611d419190612848565b600282016000611d519190612848565b600382016000611d619190612916565b6004820160006101000a81549073ffffffffffffffffffffffffffffffffffffffff021916905550505050565b60016000815480929190611da190613a85565b91905055506040518060a001604052806001548152602001838152602001828152602001600067ffffffffffffffff811115611de057611ddf612a67565b5b604051908082528060200260200182016040528015611e0e5781602001602082028036833780820191505090505b5081526020013373ffffffffffffffffffffffffffffffffffffffff16815250600260006001548152602001908152602001600020600082015181600001556020820151816001019081611e629190613984565b506040820151816002019081611e789190613984565b506060820151816003019080519060200190611e95929190612937565b5060808201518160040160006101000a81548173ffffffffffffffffffffffffffffffffffffffff021916908373ffffffffffffffffffffffffffffffffffffffff160217905550905050600560003373ffffffffffffffffffffffffffffffffffffffff1673ffffffffffffffffffffffffffffffffffffffff16815260200190815260200160002060015490806001815401808255809150506001900390600052602060002001600090919091909150556001547f258ba6fc11ff8d29dfc369bc96e8baaf90ae86401a366c5767a11c0f1f90b5ce838333604051611f7e93929190613b27565b60405180910390a25050565b6009602052806000526040600020600091509050806000015490806001018054611fb390613698565b80601f0160208091040260200160405190810160405280929190818152602001828054611fdf90613698565b801561202c5780601f106120015761010080835404028352916020019161202c565b820191906000526020600020905b81548152906001019060200180831161200f57829003601f168201915b5050505050905082565b60046000858152602001908152602001600020600401543373ffffffffffffffffffffffffffffffffffffffff166002600083815260200190815260200160002060040160009054906101000a900473ffffffffffffffffffffffffffffffffffffffff1673ffffffffffffffffffffffffffffffffffffffff16146120f357806040517ff034e0540000000000000000000000000000000000000000000000000000000081526004016120ea9190612a1d565b60405180910390fd5b836004600087815260200190815260200160002060010190816121169190613984565b508260046000878152602001908152602001600020600201908161213a9190613984565b508160046000878152602001908152602001600020600301908161215e9190613984565b50847fad8078e4cde9c5c4cad797281d98afbfec3bb4ca040ac0b3ad2d72b5677d13e1858585600460008b8152602001908152602001600020600401546040516121ab9493929190613acd565b60405180910390a25050505050565b6060600060015467ffffffffffffffff8111156121da576121d9612a67565b5b60405190808252806020026020018201604052801561221357816020015b6122006128d1565b8152602001906001900390816121f85790505b50905060005b60015481101561245a576002600060018361223491906129da565b81526020019081526020016000206040518060a00160405290816000820154815260200160018201805461226790613698565b80601f016020809104026020016040519081016040528092919081815260200182805461229390613698565b80156122e05780601f106122b5576101008083540402835291602001916122e0565b820191906000526020600020905b8154815290600101906020018083116122c357829003601f168201915b505050505081526020016002820180546122f990613698565b80601f016020809104026020016040519081016040528092919081815260200182805461232590613698565b80156123725780601f1061234757610100808354040283529160200191612372565b820191906000526020600020905b81548152906001019060200180831161235557829003601f168201915b50505050508152602001600382018054806020026020016040519081016040528092919081815260200182805480156123ca57602002820191906000526020600020905b8154815260200190600101908083116123b6575b505050505081526020016004820160009054906101000a900473ffffffffffffffffffffffffffffffffffffffff1673ffffffffffffffffffffffffffffffffffffffff1673ffffffffffffffffffffffffffffffffffffffff168152505082828151811061243c5761243b613a56565b5b6020026020010181905250808061245290613a85565b915050612219565b508091505090565b600b818051602081018201805184825260208301602085012081835280955050505050506000915054906101000a900460ff1681565b60005481565b60606124a86126f3565b600060085467ffffffffffffffff8111156124c6576124c5612a67565b5b6040519080825280602002602001820160405280156124ff57816020015b6124ec6128b7565b8152602001906001900390816124e45790505b50905060005b6008548110156126655760096000600a600060018561252491906129da565b815260200190815260200160002060009054906101000a900473ffffffffffffffffffffffffffffffffffffffff1673ffffffffffffffffffffffffffffffffffffffff1673ffffffffffffffffffffffffffffffffffffffff168152602001908152602001600020604051806040016040529081600082015481526020016001820180546125b290613698565b80601f01602080910402602001604051908101604052809291908181526020018280546125de90613698565b801561262b5780601f106126005761010080835404028352916020019161262b565b820191906000526020600020905b81548152906001019060200180831161260e57829003601f168201915b50505050508152505082828151811061264757612646613a56565b5b6020026020010181905250808061265d90613a85565b915050612505565b508091505090565b6126756126f3565b600073ffffffffffffffffffffffffffffffffffffffff168173ffffffffffffffffffffffffffffffffffffffff16036126e75760006040517f1e4fbdf70000000000000000000000000000000000000000000000000000000081526004016126de9190612c75565b60405180910390fd5b6126f08161277a565b50565b6126fb612840565b73ffffffffffffffffffffffffffffffffffffffff166127196117e5565b73ffffffffffffffffffffffffffffffffffffffff16146127785761273c612840565b6040517f118cdaa700000000000000000000000000000000000000000000000000000000815260040161276f9190612c75565b60405180910390fd5b565b6000600760009054906101000a900473ffffffffffffffffffffffffffffffffffffffff16905081600760006101000a81548173ffffffffffffffffffffffffffffffffffffffff021916908373ffffffffffffffffffffffffffffffffffffffff1602179055508173ffffffffffffffffffffffffffffffffffffffff168173ffffffffffffffffffffffffffffffffffffffff167f8be0079c531659141344cd1fd0a4f28419497f9722a3daafe3b4186f6b6457e060405160405180910390a35050565b600033905090565b50805461285490613698565b6000825580601f106128665750612885565b601f0160209004906000526020600020908101906128849190612984565b5b50565b6040518060a0016040528060008152602001606081526020016060815260200160608152602001600081525090565b604051806040016040528060008152602001606081525090565b6040518060a0016040528060008152602001606081526020016060815260200160608152602001600073ffffffffffffffffffffffffffffffffffffffff1681525090565b50805460008255906000526020600020908101906129349190612984565b50565b828054828255906000526020600020908101928215612973579160200282015b82811115612972578251825591602001919060010190612957565b5b5090506129809190612984565b5090565b5b8082111561299d576000816000905550600101612985565b5090565b6000819050919050565b7f4e487b7100000000000000000000000000000000000000000000000000000000600052601160045260246000fd5b60006129e5826129a1565b91506129f0836129a1565b9250828201905080821115612a0857612a076129ab565b5b92915050565b612a17816129a1565b82525050565b6000602082019050612a326000830184612a0e565b92915050565b6000604051905090565b600080fd5b600080fd5b600080fd5b600080fd5b6000601f19601f8301169050919050565b7f4e487b7100000000000000000000000000000000000000000000000000000000600052604160045260246000fd5b612a9f82612a56565b810181811067ffffffffffffffff82111715612abe57612abd612a67565b5b80604052505050565b6000612ad1612a38565b9050612add8282612a96565b919050565b600067ffffffffffffffff821115612afd57612afc612a67565b5b612b0682612a56565b9050602081019050919050565b82818337600083830152505050565b6000612b35612b3084612ae2565b612ac7565b905082815260208101848484011115612b5157612b50612a51565b5b612b5c848285612b13565b509392505050565b600082601f830112612b7957612b78612a4c565b5b8135612b89848260208601612b22565b91505092915050565b600060208284031215612ba857612ba7612a42565b5b600082013567ffffffffffffffff811115612bc657612bc5612a47565b5b612bd284828501612b64565b91505092915050565b612be4816129a1565b8114612bef57600080fd5b50565b600081359050612c0181612bdb565b92915050565b600060208284031215612c1d57612c1c612a42565b5b6000612c2b84828501612bf2565b91505092915050565b600073ffffffffffffffffffffffffffffffffffffffff82169050919050565b6000612c5f82612c34565b9050919050565b612c6f81612c54565b82525050565b6000602082019050612c8a6000830184612c66565b92915050565b600081519050919050565b600082825260208201905092915050565b6000819050602082019050919050565b612cc5816129a1565b82525050565b600081519050919050565b600082825260208201905092915050565b60005b83811015612d05578082015181840152602081019050612cea565b60008484015250505050565b6000612d1c82612ccb565b612d268185612cd6565b9350612d36818560208601612ce7565b612d3f81612a56565b840191505092915050565b600060a083016000830151612d626000860182612cbc565b5060208301518482036020860152612d7a8282612d11565b91505060408301518482036040860152612d948282612d11565b91505060608301518482036060860152612dae8282612d11565b9150506080830151612dc36080860182612cbc565b508091505092915050565b6000612dda8383612d4a565b905092915050565b6000602082019050919050565b6000612dfa82612c90565b612e048185612c9b565b935083602082028501612e1685612cac565b8060005b85811015612e525784840389528151612e338582612dce565b9450612e3e83612de2565b925060208a01995050600181019050612e1a565b50829750879550505050505092915050565b60006020820190508181036000830152612e7e8184612def565b905092915050565b60008060008060808587031215612ea057612e9f612a42565b5b600085013567ffffffffffffffff811115612ebe57612ebd612a47565b5b612eca87828801612b64565b945050602085013567ffffffffffffffff811115612eeb57612eea612a47565b5b612ef787828801612b64565b935050604085013567ffffffffffffffff811115612f1857612f17612a47565b5b612f2487828801612b64565b9250506060612f3587828801612bf2565b91505092959194509250565b612f4a81612c54565b8114612f5557600080fd5b50565b600081359050612f6781612f41565b92915050565b600060208284031215612f8357612f82612a42565b5b6000612f9184828501612f58565b91505092915050565b6000604083016000830151612fb26000860182612cbc565b5060208301518482036020860152612fca8282612d11565b9150508091505092915050565b60006020820190508181036000830152612ff18184612f9a565b905092915050565b600081519050919050565b600082825260208201905092915050565b6000819050602082019050919050565b600081519050919050565b600082825260208201905092915050565b6000819050602082019050919050565b600061305d8383612cbc565b60208301905092915050565b6000602082019050919050565b600061308182613025565b61308b8185613030565b935061309683613041565b8060005b838110156130c75781516130ae8882613051565b97506130b983613069565b92505060018101905061309a565b5085935050505092915050565b6130dd81612c54565b82525050565b600060a0830160008301516130fb6000860182612cbc565b50602083015184820360208601526131138282612d11565b9150506040830151848203604086015261312d8282612d11565b915050606083015184820360608601526131478282613076565b915050608083015161315c60808601826130d4565b508091505092915050565b600061317383836130e3565b905092915050565b6000602082019050919050565b600061319382612ff9565b61319d8185613004565b9350836020820285016131af85613015565b8060005b858110156131eb57848403895281516131cc8582613167565b94506131d78361317b565b925060208a019950506001810190506131b3565b50829750879550505050505092915050565b600060208201905081810360008301526132178184613188565b905092915050565b600082825260208201905092915050565b600061323b82612ccb565b613245818561321f565b9350613255818560208601612ce7565b61325e81612a56565b840191505092915050565b600060a08201905061327e6000830188612a0e565b81810360208301526132908187613230565b905081810360408301526132a48186613230565b905081810360608301526132b88185613230565b90506132c76080830184612a0e565b9695505050505050565b6000806000606084860312156132ea576132e9612a42565b5b60006132f886828701612bf2565b935050602084013567ffffffffffffffff81111561331957613318612a47565b5b61332586828701612b64565b925050604084013567ffffffffffffffff81111561334657613345612a47565b5b61335286828701612b64565b9150509250925092565b60006080820190506133716000830187612a0e565b81810360208301526133838186613230565b905081810360408301526133978185613230565b90506133a66060830184612c66565b95945050505050565b600080604083850312156133c6576133c5612a42565b5b600083013567ffffffffffffffff8111156133e4576133e3612a47565b5b6133f085828601612b64565b925050602083013567ffffffffffffffff81111561341157613410612a47565b5b61341d85828601612b64565b9150509250929050565b600060408201905061343c6000830185612a0e565b818103602083015261344e8184613230565b90509392505050565b6000806000806080858703121561347157613470612a42565b5b600061347f87828801612bf2565b945050602085013567ffffffffffffffff8111156134a05761349f612a47565b5b6134ac87828801612b64565b935050604085013567ffffffffffffffff8111156134cd576134cc612a47565b5b6134d987828801612b64565b925050606085013567ffffffffffffffff8111156134fa576134f9612a47565b5b61350687828801612b64565b91505092959194509250565b60008115159050919050565b61352781613512565b82525050565b6000602082019050613542600083018461351e565b92915050565b600081519050919050565b600082825260208201905092915050565b6000819050602082019050919050565b600060408301600083015161358c6000860182612cbc565b50602083015184820360208601526135a48282612d11565b9150508091505092915050565b60006135bd8383613574565b905092915050565b6000602082019050919050565b60006135dd82613548565b6135e78185613553565b9350836020820285016135f985613564565b8060005b85811015613635578484038952815161361685826135b1565b9450613621836135c5565b925060208a019950506001810190506135fd565b50829750879550505050505092915050565b6000602082019050818103600083015261366181846135d2565b905092915050565b7f4e487b7100000000000000000000000000000000000000000000000000000000600052602260045260246000fd5b600060028204905060018216806136b057607f821691505b6020821081036136c3576136c2613669565b5b50919050565b600081905092915050565b60008190508160005260206000209050919050565b600081546136f681613698565b61370081866136c9565b9450600182166000811461371b576001811461373057613763565b60ff1983168652811515820286019350613763565b613739856136d4565b60005b8381101561375b5781548189015260018201915060208101905061373c565b838801955050505b50505092915050565b600061377882846136e9565b915081905092915050565b600061378e82612ccb565b61379881856136c9565b93506137a8818560208601612ce7565b80840191505092915050565b60006137c08284613783565b915081905092915050565b600060208201905081810360008301526137e58184613230565b905092915050565b60006020601f8301049050919050565b600082821b905092915050565b60006008830261383a7fffffffffffffffffffffffffffffffffffffffffffffffffffffffffffffffff826137fd565b61384486836137fd565b95508019841693508086168417925050509392505050565b6000819050919050565b600061388161387c613877846129a1565b61385c565b6129a1565b9050919050565b6000819050919050565b61389b83613866565b6138af6138a782613888565b84845461380a565b825550505050565b600090565b6138c46138b7565b6138cf818484613892565b505050565b5b818110156138f3576138e86000826138bc565b6001810190506138d5565b5050565b601f82111561393857613909816136d4565b613912846137ed565b81016020851015613921578190505b61393561392d856137ed565b8301826138d4565b50505b505050565b600082821c905092915050565b600061395b6000198460080261393d565b1980831691505092915050565b6000613974838361394a565b9150826002028217905092915050565b61398d82612ccb565b67ffffffffffffffff8111156139a6576139a5612a67565b5b6139b08254613698565b6139bb8282856138f7565b600060209050601f8311600181146139ee57600084156139dc578287015190505b6139e68582613968565b865550613a4e565b601f1984166139fc866136d4565b60005b82811015613a24578489015182556001820191506020850194506020810190506139ff565b86831015613a415784890151613a3d601f89168261394a565b8355505b6001600288020188555050505b505050505050565b7f4e487b7100000000000000000000000000000000000000000000000000000000600052603260045260246000fd5b6000613a90826129a1565b91507fffffffffffffffffffffffffffffffffffffffffffffffffffffffffffffffff8203613ac257613ac16129ab565b5b600182019050919050565b60006080820190508181036000830152613ae78187613230565b90508181036020830152613afb8186613230565b90508181036040830152613b0f8185613230565b9050613b1e6060830184612a0e565b95945050505050565b60006060820190508181036000830152613b418186613230565b90508181036020830152613b558185613230565b9050613b646040830184612c66565b94935050505056fea2646970667358221220e661ba72c6116e33a75200458c68ee9b87d592756e28b7088b158200d76650ac64736f6c63430008140033",
  "linkReferences": {},
  "deployedLinkReferences": {}
}