{
  "_format": "hh-sol-artifact-1",
  "contractName": "Main",
  "sourceName": "contracts/Main.sol",
  "abi": [
    {
      "inputs": [],
      "stateMutability": "payable",
      "type": "constructor"
    },
    {
      "inputs": [
        {
          "internalType": "string",
          "name": "name",
          "type": "string"
        }
      ],
      "name": "NameAlreadyExists",
      "type": "error"
    },
    {
      "inputs": [
        {
          "internalType": "uint256",
          "name": "courseId",
          "type": "uint256"
        }
      ],
      "name": "NotCourseAuthor",
      "type": "error"
    },
    {
      "inputs": [
        {
          "internalType": "address",
          "name": "owner",
          "type": "address"
        }
      ],
      "name": "OwnableInvalidOwner",
      "type": "error"
    },
    {
      "inputs": [
        {
          "internalType": "address",
          "name": "account",
          "type": "address"
        }
      ],
      "name": "OwnableUnauthorizedAccount",
      "type": "error"
    },
    {
      "inputs": [
        {
          "internalType": "address",
          "name": "user",
          "type": "address"
        }
      ],
      "name": "UserAlreadyExists",
      "type": "error"
    },
    {
      "anonymous": false,
      "inputs": [
        {
          "indexed": true,
          "internalType": "uint256",
          "name": "cardId",
          "type": "uint256"
        },
        {
          "indexed": false,
          "internalType": "string",
          "name": "word",
          "type": "string"
        },
        {
          "indexed": false,
          "internalType": "string",
          "name": "meaning",
          "type": "string"
        },
        {
          "indexed": false,
          "internalType": "string",
          "name": "example",
          "type": "string"
        },
        {
          "indexed": false,
          "internalType": "uint256",
          "name": "courseId",
          "type": "uint256"
        }
      ],
      "name": "CardChange",
      "type": "event"
    },
    {
      "anonymous": false,
      "inputs": [
        {
          "indexed": true,
          "internalType": "uint256",
          "name": "courseId",
          "type": "uint256"
        },
        {
          "indexed": false,
          "internalType": "string",
          "name": "name",
          "type": "string"
        },
        {
          "indexed": false,
          "internalType": "string",
          "name": "description",
          "type": "string"
        },
        {
          "indexed": false,
          "internalType": "address",
          "name": "author",
          "type": "address"
        }
      ],
      "name": "CourseChange",
      "type": "event"
    },
    {
      "anonymous": false,
      "inputs": [
        {
          "indexed": true,
          "internalType": "address",
          "name": "previousOwner",
          "type": "address"
        },
        {
          "indexed": true,
          "internalType": "address",
          "name": "newOwner",
          "type": "address"
        }
      ],
      "name": "OwnershipTransferred",
      "type": "event"
    },
    {
      "anonymous": false,
      "inputs": [
        {
          "indexed": false,
          "internalType": "uint256",
          "name": "id",
          "type": "uint256"
        },
        {
          "indexed": false,
          "internalType": "string",
          "name": "name",
          "type": "string"
        }
      ],
      "name": "UserChanged",
      "type": "event"
    },
    {
      "anonymous": false,
      "inputs": [
        {
          "indexed": false,
          "internalType": "uint256",
          "name": "id",
          "type": "uint256"
        },
        {
          "indexed": false,
          "internalType": "string",
          "name": "name",
          "type": "string"
        }
      ],
      "name": "UserCreated",
      "type": "event"
    },
    {
      "inputs": [
        {
          "internalType": "uint256",
          "name": "cardId",
          "type": "uint256"
        }
      ],
      "name": "addUserCard",
      "outputs": [],
      "stateMutability": "nonpayable",
      "type": "function"
    },
    {
      "inputs": [],
      "name": "cardCount",
      "outputs": [
        {
          "internalType": "uint256",
          "name": "",
          "type": "uint256"
        }
      ],
      "stateMutability": "view",
      "type": "function"
    },
    {
      "inputs": [],
      "name": "courseCount",
      "outputs": [
        {
          "internalType": "uint256",
          "name": "",
          "type": "uint256"
        }
      ],
      "stateMutability": "view",
      "type": "function"
    },
    {
      "inputs": [
        {
          "internalType": "string",
          "name": "word",
          "type": "string"
        },
        {
          "internalType": "string",
          "name": "meaning",
          "type": "string"
        },
        {
          "internalType": "string",
          "name": "example",
          "type": "string"
        },
        {
          "internalType": "uint256",
          "name": "courseId",
          "type": "uint256"
        }
      ],
      "name": "createCard",
      "outputs": [],
      "stateMutability": "nonpayable",
      "type": "function"
    },
    {
      "inputs": [
        {
          "internalType": "string",
          "name": "name",
          "type": "string"
        },
        {
          "internalType": "string",
          "name": "description",
          "type": "string"
        }
      ],
      "name": "createCourse",
      "outputs": [],
      "stateMutability": "nonpayable",
      "type": "function"
    },
    {
      "inputs": [
        {
          "internalType": "string",
          "name": "name",
          "type": "string"
        }
      ],
      "name": "createUser",
      "outputs": [],
      "stateMutability": "nonpayable",
      "type": "function"
    },
    {
      "inputs": [
        {
          "internalType": "uint256",
          "name": "cardId",
          "type": "uint256"
        }
      ],
      "name": "deleteCard",
      "outputs": [],
      "stateMutability": "nonpayable",
      "type": "function"
    },
    {
      "inputs": [
        {
          "internalType": "uint256",
          "name": "courseId",
          "type": "uint256"
        }
      ],
      "name": "deleteCourse",
      "outputs": [],
      "stateMutability": "nonpayable",
      "type": "function"
    },
    {
      "inputs": [],
      "name": "deleteUser",
      "outputs": [],
      "stateMutability": "nonpayable",
      "type": "function"
    },
    {
      "inputs": [],
      "name": "getAllUsers",
      "outputs": [
        {
          "components": [
            {
              "internalType": "uint256",
              "name": "id",
              "type": "uint256"
            },
            {
              "internalType": "string",
              "name": "name",
              "type": "string"
            }
          ],
          "internalType": "struct Main.User[]",
          "name": "",
          "type": "tuple[]"
        }
      ],
      "stateMutability": "view",
      "type": "function"
    },
    {
      "inputs": [
        {
          "internalType": "uint256",
          "name": "courseId",
          "type": "uint256"
        }
      ],
      "name": "getCardsByCourse",
      "outputs": [
        {
          "components": [
            {
              "internalType": "uint256",
              "name": "id",
              "type": "uint256"
            },
            {
              "internalType": "string",
              "name": "word",
              "type": "string"
            },
            {
              "internalType": "string",
              "name": "meaning",
              "type": "string"
            },
            {
              "internalType": "string",
              "name": "example",
              "type": "string"
            },
            {
              "internalType": "uint256",
              "name": "courseId",
              "type": "uint256"
            }
          ],
          "internalType": "struct CoursesStorage.Card[]",
          "name": "",
          "type": "tuple[]"
        }
      ],
      "stateMutability": "view",
      "type": "function"
    },
    {
      "inputs": [],
      "name": "getCourses",
      "outputs": [
        {
          "components": [
            {
              "internalType": "uint256",
              "name": "id",
              "type": "uint256"
            },
            {
              "internalType": "string",
              "name": "name",
              "type": "string"
            },
            {
              "internalType": "string",
              "name": "description",
              "type": "string"
            },
            {
              "internalType": "address",
              "name": "author",
              "type": "address"
            }
          ],
          "internalType": "struct CoursesStorage.Course[]",
          "name": "",
          "type": "tuple[]"
        }
      ],
      "stateMutability": "view",
      "type": "function"
    },
    {
      "inputs": [
        {
          "internalType": "address",
          "name": "author",
          "type": "address"
        }
      ],
      "name": "getCoursesByAuthor",
      "outputs": [
        {
          "components": [
            {
              "internalType": "uint256",
              "name": "id",
              "type": "uint256"
            },
            {
              "internalType": "string",
              "name": "name",
              "type": "string"
            },
            {
              "internalType": "string",
              "name": "description",
              "type": "string"
            },
            {
              "internalType": "address",
              "name": "author",
              "type": "address"
            }
          ],
          "internalType": "struct CoursesStorage.Course[]",
          "name": "",
          "type": "tuple[]"
        }
      ],
      "stateMutability": "view",
      "type": "function"
    },
    {
      "inputs": [],
      "name": "getUser",
      "outputs": [
        {
          "components": [
            {
              "internalType": "uint256",
              "name": "id",
              "type": "uint256"
            },
            {
              "internalType": "string",
              "name": "name",
              "type": "string"
            }
          ],
          "internalType": "struct Main.User",
          "name": "",
          "type": "tuple"
        }
      ],
      "stateMutability": "view",
      "type": "function"
    },
    {
      "inputs": [
        {
          "internalType": "address",
          "name": "userAddress",
          "type": "address"
        }
      ],
      "name": "getUserByAddress",
      "outputs": [
        {
          "components": [
            {
              "internalType": "uint256",
              "name": "id",
              "type": "uint256"
            },
            {
              "internalType": "string",
              "name": "name",
              "type": "string"
            }
          ],
          "internalType": "struct Main.User",
          "name": "",
          "type": "tuple"
        }
      ],
      "stateMutability": "view",
      "type": "function"
    },
    {
      "inputs": [],
      "name": "getUserCards",
      "outputs": [
        {
          "components": [
            {
              "internalType": "uint256",
              "name": "id",
              "type": "uint256"
            },
            {
              "internalType": "string",
              "name": "word",
              "type": "string"
            },
            {
              "internalType": "string",
              "name": "meaning",
              "type": "string"
            },
            {
              "internalType": "string",
              "name": "example",
              "type": "string"
            },
            {
              "internalType": "uint256",
              "name": "courseId",
              "type": "uint256"
            }
          ],
          "internalType": "struct CoursesStorage.Card[]",
          "name": "",
          "type": "tuple[]"
        }
      ],
      "stateMutability": "view",
      "type": "function"
    },
    {
      "inputs": [
        {
          "internalType": "string",
          "name": "",
          "type": "string"
        }
      ],
      "name": "nameExists",
      "outputs": [
        {
          "internalType": "bool",
          "name": "",
          "type": "bool"
        }
      ],
      "stateMutability": "view",
      "type": "function"
    },
    {
      "inputs": [],
      "name": "owner",
      "outputs": [
        {
          "internalType": "address",
          "name": "",
          "type": "address"
        }
      ],
      "stateMutability": "view",
      "type": "function"
    },
    {
      "inputs": [],
      "name": "receivedEther",
      "outputs": [
        {
          "internalType": "uint256",
          "name": "",
          "type": "uint256"
        }
      ],
      "stateMutability": "view",
      "type": "function"
    },
    {
      "inputs": [
        {
          "internalType": "uint256",
          "name": "cardId",
          "type": "uint256"
        }
      ],
      "name": "removeUserCard",
      "outputs": [],
      "stateMutability": "nonpayable",
      "type": "function"
    },
    {
      "inputs": [],
      "name": "renounceOwnership",
      "outputs": [],
      "stateMutability": "nonpayable",
      "type": "function"
    },
    {
      "inputs": [
        {
          "internalType": "address",
          "name": "newOwner",
          "type": "address"
        }
      ],
      "name": "transferOwnership",
      "outputs": [],
      "stateMutability": "nonpayable",
      "type": "function"
    },
    {
      "inputs": [
        {
          "internalType": "uint256",
          "name": "cardId",
          "type": "uint256"
        },
        {
          "internalType": "string",
          "name": "word",
          "type": "string"
        },
        {
          "internalType": "string",
          "name": "meaning",
          "type": "string"
        },
        {
          "internalType": "string",
          "name": "example",
          "type": "string"
        }
      ],
      "name": "updateCard",
      "outputs": [],
      "stateMutability": "nonpayable",
      "type": "function"
    },
    {
      "inputs": [
        {
          "internalType": "uint256",
          "name": "courseId",
          "type": "uint256"
        },
        {
          "internalType": "string",
          "name": "name",
          "type": "string"
        },
        {
          "internalType": "string",
          "name": "description",
          "type": "string"
        }
      ],
      "name": "updateCourse",
      "outputs": [],
      "stateMutability": "nonpayable",
      "type": "function"
    },
    {
      "inputs": [
        {
          "internalType": "string",
          "name": "name",
          "type": "string"
        }
      ],
      "name": "updateUser",
      "outputs": [],
      "stateMutability": "nonpayable",
      "type": "function"
    },
    {
      "inputs": [],
      "name": "userCount",
      "outputs": [
        {
          "internalType": "uint256",
          "name": "",
          "type": "uint256"
        }
      ],
      "stateMutability": "view",
      "type": "function"
    },
    {
      "inputs": [
        {
          "internalType": "address",
          "name": "",
          "type": "address"
        }
      ],
      "name": "users",
      "outputs": [
        {
          "internalType": "uint256",
          "name": "id",
          "type": "uint256"
        },
        {
          "internalType": "string",
          "name": "name",
          "type": "string"
        }
      ],
      "stateMutability": "view",
      "type": "function"
    },
    {
      "stateMutability": "payable",
      "type": "receive"
    }
  ],
  "bytecode": "0x6080604052600060015560006005556000600d5533600073ffffffffffffffffffffffffffffffffffffffff168173ffffffffffffffffffffffffffffffffffffffff1603620000895760006040517f1e4fbdf7000000000000000000000000000000000000000000000000000000008152600401620000809190620004b9565b60405180910390fd5b6200009a81620000e760201b60201c565b50620000e16040518060400160405280600581526020017f41646d696e000000000000000000000000000000000000000000000000000000815250620001ad60201b60201c565b620009c1565b6000600c60009054906101000a900473ffffffffffffffffffffffffffffffffffffffff16905081600c60006101000a81548173ffffffffffffffffffffffffffffffffffffffff021916908373ffffffffffffffffffffffffffffffffffffffff1602179055508173ffffffffffffffffffffffffffffffffffffffff168173ffffffffffffffffffffffffffffffffffffffff167f8be0079c531659141344cd1fd0a4f28419497f9722a3daafe3b4186f6b6457e060405160405180910390a35050565b80601181604051620001c091906200054f565b908152602001604051809103902060009054906101000a900460ff16156200022157806040517f4a31fcb8000000000000000000000000000000000000000000000000000000008152600401620002189190620005cb565b60405180910390fd5b6000600e60003373ffffffffffffffffffffffffffffffffffffffff1673ffffffffffffffffffffffffffffffffffffffff168152602001908152602001600020600101805462000272906200061e565b905014620002b957336040517f23ee4bac000000000000000000000000000000000000000000000000000000008152600401620002b09190620004b9565b60405180910390fd5b600d6000815480929190620002ce906200068c565b91905055506040518060400160405280600d54815260200183815250600e60003373ffffffffffffffffffffffffffffffffffffffff1673ffffffffffffffffffffffffffffffffffffffff1681526020019081526020016000206000820151816000015560208201518160010190816200034a9190620008da565b5090505062000361600f336200039f60201b60201c565b5060016011836040516200037691906200054f565b908152602001604051809103902060006101000a81548160ff0219169083151502179055505050565b6000620003cf836000018373ffffffffffffffffffffffffffffffffffffffff1660001b620003d760201b60201c565b905092915050565b6000620003eb83836200045160201b60201c565b620004465782600001829080600181540180825580915050600190039060005260206000200160009091909190915055826000018054905083600101600084815260200190815260200160002081905550600190506200044b565b600090505b92915050565b600080836001016000848152602001908152602001600020541415905092915050565b600073ffffffffffffffffffffffffffffffffffffffff82169050919050565b6000620004a18262000474565b9050919050565b620004b38162000494565b82525050565b6000602082019050620004d06000830184620004a8565b92915050565b600081519050919050565b600081905092915050565b60005b838110156200050c578082015181840152602081019050620004ef565b60008484015250505050565b60006200052582620004d6565b620005318185620004e1565b935062000543818560208601620004ec565b80840191505092915050565b60006200055d828462000518565b915081905092915050565b600082825260208201905092915050565b6000601f19601f8301169050919050565b60006200059782620004d6565b620005a3818562000568565b9350620005b5818560208601620004ec565b620005c08162000579565b840191505092915050565b60006020820190508181036000830152620005e781846200058a565b905092915050565b7f4e487b7100000000000000000000000000000000000000000000000000000000600052602260045260246000fd5b600060028204905060018216806200063757607f821691505b6020821081036200064d576200064c620005ef565b5b50919050565b7f4e487b7100000000000000000000000000000000000000000000000000000000600052601160045260246000fd5b6000819050919050565b6000620006998262000682565b91507fffffffffffffffffffffffffffffffffffffffffffffffffffffffffffffffff8203620006ce57620006cd62000653565b5b600182019050919050565b7f4e487b7100000000000000000000000000000000000000000000000000000000600052604160045260246000fd5b60008190508160005260206000209050919050565b60006020601f8301049050919050565b600082821b905092915050565b6000600883026200076c7fffffffffffffffffffffffffffffffffffffffffffffffffffffffffffffffff826200072d565b6200077886836200072d565b95508019841693508086168417925050509392505050565b6000819050919050565b6000620007bb620007b5620007af8462000682565b62000790565b62000682565b9050919050565b6000819050919050565b620007d7836200079a565b620007ef620007e682620007c2565b8484546200073a565b825550505050565b600090565b62000806620007f7565b62000813818484620007cc565b505050565b5b818110156200083b576200082f600082620007fc565b60018101905062000819565b5050565b601f8211156200088a57620008548162000708565b6200085f846200071d565b810160208510156200086f578190505b620008876200087e856200071d565b83018262000818565b50505b505050565b600082821c905092915050565b6000620008af600019846008026200088f565b1980831691505092915050565b6000620008ca83836200089c565b9150826002028217905092915050565b620008e582620004d6565b67ffffffffffffffff811115620009015762000900620006d9565b5b6200090d82546200061e565b6200091a8282856200083f565b600060209050601f8311600181146200095257600084156200093d578287015190505b620009498582620008bc565b865550620009b9565b601f198416620009628662000708565b60005b828110156200098c5784890151825560018201915060208501945060208101905062000965565b86831015620009ac5784890151620009a8601f8916826200089c565b8355505b6001600288020188555050505b505050505050565b613b4080620009d16000396000f3fe6080604052600436106101a05760003560e01c8063715018a6116100ec578063b51183b01161008a578063cd53e45511610064578063cd53e455146105c1578063e2842d79146105ec578063e6676ad114610617578063f2fde38b14610640576101be565b8063b51183b014610530578063cc12647914610559578063cc637afe14610584576101be565b806394f9d84c116100c657806394f9d84c146104775780639dad8d22146104a0578063a26a7953146104c9578063a87430ba146104f2576101be565b8063715018a61461040a578063832880e7146104215780638da5cb5b1461044c576101be565b8063507ffba51161015957806364b487881161013357806364b487881461033c578063660551591461036557806369c212f61461039057806370e24a2f146103cd576101be565b8063507ffba5146102c157806357744a61146102ea5780635e1acf6514610313576101be565b8063026ff05e146101c357806307973ccf146101da5780630b4f12f6146102055780631b6cde101461022e5780632194f314146102595780635069ca2e14610284576101be565b366101be57346000808282546101b69190612a99565b925050819055005b600080fd5b3480156101cf57600080fd5b506101d8610669565b005b3480156101e657600080fd5b506101ef610749565b6040516101fc9190612adc565b60405180910390f35b34801561021157600080fd5b5061022c60048036038101906102279190612c51565b61074f565b005b34801561023a57600080fd5b5061024361093c565b6040516102509190612adc565b60405180910390f35b34801561026557600080fd5b5061026e610942565b60405161027b9190612e6e565b60405180910390f35b34801561029057600080fd5b506102ab60048036038101906102a69190612ebc565b610c9b565b6040516102b89190612e6e565b60405180910390f35b3480156102cd57600080fd5b506102e860048036038101906102e39190612c51565b610f72565b005b3480156102f657600080fd5b50610311600480360381019061030c9190612ee9565b61114c565b005b34801561031f57600080fd5b5061033a60048036038101906103359190612ebc565b611316565b005b34801561034857600080fd5b50610363600480360381019061035e9190612ebc565b61146c565b005b34801561037157600080fd5b5061037a6114b8565b6040516103879190612adc565b60405180910390f35b34801561039c57600080fd5b506103b760048036038101906103b29190613002565b6114be565b6040516103c4919061306c565b60405180910390f35b3480156103d957600080fd5b506103f460048036038101906103ef9190613002565b6115b3565b60405161040191906131c9565b60405180910390f35b34801561041657600080fd5b5061041f6118c8565b005b34801561042d57600080fd5b506104366118dc565b604051610443919061306c565b60405180910390f35b34801561045857600080fd5b506104616119cf565b60405161046e91906131fa565b60405180910390f35b34801561048357600080fd5b5061049e60048036038101906104999190613215565b6119f9565b005b3480156104ac57600080fd5b506104c760048036038101906104c29190612ebc565b611b2a565b005b3480156104d557600080fd5b506104f060048036038101906104eb91906132a0565b611c8f565b005b3480156104fe57600080fd5b5061051960048036038101906105149190613002565b611e10565b604051610527929190613362565b60405180910390f35b34801561053c57600080fd5b5061055760048036038101906105529190613392565b611ebc565b005b34801561056557600080fd5b5061056e612040565b60405161057b91906131c9565b60405180910390f35b34801561059057600080fd5b506105ab60048036038101906105a69190612c51565b61229c565b6040516105b89190613468565b60405180910390f35b3480156105cd57600080fd5b506105d66122d2565b6040516105e39190612adc565b60405180910390f35b3480156105f857600080fd5b506106016122d8565b60405161060e9190613582565b60405180910390f35b34801561062357600080fd5b5061063e60048036038101906106399190612ebc565b612480565b005b34801561064c57600080fd5b5061066760048036038101906106629190613002565b6124cc565b005b60006011600e60003373ffffffffffffffffffffffffffffffffffffffff1673ffffffffffffffffffffffffffffffffffffffff1681526020019081526020016000206001016040516106bc91906136a7565b908152602001604051809103902060006101000a81548160ff0219169083151502179055506106ec600f33612552565b50600e60003373ffffffffffffffffffffffffffffffffffffffff1673ffffffffffffffffffffffffffffffffffffffff168152602001908152602001600020600080820160009055600182016000610745919061297c565b5050565b600d5481565b8060118160405161076091906136ef565b908152602001604051809103902060009054906101000a900460ff16156107be57806040517f4a31fcb80000000000000000000000000000000000000000000000000000000081526004016107b59190613706565b60405180910390fd5b60016011836040516107d091906136ef565b908152602001604051809103902060006101000a81548160ff02191690831515021790555060006011600e60003373ffffffffffffffffffffffffffffffffffffffff1673ffffffffffffffffffffffffffffffffffffffff16815260200190815260200160002060010160405161084891906136a7565b908152602001604051809103902060006101000a81548160ff02191690831515021790555081600e60003373ffffffffffffffffffffffffffffffffffffffff1673ffffffffffffffffffffffffffffffffffffffff16815260200190815260200160002060010190816108bc91906138bf565b507f9d2c295aab95e31a7ed611ea0592f8d1ade2f72e3118f8de28b41d31cf3d2a76600e60003373ffffffffffffffffffffffffffffffffffffffff1673ffffffffffffffffffffffffffffffffffffffff1681526020019081526020016000206000015483604051610930929190613362565b60405180910390a15050565b60055481565b6060600061098d600b60003373ffffffffffffffffffffffffffffffffffffffff1673ffffffffffffffffffffffffffffffffffffffff168152602001908152602001600020612582565b67ffffffffffffffff8111156109a6576109a5612b26565b5b6040519080825280602002602001820160405280156109df57816020015b6109cc6129bc565b8152602001906001900390816109c45790505b50905060005b610a2c600b60003373ffffffffffffffffffffffffffffffffffffffff1673ffffffffffffffffffffffffffffffffffffffff168152602001908152602001600020612582565b811015610c935760066000610a7f600b60003373ffffffffffffffffffffffffffffffffffffffff1673ffffffffffffffffffffffffffffffffffffffff16815260200190815260200160002084612597565b81526020019081526020016000206040518060a001604052908160008201548152602001600182018054610ab2906135d3565b80601f0160208091040260200160405190810160405280929190818152602001828054610ade906135d3565b8015610b2b5780601f10610b0057610100808354040283529160200191610b2b565b820191906000526020600020905b815481529060010190602001808311610b0e57829003601f168201915b50505050508152602001600282018054610b44906135d3565b80601f0160208091040260200160405190810160405280929190818152602001828054610b70906135d3565b8015610bbd5780601f10610b9257610100808354040283529160200191610bbd565b820191906000526020600020905b815481529060010190602001808311610ba057829003601f168201915b50505050508152602001600382018054610bd6906135d3565b80601f0160208091040260200160405190810160405280929190818152602001828054610c02906135d3565b8015610c4f5780601f10610c2457610100808354040283529160200191610c4f565b820191906000526020600020905b815481529060010190602001808311610c3257829003601f168201915b50505050508152602001600482015481525050828281518110610c7557610c74613991565b5b60200260200101819052508080610c8b906139c0565b9150506109e5565b508091505090565b60606000610cba600a6000858152602001908152602001600020612582565b67ffffffffffffffff811115610cd357610cd2612b26565b5b604051908082528060200260200182016040528015610d0c57816020015b610cf96129bc565b815260200190600190039081610cf15790505b50905060005b610d2d600a6000868152602001908152602001600020612582565b811015610f685760066000610d54600a600088815260200190815260200160002084612597565b81526020019081526020016000206040518060a001604052908160008201548152602001600182018054610d87906135d3565b80601f0160208091040260200160405190810160405280929190818152602001828054610db3906135d3565b8015610e005780601f10610dd557610100808354040283529160200191610e00565b820191906000526020600020905b815481529060010190602001808311610de357829003601f168201915b50505050508152602001600282018054610e19906135d3565b80601f0160208091040260200160405190810160405280929190818152602001828054610e45906135d3565b8015610e925780601f10610e6757610100808354040283529160200191610e92565b820191906000526020600020905b815481529060010190602001808311610e7557829003601f168201915b50505050508152602001600382018054610eab906135d3565b80601f0160208091040260200160405190810160405280929190818152602001828054610ed7906135d3565b8015610f245780601f10610ef957610100808354040283529160200191610f24565b820191906000526020600020905b815481529060010190602001808311610f0757829003601f168201915b50505050508152602001600482015481525050828281518110610f4a57610f49613991565b5b60200260200101819052508080610f60906139c0565b915050610d12565b5080915050919050565b80601181604051610f8391906136ef565b908152602001604051809103902060009054906101000a900460ff1615610fe157806040517f4a31fcb8000000000000000000000000000000000000000000000000000000008152600401610fd89190613706565b60405180910390fd5b6000600e60003373ffffffffffffffffffffffffffffffffffffffff1673ffffffffffffffffffffffffffffffffffffffff1681526020019081526020016000206001018054611030906135d3565b90501461107457336040517f23ee4bac00000000000000000000000000000000000000000000000000000000815260040161106b91906131fa565b60405180910390fd5b600d6000815480929190611087906139c0565b91905055506040518060400160405280600d54815260200183815250600e60003373ffffffffffffffffffffffffffffffffffffffff1673ffffffffffffffffffffffffffffffffffffffff16815260200190815260200160002060008201518160000155602082015181600101908161110191906138bf565b50905050611110600f336125b1565b50600160118360405161112391906136ef565b908152602001604051809103902060006101000a81548160ff0219169083151502179055505050565b803373ffffffffffffffffffffffffffffffffffffffff166002600083815260200190815260200160002060030160009054906101000a900473ffffffffffffffffffffffffffffffffffffffff1673ffffffffffffffffffffffffffffffffffffffff16146111f357806040517ff034e0540000000000000000000000000000000000000000000000000000000081526004016111ea9190612adc565b60405180910390fd5b60056000815480929190611206906139c0565b91905055506040518060a0016040528060055481526020018681526020018581526020018481526020018381525060066000600554815260200190815260200160002060008201518160000155602082015181600101908161126891906138bf565b50604082015181600201908161127e91906138bf565b50606082015181600301908161129491906138bf565b50608082015181600401559050506112c0600a60008481526020019081526020016000206005546125e1565b506112ce60076005546125e1565b506005547fad8078e4cde9c5c4cad797281d98afbfec3bb4ca040ac0b3ad2d72b5677d13e1868686866040516113079493929190613a08565b60405180910390a25050505050565b60066000828152602001908152602001600020600401543373ffffffffffffffffffffffffffffffffffffffff166002600083815260200190815260200160002060030160009054906101000a900473ffffffffffffffffffffffffffffffffffffffff1673ffffffffffffffffffffffffffffffffffffffff16146113d357806040517ff034e0540000000000000000000000000000000000000000000000000000000081526004016113ca9190612adc565b60405180910390fd5b611405600a600060066000868152602001908152602001600020600401548152602001908152602001600020836125fb565b506114116007836125fb565b506006600083815260200190815260200160002060008082016000905560018201600061143e919061297c565b60028201600061144e919061297c565b60038201600061145e919061297c565b600482016000905550505050565b6114b4600b60003373ffffffffffffffffffffffffffffffffffffffff1673ffffffffffffffffffffffffffffffffffffffff168152602001908152602001600020826125e1565b5050565b60015481565b6114c66129eb565b600e60008373ffffffffffffffffffffffffffffffffffffffff1673ffffffffffffffffffffffffffffffffffffffff1681526020019081526020016000206040518060400160405290816000820154815260200160018201805461152a906135d3565b80601f0160208091040260200160405190810160405280929190818152602001828054611556906135d3565b80156115a35780601f10611578576101008083540402835291602001916115a3565b820191906000526020600020905b81548152906001019060200180831161158657829003601f168201915b5050505050815250509050919050565b606060006115fe600960008573ffffffffffffffffffffffffffffffffffffffff1673ffffffffffffffffffffffffffffffffffffffff168152602001908152602001600020612582565b67ffffffffffffffff81111561161757611616612b26565b5b60405190808252806020026020018201604052801561165057816020015b61163d612a05565b8152602001906001900390816116355790505b50905060005b61169d600960008673ffffffffffffffffffffffffffffffffffffffff1673ffffffffffffffffffffffffffffffffffffffff168152602001908152602001600020612582565b8110156118be57600260006116f0600960008873ffffffffffffffffffffffffffffffffffffffff1673ffffffffffffffffffffffffffffffffffffffff16815260200190815260200160002084612597565b815260200190815260200160002060405180608001604052908160008201548152602001600182018054611723906135d3565b80601f016020809104026020016040519081016040528092919081815260200182805461174f906135d3565b801561179c5780601f106117715761010080835404028352916020019161179c565b820191906000526020600020905b81548152906001019060200180831161177f57829003601f168201915b505050505081526020016002820180546117b5906135d3565b80601f01602080910402602001604051908101604052809291908181526020018280546117e1906135d3565b801561182e5780601f106118035761010080835404028352916020019161182e565b820191906000526020600020905b81548152906001019060200180831161181157829003601f168201915b505050505081526020016003820160009054906101000a900473ffffffffffffffffffffffffffffffffffffffff1673ffffffffffffffffffffffffffffffffffffffff1673ffffffffffffffffffffffffffffffffffffffff16815250508282815181106118a05761189f613991565b5b602002602001018190525080806118b6906139c0565b915050611656565b5080915050919050565b6118d0612615565b6118da600061269c565b565b6118e46129eb565b600e60003373ffffffffffffffffffffffffffffffffffffffff1673ffffffffffffffffffffffffffffffffffffffff16815260200190815260200160002060405180604001604052908160008201548152602001600182018054611948906135d3565b80601f0160208091040260200160405190810160405280929190818152602001828054611974906135d3565b80156119c15780601f10611996576101008083540402835291602001916119c1565b820191906000526020600020905b8154815290600101906020018083116119a457829003601f168201915b505050505081525050905090565b6000600c60009054906101000a900473ffffffffffffffffffffffffffffffffffffffff16905090565b823373ffffffffffffffffffffffffffffffffffffffff166002600083815260200190815260200160002060030160009054906101000a900473ffffffffffffffffffffffffffffffffffffffff1673ffffffffffffffffffffffffffffffffffffffff1614611aa057806040517ff034e054000000000000000000000000000000000000000000000000000000008152600401611a979190612adc565b60405180910390fd5b82600260008681526020019081526020016000206001019081611ac391906138bf565b5081600260008681526020019081526020016000206002019081611ae791906138bf565b50837f258ba6fc11ff8d29dfc369bc96e8baaf90ae86401a366c5767a11c0f1f90b5ce848433604051611b1c93929190613a62565b60405180910390a250505050565b803373ffffffffffffffffffffffffffffffffffffffff166002600083815260200190815260200160002060030160009054906101000a900473ffffffffffffffffffffffffffffffffffffffff1673ffffffffffffffffffffffffffffffffffffffff1614611bd157806040517ff034e054000000000000000000000000000000000000000000000000000000008152600401611bc89190612adc565b60405180910390fd5b611c19600960003373ffffffffffffffffffffffffffffffffffffffff1673ffffffffffffffffffffffffffffffffffffffff168152602001908152602001600020836125fb565b50611c256003836125fb565b5060026000838152602001908152602001600020600080820160009055600182016000611c52919061297c565b600282016000611c62919061297c565b6003820160006101000a81549073ffffffffffffffffffffffffffffffffffffffff021916905550505050565b60016000815480929190611ca2906139c0565b9190505550604051806080016040528060015481526020018381526020018281526020013373ffffffffffffffffffffffffffffffffffffffff16815250600260006001548152602001908152602001600020600082015181600001556020820151816001019081611d1491906138bf565b506040820151816002019081611d2a91906138bf565b5060608201518160030160006101000a81548173ffffffffffffffffffffffffffffffffffffffff021916908373ffffffffffffffffffffffffffffffffffffffff160217905550905050611dbf600960003373ffffffffffffffffffffffffffffffffffffffff1673ffffffffffffffffffffffffffffffffffffffff1681526020019081526020016000206001546125e1565b50611dcd60036001546125e1565b506001547f258ba6fc11ff8d29dfc369bc96e8baaf90ae86401a366c5767a11c0f1f90b5ce838333604051611e0493929190613a62565b60405180910390a25050565b600e602052806000526040600020600091509050806000015490806001018054611e39906135d3565b80601f0160208091040260200160405190810160405280929190818152602001828054611e65906135d3565b8015611eb25780601f10611e8757610100808354040283529160200191611eb2565b820191906000526020600020905b815481529060010190602001808311611e9557829003601f168201915b5050505050905082565b60066000858152602001908152602001600020600401543373ffffffffffffffffffffffffffffffffffffffff166002600083815260200190815260200160002060030160009054906101000a900473ffffffffffffffffffffffffffffffffffffffff1673ffffffffffffffffffffffffffffffffffffffff1614611f7957806040517ff034e054000000000000000000000000000000000000000000000000000000008152600401611f709190612adc565b60405180910390fd5b83600660008781526020019081526020016000206001019081611f9c91906138bf565b5082600660008781526020019081526020016000206002019081611fc091906138bf565b5081600660008781526020019081526020016000206003019081611fe491906138bf565b50847fad8078e4cde9c5c4cad797281d98afbfec3bb4ca040ac0b3ad2d72b5677d13e1858585600660008b8152602001908152602001600020600401546040516120319493929190613a08565b60405180910390a25050505050565b6060600061204e6003612582565b67ffffffffffffffff81111561206757612066612b26565b5b6040519080825280602002602001820160405280156120a057816020015b61208d612a05565b8152602001906001900390816120855790505b50905060005b6120b06003612582565b81101561229457600260006120c6600384612597565b8152602001908152602001600020604051806080016040529081600082015481526020016001820180546120f9906135d3565b80601f0160208091040260200160405190810160405280929190818152602001828054612125906135d3565b80156121725780601f1061214757610100808354040283529160200191612172565b820191906000526020600020905b81548152906001019060200180831161215557829003601f168201915b5050505050815260200160028201805461218b906135d3565b80601f01602080910402602001604051908101604052809291908181526020018280546121b7906135d3565b80156122045780601f106121d957610100808354040283529160200191612204565b820191906000526020600020905b8154815290600101906020018083116121e757829003601f168201915b505050505081526020016003820160009054906101000a900473ffffffffffffffffffffffffffffffffffffffff1673ffffffffffffffffffffffffffffffffffffffff1673ffffffffffffffffffffffffffffffffffffffff168152505082828151811061227657612275613991565b5b6020026020010181905250808061228c906139c0565b9150506120a6565b508091505090565b6011818051602081018201805184825260208301602085012081835280955050505050506000915054906101000a900460ff1681565b60005481565b60606122e2612615565b60006122ee600f612762565b67ffffffffffffffff81111561230757612306612b26565b5b60405190808252806020026020018201604052801561234057816020015b61232d6129eb565b8152602001906001900390816123255790505b50905060005b612350600f612762565b81101561247857600e6000612366600f84612777565b73ffffffffffffffffffffffffffffffffffffffff1673ffffffffffffffffffffffffffffffffffffffff168152602001908152602001600020604051806040016040529081600082015481526020016001820180546123c5906135d3565b80601f01602080910402602001604051908101604052809291908181526020018280546123f1906135d3565b801561243e5780601f106124135761010080835404028352916020019161243e565b820191906000526020600020905b81548152906001019060200180831161242157829003601f168201915b50505050508152505082828151811061245a57612459613991565b5b60200260200101819052508080612470906139c0565b915050612346565b508091505090565b6124c8600b60003373ffffffffffffffffffffffffffffffffffffffff1673ffffffffffffffffffffffffffffffffffffffff168152602001908152602001600020826125fb565b5050565b6124d4612615565b600073ffffffffffffffffffffffffffffffffffffffff168173ffffffffffffffffffffffffffffffffffffffff16036125465760006040517f1e4fbdf700000000000000000000000000000000000000000000000000000000815260040161253d91906131fa565b60405180910390fd5b61254f8161269c565b50565b600061257a836000018373ffffffffffffffffffffffffffffffffffffffff1660001b612791565b905092915050565b6000612590826000016128a5565b9050919050565b60006125a683600001836128b6565b60001c905092915050565b60006125d9836000018373ffffffffffffffffffffffffffffffffffffffff1660001b6128e1565b905092915050565b60006125f3836000018360001b6128e1565b905092915050565b600061260d836000018360001b612791565b905092915050565b61261d612951565b73ffffffffffffffffffffffffffffffffffffffff1661263b6119cf565b73ffffffffffffffffffffffffffffffffffffffff161461269a5761265e612951565b6040517f118cdaa700000000000000000000000000000000000000000000000000000000815260040161269191906131fa565b60405180910390fd5b565b6000600c60009054906101000a900473ffffffffffffffffffffffffffffffffffffffff16905081600c60006101000a81548173ffffffffffffffffffffffffffffffffffffffff021916908373ffffffffffffffffffffffffffffffffffffffff1602179055508173ffffffffffffffffffffffffffffffffffffffff168173ffffffffffffffffffffffffffffffffffffffff167f8be0079c531659141344cd1fd0a4f28419497f9722a3daafe3b4186f6b6457e060405160405180910390a35050565b6000612770826000016128a5565b9050919050565b600061278683600001836128b6565b60001c905092915050565b600080836001016000848152602001908152602001600020549050600081146128995760006001826127c39190613aa7565b90506000600186600001805490506127db9190613aa7565b905080821461284a5760008660000182815481106127fc576127fb613991565b5b90600052602060002001549050808760000184815481106128205761281f613991565b5b90600052602060002001819055508387600101600083815260200190815260200160002081905550505b8560000180548061285e5761285d613adb565b5b60019003818190600052602060002001600090559055856001016000868152602001908152602001600020600090556001935050505061289f565b60009150505b92915050565b600081600001805490509050919050565b60008260000182815481106128ce576128cd613991565b5b9060005260206000200154905092915050565b60006128ed8383612959565b61294657826000018290806001815401808255809150506001900390600052602060002001600090919091909150558260000180549050836001016000848152602001908152602001600020819055506001905061294b565b600090505b92915050565b600033905090565b600080836001016000848152602001908152602001600020541415905092915050565b508054612988906135d3565b6000825580601f1061299a57506129b9565b601f0160209004906000526020600020908101906129b89190612a43565b5b50565b6040518060a0016040528060008152602001606081526020016060815260200160608152602001600081525090565b604051806040016040528060008152602001606081525090565b6040518060800160405280600081526020016060815260200160608152602001600073ffffffffffffffffffffffffffffffffffffffff1681525090565b5b80821115612a5c576000816000905550600101612a44565b5090565b6000819050919050565b7f4e487b7100000000000000000000000000000000000000000000000000000000600052601160045260246000fd5b6000612aa482612a60565b9150612aaf83612a60565b9250828201905080821115612ac757612ac6612a6a565b5b92915050565b612ad681612a60565b82525050565b6000602082019050612af16000830184612acd565b92915050565b6000604051905090565b600080fd5b600080fd5b600080fd5b600080fd5b6000601f19601f8301169050919050565b7f4e487b7100000000000000000000000000000000000000000000000000000000600052604160045260246000fd5b612b5e82612b15565b810181811067ffffffffffffffff82111715612b7d57612b7c612b26565b5b80604052505050565b6000612b90612af7565b9050612b9c8282612b55565b919050565b600067ffffffffffffffff821115612bbc57612bbb612b26565b5b612bc582612b15565b9050602081019050919050565b82818337600083830152505050565b6000612bf4612bef84612ba1565b612b86565b905082815260208101848484011115612c1057612c0f612b10565b5b612c1b848285612bd2565b509392505050565b600082601f830112612c3857612c37612b0b565b5b8135612c48848260208601612be1565b91505092915050565b600060208284031215612c6757612c66612b01565b5b600082013567ffffffffffffffff811115612c8557612c84612b06565b5b612c9184828501612c23565b91505092915050565b600081519050919050565b600082825260208201905092915050565b6000819050602082019050919050565b612ccf81612a60565b82525050565b600081519050919050565b600082825260208201905092915050565b60005b83811015612d0f578082015181840152602081019050612cf4565b60008484015250505050565b6000612d2682612cd5565b612d308185612ce0565b9350612d40818560208601612cf1565b612d4981612b15565b840191505092915050565b600060a083016000830151612d6c6000860182612cc6565b5060208301518482036020860152612d848282612d1b565b91505060408301518482036040860152612d9e8282612d1b565b91505060608301518482036060860152612db88282612d1b565b9150506080830151612dcd6080860182612cc6565b508091505092915050565b6000612de48383612d54565b905092915050565b6000602082019050919050565b6000612e0482612c9a565b612e0e8185612ca5565b935083602082028501612e2085612cb6565b8060005b85811015612e5c5784840389528151612e3d8582612dd8565b9450612e4883612dec565b925060208a01995050600181019050612e24565b50829750879550505050505092915050565b60006020820190508181036000830152612e888184612df9565b905092915050565b612e9981612a60565b8114612ea457600080fd5b50565b600081359050612eb681612e90565b92915050565b600060208284031215612ed257612ed1612b01565b5b6000612ee084828501612ea7565b91505092915050565b60008060008060808587031215612f0357612f02612b01565b5b600085013567ffffffffffffffff811115612f2157612f20612b06565b5b612f2d87828801612c23565b945050602085013567ffffffffffffffff811115612f4e57612f4d612b06565b5b612f5a87828801612c23565b935050604085013567ffffffffffffffff811115612f7b57612f7a612b06565b5b612f8787828801612c23565b9250506060612f9887828801612ea7565b91505092959194509250565b600073ffffffffffffffffffffffffffffffffffffffff82169050919050565b6000612fcf82612fa4565b9050919050565b612fdf81612fc4565b8114612fea57600080fd5b50565b600081359050612ffc81612fd6565b92915050565b60006020828403121561301857613017612b01565b5b600061302684828501612fed565b91505092915050565b60006040830160008301516130476000860182612cc6565b506020830151848203602086015261305f8282612d1b565b9150508091505092915050565b60006020820190508181036000830152613086818461302f565b905092915050565b600081519050919050565b600082825260208201905092915050565b6000819050602082019050919050565b6130c381612fc4565b82525050565b60006080830160008301516130e16000860182612cc6565b50602083015184820360208601526130f98282612d1b565b915050604083015184820360408601526131138282612d1b565b915050606083015161312860608601826130ba565b508091505092915050565b600061313f83836130c9565b905092915050565b6000602082019050919050565b600061315f8261308e565b6131698185613099565b93508360208202850161317b856130aa565b8060005b858110156131b757848403895281516131988582613133565b94506131a383613147565b925060208a0199505060018101905061317f565b50829750879550505050505092915050565b600060208201905081810360008301526131e38184613154565b905092915050565b6131f481612fc4565b82525050565b600060208201905061320f60008301846131eb565b92915050565b60008060006060848603121561322e5761322d612b01565b5b600061323c86828701612ea7565b935050602084013567ffffffffffffffff81111561325d5761325c612b06565b5b61326986828701612c23565b925050604084013567ffffffffffffffff81111561328a57613289612b06565b5b61329686828701612c23565b9150509250925092565b600080604083850312156132b7576132b6612b01565b5b600083013567ffffffffffffffff8111156132d5576132d4612b06565b5b6132e185828601612c23565b925050602083013567ffffffffffffffff81111561330257613301612b06565b5b61330e85828601612c23565b9150509250929050565b600082825260208201905092915050565b600061333482612cd5565b61333e8185613318565b935061334e818560208601612cf1565b61335781612b15565b840191505092915050565b60006040820190506133776000830185612acd565b81810360208301526133898184613329565b90509392505050565b600080600080608085870312156133ac576133ab612b01565b5b60006133ba87828801612ea7565b945050602085013567ffffffffffffffff8111156133db576133da612b06565b5b6133e787828801612c23565b935050604085013567ffffffffffffffff81111561340857613407612b06565b5b61341487828801612c23565b925050606085013567ffffffffffffffff81111561343557613434612b06565b5b61344187828801612c23565b91505092959194509250565b60008115159050919050565b6134628161344d565b82525050565b600060208201905061347d6000830184613459565b92915050565b600081519050919050565b600082825260208201905092915050565b6000819050602082019050919050565b60006040830160008301516134c76000860182612cc6565b50602083015184820360208601526134df8282612d1b565b9150508091505092915050565b60006134f883836134af565b905092915050565b6000602082019050919050565b600061351882613483565b613522818561348e565b9350836020820285016135348561349f565b8060005b85811015613570578484038952815161355185826134ec565b945061355c83613500565b925060208a01995050600181019050613538565b50829750879550505050505092915050565b6000602082019050818103600083015261359c818461350d565b905092915050565b7f4e487b7100000000000000000000000000000000000000000000000000000000600052602260045260246000fd5b600060028204905060018216806135eb57607f821691505b6020821081036135fe576135fd6135a4565b5b50919050565b600081905092915050565b60008190508160005260206000209050919050565b60008154613631816135d3565b61363b8186613604565b94506001821660008114613656576001811461366b5761369e565b60ff198316865281151582028601935061369e565b6136748561360f565b60005b8381101561369657815481890152600182019150602081019050613677565b838801955050505b50505092915050565b60006136b38284613624565b915081905092915050565b60006136c982612cd5565b6136d38185613604565b93506136e3818560208601612cf1565b80840191505092915050565b60006136fb82846136be565b915081905092915050565b600060208201905081810360008301526137208184613329565b905092915050565b60006020601f8301049050919050565b600082821b905092915050565b6000600883026137757fffffffffffffffffffffffffffffffffffffffffffffffffffffffffffffffff82613738565b61377f8683613738565b95508019841693508086168417925050509392505050565b6000819050919050565b60006137bc6137b76137b284612a60565b613797565b612a60565b9050919050565b6000819050919050565b6137d6836137a1565b6137ea6137e2826137c3565b848454613745565b825550505050565b600090565b6137ff6137f2565b61380a8184846137cd565b505050565b5b8181101561382e576138236000826137f7565b600181019050613810565b5050565b601f821115613873576138448161360f565b61384d84613728565b8101602085101561385c578190505b61387061386885613728565b83018261380f565b50505b505050565b600082821c905092915050565b600061389660001984600802613878565b1980831691505092915050565b60006138af8383613885565b9150826002028217905092915050565b6138c882612cd5565b67ffffffffffffffff8111156138e1576138e0612b26565b5b6138eb82546135d3565b6138f6828285613832565b600060209050601f8311600181146139295760008415613917578287015190505b61392185826138a3565b865550613989565b601f1984166139378661360f565b60005b8281101561395f5784890151825560018201915060208501945060208101905061393a565b8683101561397c5784890151613978601f891682613885565b8355505b6001600288020188555050505b505050505050565b7f4e487b7100000000000000000000000000000000000000000000000000000000600052603260045260246000fd5b60006139cb82612a60565b91507fffffffffffffffffffffffffffffffffffffffffffffffffffffffffffffffff82036139fd576139fc612a6a565b5b600182019050919050565b60006080820190508181036000830152613a228187613329565b90508181036020830152613a368186613329565b90508181036040830152613a4a8185613329565b9050613a596060830184612acd565b95945050505050565b60006060820190508181036000830152613a7c8186613329565b90508181036020830152613a908185613329565b9050613a9f60408301846131eb565b949350505050565b6000613ab282612a60565b9150613abd83612a60565b9250828203905081811115613ad557613ad4612a6a565b5b92915050565b7f4e487b7100000000000000000000000000000000000000000000000000000000600052603160045260246000fdfea264697066735822122033f700d37195e520f65f75c855d73832c6d9bdb1805f189760ba9736e17ae0ad64736f6c63430008140033",
  "linkReferences": {},
  "deployedLinkReferences": {}
}