{
  "_format": "hh-sol-artifact-1",
  "contractName": "CoursesStorage",
  "sourceName": "contracts/CoursesStorage.sol",
  "abi": [
    {
      "inputs": [],
      "stateMutability": "payable",
      "type": "constructor"
    },
    {
      "inputs": [
        {
          "internalType": "uint256",
          "name": "courseId",
          "type": "uint256"
        }
      ],
      "name": "NotCourseAuthor",
      "type": "error"
    },
    {
      "anonymous": false,
      "inputs": [
        {
          "indexed": true,
          "internalType": "uint256",
          "name": "cardId",
          "type": "uint256"
        },
        {
          "indexed": false,
          "internalType": "string",
          "name": "word",
          "type": "string"
        },
        {
          "indexed": false,
          "internalType": "string",
          "name": "meaning",
          "type": "string"
        },
        {
          "indexed": false,
          "internalType": "string",
          "name": "example",
          "type": "string"
        },
        {
          "indexed": false,
          "internalType": "uint256",
          "name": "courseId",
          "type": "uint256"
        }
      ],
      "name": "CardChange",
      "type": "event"
    },
    {
      "anonymous": false,
      "inputs": [
        {
          "indexed": true,
          "internalType": "uint256",
          "name": "courseId",
          "type": "uint256"
        },
        {
          "indexed": false,
          "internalType": "string",
          "name": "name",
          "type": "string"
        },
        {
          "indexed": false,
          "internalType": "string",
          "name": "description",
          "type": "string"
        },
        {
          "indexed": false,
          "internalType": "address",
          "name": "author",
          "type": "address"
        }
      ],
      "name": "CourseChange",
      "type": "event"
    },
    {
      "inputs": [
        {
          "internalType": "uint256",
          "name": "cardId",
          "type": "uint256"
        }
      ],
      "name": "addUserCard",
      "outputs": [],
      "stateMutability": "nonpayable",
      "type": "function"
    },
    {
      "inputs": [],
      "name": "cardCount",
      "outputs": [
        {
          "internalType": "uint256",
          "name": "",
          "type": "uint256"
        }
      ],
      "stateMutability": "view",
      "type": "function"
    },
    {
      "inputs": [],
      "name": "courseCount",
      "outputs": [
        {
          "internalType": "uint256",
          "name": "",
          "type": "uint256"
        }
      ],
      "stateMutability": "view",
      "type": "function"
    },
    {
      "inputs": [
        {
          "internalType": "string",
          "name": "word",
          "type": "string"
        },
        {
          "internalType": "string",
          "name": "meaning",
          "type": "string"
        },
        {
          "internalType": "string",
          "name": "example",
          "type": "string"
        },
        {
          "internalType": "uint256",
          "name": "courseId",
          "type": "uint256"
        }
      ],
      "name": "createCard",
      "outputs": [],
      "stateMutability": "nonpayable",
      "type": "function"
    },
    {
      "inputs": [
        {
          "internalType": "string",
          "name": "name",
          "type": "string"
        },
        {
          "internalType": "string",
          "name": "description",
          "type": "string"
        }
      ],
      "name": "createCourse",
      "outputs": [],
      "stateMutability": "nonpayable",
      "type": "function"
    },
    {
      "inputs": [
        {
          "internalType": "uint256",
          "name": "cardId",
          "type": "uint256"
        }
      ],
      "name": "deleteCard",
      "outputs": [],
      "stateMutability": "nonpayable",
      "type": "function"
    },
    {
      "inputs": [
        {
          "internalType": "uint256",
          "name": "courseId",
          "type": "uint256"
        }
      ],
      "name": "deleteCourse",
      "outputs": [],
      "stateMutability": "nonpayable",
      "type": "function"
    },
    {
      "inputs": [
        {
          "internalType": "uint256",
          "name": "courseId",
          "type": "uint256"
        }
      ],
      "name": "getCardsByCourse",
      "outputs": [
        {
          "components": [
            {
              "internalType": "uint256",
              "name": "id",
              "type": "uint256"
            },
            {
              "internalType": "string",
              "name": "word",
              "type": "string"
            },
            {
              "internalType": "string",
              "name": "meaning",
              "type": "string"
            },
            {
              "internalType": "string",
              "name": "example",
              "type": "string"
            },
            {
              "internalType": "uint256",
              "name": "courseId",
              "type": "uint256"
            }
          ],
          "internalType": "struct CoursesStorage.Card[]",
          "name": "",
          "type": "tuple[]"
        }
      ],
      "stateMutability": "view",
      "type": "function"
    },
    {
      "inputs": [],
      "name": "getCourses",
      "outputs": [
        {
          "components": [
            {
              "internalType": "uint256",
              "name": "id",
              "type": "uint256"
            },
            {
              "internalType": "string",
              "name": "name",
              "type": "string"
            },
            {
              "internalType": "string",
              "name": "description",
              "type": "string"
            },
            {
              "internalType": "address",
              "name": "author",
              "type": "address"
            }
          ],
          "internalType": "struct CoursesStorage.Course[]",
          "name": "",
          "type": "tuple[]"
        }
      ],
      "stateMutability": "view",
      "type": "function"
    },
    {
      "inputs": [
        {
          "internalType": "address",
          "name": "author",
          "type": "address"
        }
      ],
      "name": "getCoursesByAuthor",
      "outputs": [
        {
          "components": [
            {
              "internalType": "uint256",
              "name": "id",
              "type": "uint256"
            },
            {
              "internalType": "string",
              "name": "name",
              "type": "string"
            },
            {
              "internalType": "string",
              "name": "description",
              "type": "string"
            },
            {
              "internalType": "address",
              "name": "author",
              "type": "address"
            }
          ],
          "internalType": "struct CoursesStorage.Course[]",
          "name": "",
          "type": "tuple[]"
        }
      ],
      "stateMutability": "view",
      "type": "function"
    },
    {
      "inputs": [],
      "name": "getUserCards",
      "outputs": [
        {
          "components": [
            {
              "internalType": "uint256",
              "name": "id",
              "type": "uint256"
            },
            {
              "internalType": "string",
              "name": "word",
              "type": "string"
            },
            {
              "internalType": "string",
              "name": "meaning",
              "type": "string"
            },
            {
              "internalType": "string",
              "name": "example",
              "type": "string"
            },
            {
              "internalType": "uint256",
              "name": "courseId",
              "type": "uint256"
            }
          ],
          "internalType": "struct CoursesStorage.Card[]",
          "name": "",
          "type": "tuple[]"
        }
      ],
      "stateMutability": "view",
      "type": "function"
    },
    {
      "inputs": [],
      "name": "receivedEther",
      "outputs": [
        {
          "internalType": "uint256",
          "name": "",
          "type": "uint256"
        }
      ],
      "stateMutability": "view",
      "type": "function"
    },
    {
      "inputs": [
        {
          "internalType": "uint256",
          "name": "cardId",
          "type": "uint256"
        }
      ],
      "name": "removeUserCard",
      "outputs": [],
      "stateMutability": "nonpayable",
      "type": "function"
    },
    {
      "inputs": [
        {
          "internalType": "uint256",
          "name": "cardId",
          "type": "uint256"
        },
        {
          "internalType": "string",
          "name": "word",
          "type": "string"
        },
        {
          "internalType": "string",
          "name": "meaning",
          "type": "string"
        },
        {
          "internalType": "string",
          "name": "example",
          "type": "string"
        }
      ],
      "name": "updateCard",
      "outputs": [],
      "stateMutability": "nonpayable",
      "type": "function"
    },
    {
      "inputs": [
        {
          "internalType": "uint256",
          "name": "courseId",
          "type": "uint256"
        },
        {
          "internalType": "string",
          "name": "name",
          "type": "string"
        },
        {
          "internalType": "string",
          "name": "description",
          "type": "string"
        }
      ],
      "name": "updateCourse",
      "outputs": [],
      "stateMutability": "nonpayable",
      "type": "function"
    },
    {
      "stateMutability": "payable",
      "type": "receive"
    }
  ],
  "bytecode": "0x6080604052600060015560006005556129458061001d6000396000f3fe6080604052600436106100ec5760003560e01c806370e24a2f1161008a578063b51183b011610059578063b51183b014610300578063cc12647914610329578063cd53e45514610354578063e6676ad11461037f5761010a565b806370e24a2f1461024857806394f9d84c146102855780639dad8d22146102ae578063a26a7953146102d75761010a565b806357744a61116100c657806357744a61146101a25780635e1acf65146101cb57806364b48788146101f4578063660551591461021d5761010a565b80631b6cde101461010f5780632194f3141461013a5780635069ca2e146101655761010a565b3661010a57346000808282546101029190611bf7565b925050819055005b600080fd5b34801561011b57600080fd5b506101246103a8565b6040516101319190611c3a565b60405180910390f35b34801561014657600080fd5b5061014f6103ae565b60405161015c9190611e3a565b60405180910390f35b34801561017157600080fd5b5061018c60048036038101906101879190611e9c565b610707565b6040516101999190611e3a565b60405180910390f35b3480156101ae57600080fd5b506101c960048036038101906101c49190611ffe565b6109de565b005b3480156101d757600080fd5b506101f260048036038101906101ed9190611e9c565b610ba8565b005b34801561020057600080fd5b5061021b60048036038101906102169190611e9c565b610cfe565b005b34801561022957600080fd5b50610232610d4a565b60405161023f9190611c3a565b60405180910390f35b34801561025457600080fd5b5061026f600480360381019061026a9190612117565b610d50565b60405161027c919061227f565b60405180910390f35b34801561029157600080fd5b506102ac60048036038101906102a791906122a1565b611065565b005b3480156102ba57600080fd5b506102d560048036038101906102d09190611e9c565b611196565b005b3480156102e357600080fd5b506102fe60048036038101906102f9919061232c565b6112fb565b005b34801561030c57600080fd5b50610327600480360381019061032291906123a4565b61147c565b005b34801561033557600080fd5b5061033e611600565b60405161034b919061227f565b60405180910390f35b34801561036057600080fd5b5061036961185c565b6040516103769190611c3a565b60405180910390f35b34801561038b57600080fd5b506103a660048036038101906103a19190611e9c565b611862565b005b60055481565b606060006103f9600b60003373ffffffffffffffffffffffffffffffffffffffff1673ffffffffffffffffffffffffffffffffffffffff1681526020019081526020016000206118ae565b67ffffffffffffffff81111561041257610411611ed3565b5b60405190808252806020026020018201604052801561044b57816020015b610438611af4565b8152602001906001900390816104305790505b50905060005b610498600b60003373ffffffffffffffffffffffffffffffffffffffff1673ffffffffffffffffffffffffffffffffffffffff1681526020019081526020016000206118ae565b8110156106ff57600660006104eb600b60003373ffffffffffffffffffffffffffffffffffffffff1673ffffffffffffffffffffffffffffffffffffffff168152602001908152602001600020846118c3565b81526020019081526020016000206040518060a00160405290816000820154815260200160018201805461051e9061248e565b80601f016020809104026020016040519081016040528092919081815260200182805461054a9061248e565b80156105975780601f1061056c57610100808354040283529160200191610597565b820191906000526020600020905b81548152906001019060200180831161057a57829003601f168201915b505050505081526020016002820180546105b09061248e565b80601f01602080910402602001604051908101604052809291908181526020018280546105dc9061248e565b80156106295780601f106105fe57610100808354040283529160200191610629565b820191906000526020600020905b81548152906001019060200180831161060c57829003601f168201915b505050505081526020016003820180546106429061248e565b80601f016020809104026020016040519081016040528092919081815260200182805461066e9061248e565b80156106bb5780601f10610690576101008083540402835291602001916106bb565b820191906000526020600020905b81548152906001019060200180831161069e57829003601f168201915b505050505081526020016004820154815250508282815181106106e1576106e06124bf565b5b602002602001018190525080806106f7906124ee565b915050610451565b508091505090565b60606000610726600a60008581526020019081526020016000206118ae565b67ffffffffffffffff81111561073f5761073e611ed3565b5b60405190808252806020026020018201604052801561077857816020015b610765611af4565b81526020019060019003908161075d5790505b50905060005b610799600a60008681526020019081526020016000206118ae565b8110156109d457600660006107c0600a6000888152602001908152602001600020846118c3565b81526020019081526020016000206040518060a0016040529081600082015481526020016001820180546107f39061248e565b80601f016020809104026020016040519081016040528092919081815260200182805461081f9061248e565b801561086c5780601f106108415761010080835404028352916020019161086c565b820191906000526020600020905b81548152906001019060200180831161084f57829003601f168201915b505050505081526020016002820180546108859061248e565b80601f01602080910402602001604051908101604052809291908181526020018280546108b19061248e565b80156108fe5780601f106108d3576101008083540402835291602001916108fe565b820191906000526020600020905b8154815290600101906020018083116108e157829003601f168201915b505050505081526020016003820180546109179061248e565b80601f01602080910402602001604051908101604052809291908181526020018280546109439061248e565b80156109905780601f1061096557610100808354040283529160200191610990565b820191906000526020600020905b81548152906001019060200180831161097357829003601f168201915b505050505081526020016004820154815250508282815181106109b6576109b56124bf565b5b602002602001018190525080806109cc906124ee565b91505061077e565b5080915050919050565b803373ffffffffffffffffffffffffffffffffffffffff166002600083815260200190815260200160002060030160009054906101000a900473ffffffffffffffffffffffffffffffffffffffff1673ffffffffffffffffffffffffffffffffffffffff1614610a8557806040517ff034e054000000000000000000000000000000000000000000000000000000008152600401610a7c9190611c3a565b60405180910390fd5b60056000815480929190610a98906124ee565b91905055506040518060a00160405280600554815260200186815260200185815260200184815260200183815250600660006005548152602001908152602001600020600082015181600001556020820151816001019081610afa91906126e2565b506040820151816002019081610b1091906126e2565b506060820151816003019081610b2691906126e2565b5060808201518160040155905050610b52600a60008481526020019081526020016000206005546118dd565b50610b6060076005546118dd565b506005547fad8078e4cde9c5c4cad797281d98afbfec3bb4ca040ac0b3ad2d72b5677d13e186868686604051610b9994939291906127fe565b60405180910390a25050505050565b60066000828152602001908152602001600020600401543373ffffffffffffffffffffffffffffffffffffffff166002600083815260200190815260200160002060030160009054906101000a900473ffffffffffffffffffffffffffffffffffffffff1673ffffffffffffffffffffffffffffffffffffffff1614610c6557806040517ff034e054000000000000000000000000000000000000000000000000000000008152600401610c5c9190611c3a565b60405180910390fd5b610c97600a600060066000868152602001908152602001600020600401548152602001908152602001600020836118f7565b50610ca36007836118f7565b5060066000838152602001908152602001600020600080820160009055600182016000610cd09190611b23565b600282016000610ce09190611b23565b600382016000610cf09190611b23565b600482016000905550505050565b610d46600b60003373ffffffffffffffffffffffffffffffffffffffff1673ffffffffffffffffffffffffffffffffffffffff168152602001908152602001600020826118dd565b5050565b60015481565b60606000610d9b600960008573ffffffffffffffffffffffffffffffffffffffff1673ffffffffffffffffffffffffffffffffffffffff1681526020019081526020016000206118ae565b67ffffffffffffffff811115610db457610db3611ed3565b5b604051908082528060200260200182016040528015610ded57816020015b610dda611b63565b815260200190600190039081610dd25790505b50905060005b610e3a600960008673ffffffffffffffffffffffffffffffffffffffff1673ffffffffffffffffffffffffffffffffffffffff1681526020019081526020016000206118ae565b81101561105b5760026000610e8d600960008873ffffffffffffffffffffffffffffffffffffffff1673ffffffffffffffffffffffffffffffffffffffff168152602001908152602001600020846118c3565b815260200190815260200160002060405180608001604052908160008201548152602001600182018054610ec09061248e565b80601f0160208091040260200160405190810160405280929190818152602001828054610eec9061248e565b8015610f395780601f10610f0e57610100808354040283529160200191610f39565b820191906000526020600020905b815481529060010190602001808311610f1c57829003601f168201915b50505050508152602001600282018054610f529061248e565b80601f0160208091040260200160405190810160405280929190818152602001828054610f7e9061248e565b8015610fcb5780601f10610fa057610100808354040283529160200191610fcb565b820191906000526020600020905b815481529060010190602001808311610fae57829003601f168201915b505050505081526020016003820160009054906101000a900473ffffffffffffffffffffffffffffffffffffffff1673ffffffffffffffffffffffffffffffffffffffff1673ffffffffffffffffffffffffffffffffffffffff168152505082828151811061103d5761103c6124bf565b5b60200260200101819052508080611053906124ee565b915050610df3565b5080915050919050565b823373ffffffffffffffffffffffffffffffffffffffff166002600083815260200190815260200160002060030160009054906101000a900473ffffffffffffffffffffffffffffffffffffffff1673ffffffffffffffffffffffffffffffffffffffff161461110c57806040517ff034e0540000000000000000000000000000000000000000000000000000000081526004016111039190611c3a565b60405180910390fd5b8260026000868152602001908152602001600020600101908161112f91906126e2565b508160026000868152602001908152602001600020600201908161115391906126e2565b50837f258ba6fc11ff8d29dfc369bc96e8baaf90ae86401a366c5767a11c0f1f90b5ce84843360405161118893929190612867565b60405180910390a250505050565b803373ffffffffffffffffffffffffffffffffffffffff166002600083815260200190815260200160002060030160009054906101000a900473ffffffffffffffffffffffffffffffffffffffff1673ffffffffffffffffffffffffffffffffffffffff161461123d57806040517ff034e0540000000000000000000000000000000000000000000000000000000081526004016112349190611c3a565b60405180910390fd5b611285600960003373ffffffffffffffffffffffffffffffffffffffff1673ffffffffffffffffffffffffffffffffffffffff168152602001908152602001600020836118f7565b506112916003836118f7565b50600260008381526020019081526020016000206000808201600090556001820160006112be9190611b23565b6002820160006112ce9190611b23565b6003820160006101000a81549073ffffffffffffffffffffffffffffffffffffffff021916905550505050565b6001600081548092919061130e906124ee565b9190505550604051806080016040528060015481526020018381526020018281526020013373ffffffffffffffffffffffffffffffffffffffff1681525060026000600154815260200190815260200160002060008201518160000155602082015181600101908161138091906126e2565b50604082015181600201908161139691906126e2565b5060608201518160030160006101000a81548173ffffffffffffffffffffffffffffffffffffffff021916908373ffffffffffffffffffffffffffffffffffffffff16021790555090505061142b600960003373ffffffffffffffffffffffffffffffffffffffff1673ffffffffffffffffffffffffffffffffffffffff1681526020019081526020016000206001546118dd565b5061143960036001546118dd565b506001547f258ba6fc11ff8d29dfc369bc96e8baaf90ae86401a366c5767a11c0f1f90b5ce83833360405161147093929190612867565b60405180910390a25050565b60066000858152602001908152602001600020600401543373ffffffffffffffffffffffffffffffffffffffff166002600083815260200190815260200160002060030160009054906101000a900473ffffffffffffffffffffffffffffffffffffffff1673ffffffffffffffffffffffffffffffffffffffff161461153957806040517ff034e0540000000000000000000000000000000000000000000000000000000081526004016115309190611c3a565b60405180910390fd5b8360066000878152602001908152602001600020600101908161155c91906126e2565b508260066000878152602001908152602001600020600201908161158091906126e2565b50816006600087815260200190815260200160002060030190816115a491906126e2565b50847fad8078e4cde9c5c4cad797281d98afbfec3bb4ca040ac0b3ad2d72b5677d13e1858585600660008b8152602001908152602001600020600401546040516115f194939291906127fe565b60405180910390a25050505050565b6060600061160e60036118ae565b67ffffffffffffffff81111561162757611626611ed3565b5b60405190808252806020026020018201604052801561166057816020015b61164d611b63565b8152602001906001900390816116455790505b50905060005b61167060036118ae565b81101561185457600260006116866003846118c3565b8152602001908152602001600020604051806080016040529081600082015481526020016001820180546116b99061248e565b80601f01602080910402602001604051908101604052809291908181526020018280546116e59061248e565b80156117325780601f1061170757610100808354040283529160200191611732565b820191906000526020600020905b81548152906001019060200180831161171557829003601f168201915b5050505050815260200160028201805461174b9061248e565b80601f01602080910402602001604051908101604052809291908181526020018280546117779061248e565b80156117c45780601f10611799576101008083540402835291602001916117c4565b820191906000526020600020905b8154815290600101906020018083116117a757829003601f168201915b505050505081526020016003820160009054906101000a900473ffffffffffffffffffffffffffffffffffffffff1673ffffffffffffffffffffffffffffffffffffffff1673ffffffffffffffffffffffffffffffffffffffff1681525050828281518110611836576118356124bf565b5b6020026020010181905250808061184c906124ee565b915050611666565b508091505090565b60005481565b6118aa600b60003373ffffffffffffffffffffffffffffffffffffffff1673ffffffffffffffffffffffffffffffffffffffff168152602001908152602001600020826118f7565b5050565b60006118bc82600001611911565b9050919050565b60006118d28360000183611922565b60001c905092915050565b60006118ef836000018360001b61194d565b905092915050565b6000611909836000018360001b6119bd565b905092915050565b600081600001805490509050919050565b600082600001828154811061193a576119396124bf565b5b9060005260206000200154905092915050565b60006119598383611ad1565b6119b25782600001829080600181540180825580915050600190039060005260206000200160009091909190915055826000018054905083600101600084815260200190815260200160002081905550600190506119b7565b600090505b92915050565b60008083600101600084815260200190815260200160002054905060008114611ac55760006001826119ef91906128ac565b9050600060018660000180549050611a0791906128ac565b9050808214611a76576000866000018281548110611a2857611a276124bf565b5b9060005260206000200154905080876000018481548110611a4c57611a4b6124bf565b5b90600052602060002001819055508387600101600083815260200190815260200160002081905550505b85600001805480611a8a57611a896128e0565b5b600190038181906000526020600020016000905590558560010160008681526020019081526020016000206000905560019350505050611acb565b60009150505b92915050565b600080836001016000848152602001908152602001600020541415905092915050565b6040518060a0016040528060008152602001606081526020016060815260200160608152602001600081525090565b508054611b2f9061248e565b6000825580601f10611b415750611b60565b601f016020900490600052602060002090810190611b5f9190611ba1565b5b50565b6040518060800160405280600081526020016060815260200160608152602001600073ffffffffffffffffffffffffffffffffffffffff1681525090565b5b80821115611bba576000816000905550600101611ba2565b5090565b6000819050919050565b7f4e487b7100000000000000000000000000000000000000000000000000000000600052601160045260246000fd5b6000611c0282611bbe565b9150611c0d83611bbe565b9250828201905080821115611c2557611c24611bc8565b5b92915050565b611c3481611bbe565b82525050565b6000602082019050611c4f6000830184611c2b565b92915050565b600081519050919050565b600082825260208201905092915050565b6000819050602082019050919050565b611c8a81611bbe565b82525050565b600081519050919050565b600082825260208201905092915050565b60005b83811015611cca578082015181840152602081019050611caf565b60008484015250505050565b6000601f19601f8301169050919050565b6000611cf282611c90565b611cfc8185611c9b565b9350611d0c818560208601611cac565b611d1581611cd6565b840191505092915050565b600060a083016000830151611d386000860182611c81565b5060208301518482036020860152611d508282611ce7565b91505060408301518482036040860152611d6a8282611ce7565b91505060608301518482036060860152611d848282611ce7565b9150506080830151611d996080860182611c81565b508091505092915050565b6000611db08383611d20565b905092915050565b6000602082019050919050565b6000611dd082611c55565b611dda8185611c60565b935083602082028501611dec85611c71565b8060005b85811015611e285784840389528151611e098582611da4565b9450611e1483611db8565b925060208a01995050600181019050611df0565b50829750879550505050505092915050565b60006020820190508181036000830152611e548184611dc5565b905092915050565b6000604051905090565b600080fd5b600080fd5b611e7981611bbe565b8114611e8457600080fd5b50565b600081359050611e9681611e70565b92915050565b600060208284031215611eb257611eb1611e66565b5b6000611ec084828501611e87565b91505092915050565b600080fd5b600080fd5b7f4e487b7100000000000000000000000000000000000000000000000000000000600052604160045260246000fd5b611f0b82611cd6565b810181811067ffffffffffffffff82111715611f2a57611f29611ed3565b5b80604052505050565b6000611f3d611e5c565b9050611f498282611f02565b919050565b600067ffffffffffffffff821115611f6957611f68611ed3565b5b611f7282611cd6565b9050602081019050919050565b82818337600083830152505050565b6000611fa1611f9c84611f4e565b611f33565b905082815260208101848484011115611fbd57611fbc611ece565b5b611fc8848285611f7f565b509392505050565b600082601f830112611fe557611fe4611ec9565b5b8135611ff5848260208601611f8e565b91505092915050565b6000806000806080858703121561201857612017611e66565b5b600085013567ffffffffffffffff81111561203657612035611e6b565b5b61204287828801611fd0565b945050602085013567ffffffffffffffff81111561206357612062611e6b565b5b61206f87828801611fd0565b935050604085013567ffffffffffffffff8111156120905761208f611e6b565b5b61209c87828801611fd0565b92505060606120ad87828801611e87565b91505092959194509250565b600073ffffffffffffffffffffffffffffffffffffffff82169050919050565b60006120e4826120b9565b9050919050565b6120f4816120d9565b81146120ff57600080fd5b50565b600081359050612111816120eb565b92915050565b60006020828403121561212d5761212c611e66565b5b600061213b84828501612102565b91505092915050565b600081519050919050565b600082825260208201905092915050565b6000819050602082019050919050565b612179816120d9565b82525050565b60006080830160008301516121976000860182611c81565b50602083015184820360208601526121af8282611ce7565b915050604083015184820360408601526121c98282611ce7565b91505060608301516121de6060860182612170565b508091505092915050565b60006121f5838361217f565b905092915050565b6000602082019050919050565b600061221582612144565b61221f818561214f565b93508360208202850161223185612160565b8060005b8581101561226d578484038952815161224e85826121e9565b9450612259836121fd565b925060208a01995050600181019050612235565b50829750879550505050505092915050565b60006020820190508181036000830152612299818461220a565b905092915050565b6000806000606084860312156122ba576122b9611e66565b5b60006122c886828701611e87565b935050602084013567ffffffffffffffff8111156122e9576122e8611e6b565b5b6122f586828701611fd0565b925050604084013567ffffffffffffffff81111561231657612315611e6b565b5b61232286828701611fd0565b9150509250925092565b6000806040838503121561234357612342611e66565b5b600083013567ffffffffffffffff81111561236157612360611e6b565b5b61236d85828601611fd0565b925050602083013567ffffffffffffffff81111561238e5761238d611e6b565b5b61239a85828601611fd0565b9150509250929050565b600080600080608085870312156123be576123bd611e66565b5b60006123cc87828801611e87565b945050602085013567ffffffffffffffff8111156123ed576123ec611e6b565b5b6123f987828801611fd0565b935050604085013567ffffffffffffffff81111561241a57612419611e6b565b5b61242687828801611fd0565b925050606085013567ffffffffffffffff81111561244757612446611e6b565b5b61245387828801611fd0565b91505092959194509250565b7f4e487b7100000000000000000000000000000000000000000000000000000000600052602260045260246000fd5b600060028204905060018216806124a657607f821691505b6020821081036124b9576124b861245f565b5b50919050565b7f4e487b7100000000000000000000000000000000000000000000000000000000600052603260045260246000fd5b60006124f982611bbe565b91507fffffffffffffffffffffffffffffffffffffffffffffffffffffffffffffffff820361252b5761252a611bc8565b5b600182019050919050565b60008190508160005260206000209050919050565b60006020601f8301049050919050565b600082821b905092915050565b6000600883026125987fffffffffffffffffffffffffffffffffffffffffffffffffffffffffffffffff8261255b565b6125a2868361255b565b95508019841693508086168417925050509392505050565b6000819050919050565b60006125df6125da6125d584611bbe565b6125ba565b611bbe565b9050919050565b6000819050919050565b6125f9836125c4565b61260d612605826125e6565b848454612568565b825550505050565b600090565b612622612615565b61262d8184846125f0565b505050565b5b818110156126515761264660008261261a565b600181019050612633565b5050565b601f8211156126965761266781612536565b6126708461254b565b8101602085101561267f578190505b61269361268b8561254b565b830182612632565b50505b505050565b600082821c905092915050565b60006126b96000198460080261269b565b1980831691505092915050565b60006126d283836126a8565b9150826002028217905092915050565b6126eb82611c90565b67ffffffffffffffff81111561270457612703611ed3565b5b61270e825461248e565b612719828285612655565b600060209050601f83116001811461274c576000841561273a578287015190505b61274485826126c6565b8655506127ac565b601f19841661275a86612536565b60005b828110156127825784890151825560018201915060208501945060208101905061275d565b8683101561279f578489015161279b601f8916826126a8565b8355505b6001600288020188555050505b505050505050565b600082825260208201905092915050565b60006127d082611c90565b6127da81856127b4565b93506127ea818560208601611cac565b6127f381611cd6565b840191505092915050565b6000608082019050818103600083015261281881876127c5565b9050818103602083015261282c81866127c5565b9050818103604083015261284081856127c5565b905061284f6060830184611c2b565b95945050505050565b612861816120d9565b82525050565b6000606082019050818103600083015261288181866127c5565b9050818103602083015261289581856127c5565b90506128a46040830184612858565b949350505050565b60006128b782611bbe565b91506128c283611bbe565b92508282039050818111156128da576128d9611bc8565b5b92915050565b7f4e487b7100000000000000000000000000000000000000000000000000000000600052603160045260246000fdfea264697066735822122023446060cd8160171b07775a8c9c99cc2b9c452a28382fc8a0fc7cb7cfa1fa0864736f6c63430008140033",
  "linkReferences": {},
  "deployedLinkReferences": {}
}