{
  "_format": "hh-sol-artifact-1",
  "contractName": "CoursesStorage",
  "sourceName": "contracts/CoursesStorage.sol",
  "abi": [
    {
      "inputs": [],
      "stateMutability": "payable",
      "type": "constructor"
    },
    {
      "inputs": [
        {
          "internalType": "uint256",
          "name": "courseId",
          "type": "uint256"
        }
      ],
      "name": "NotCourseAuthor",
      "type": "error"
    },
    {
      "anonymous": false,
      "inputs": [
        {
          "indexed": true,
          "internalType": "uint256",
          "name": "cardId",
          "type": "uint256"
        },
        {
          "indexed": false,
          "internalType": "string",
          "name": "word",
          "type": "string"
        },
        {
          "indexed": false,
          "internalType": "string",
          "name": "meaning",
          "type": "string"
        },
        {
          "indexed": false,
          "internalType": "string",
          "name": "example",
          "type": "string"
        },
        {
          "indexed": false,
          "internalType": "uint256",
          "name": "courseId",
          "type": "uint256"
        }
      ],
      "name": "CardChange",
      "type": "event"
    },
    {
      "anonymous": false,
      "inputs": [
        {
          "indexed": true,
          "internalType": "uint256",
          "name": "courseId",
          "type": "uint256"
        },
        {
          "indexed": false,
          "internalType": "string",
          "name": "name",
          "type": "string"
        },
        {
          "indexed": false,
          "internalType": "string",
          "name": "description",
          "type": "string"
        },
        {
          "indexed": false,
          "internalType": "address",
          "name": "author",
          "type": "address"
        }
      ],
      "name": "CourseChange",
      "type": "event"
    },
    {
      "inputs": [],
      "name": "cardCount",
      "outputs": [
        {
          "internalType": "uint256",
          "name": "",
          "type": "uint256"
        }
      ],
      "stateMutability": "view",
      "type": "function"
    },
    {
      "inputs": [
        {
          "internalType": "uint256",
          "name": "",
          "type": "uint256"
        }
      ],
      "name": "cards",
      "outputs": [
        {
          "internalType": "uint256",
          "name": "id",
          "type": "uint256"
        },
        {
          "internalType": "string",
          "name": "word",
          "type": "string"
        },
        {
          "internalType": "string",
          "name": "meaning",
          "type": "string"
        },
        {
          "internalType": "string",
          "name": "example",
          "type": "string"
        },
        {
          "internalType": "uint256",
          "name": "courseId",
          "type": "uint256"
        }
      ],
      "stateMutability": "view",
      "type": "function"
    },
    {
      "inputs": [],
      "name": "courseCount",
      "outputs": [
        {
          "internalType": "uint256",
          "name": "",
          "type": "uint256"
        }
      ],
      "stateMutability": "view",
      "type": "function"
    },
    {
      "inputs": [
        {
          "internalType": "uint256",
          "name": "",
          "type": "uint256"
        }
      ],
      "name": "courses",
      "outputs": [
        {
          "internalType": "uint256",
          "name": "id",
          "type": "uint256"
        },
        {
          "internalType": "string",
          "name": "name",
          "type": "string"
        },
        {
          "internalType": "string",
          "name": "description",
          "type": "string"
        },
        {
          "internalType": "address",
          "name": "author",
          "type": "address"
        }
      ],
      "stateMutability": "view",
      "type": "function"
    },
    {
      "inputs": [
        {
          "internalType": "string",
          "name": "word",
          "type": "string"
        },
        {
          "internalType": "string",
          "name": "meaning",
          "type": "string"
        },
        {
          "internalType": "string",
          "name": "example",
          "type": "string"
        },
        {
          "internalType": "uint256",
          "name": "courseId",
          "type": "uint256"
        }
      ],
      "name": "createCard",
      "outputs": [],
      "stateMutability": "nonpayable",
      "type": "function"
    },
    {
      "inputs": [
        {
          "internalType": "string",
          "name": "name",
          "type": "string"
        },
        {
          "internalType": "string",
          "name": "description",
          "type": "string"
        }
      ],
      "name": "createCourse",
      "outputs": [],
      "stateMutability": "nonpayable",
      "type": "function"
    },
    {
      "inputs": [
        {
          "internalType": "uint256",
          "name": "cardId",
          "type": "uint256"
        }
      ],
      "name": "deleteCard",
      "outputs": [],
      "stateMutability": "nonpayable",
      "type": "function"
    },
    {
      "inputs": [
        {
          "internalType": "uint256",
          "name": "courseId",
          "type": "uint256"
        }
      ],
      "name": "deleteCourse",
      "outputs": [],
      "stateMutability": "nonpayable",
      "type": "function"
    },
    {
      "inputs": [
        {
          "internalType": "uint256",
          "name": "courseId",
          "type": "uint256"
        }
      ],
      "name": "getCardsByCourse",
      "outputs": [
        {
          "components": [
            {
              "internalType": "uint256",
              "name": "id",
              "type": "uint256"
            },
            {
              "internalType": "string",
              "name": "word",
              "type": "string"
            },
            {
              "internalType": "string",
              "name": "meaning",
              "type": "string"
            },
            {
              "internalType": "string",
              "name": "example",
              "type": "string"
            },
            {
              "internalType": "uint256",
              "name": "courseId",
              "type": "uint256"
            }
          ],
          "internalType": "struct CoursesStorage.Card[]",
          "name": "",
          "type": "tuple[]"
        }
      ],
      "stateMutability": "view",
      "type": "function"
    },
    {
      "inputs": [],
      "name": "getCourses",
      "outputs": [
        {
          "components": [
            {
              "internalType": "uint256",
              "name": "id",
              "type": "uint256"
            },
            {
              "internalType": "string",
              "name": "name",
              "type": "string"
            },
            {
              "internalType": "string",
              "name": "description",
              "type": "string"
            },
            {
              "internalType": "uint256[]",
              "name": "cardIds",
              "type": "uint256[]"
            },
            {
              "internalType": "address",
              "name": "author",
              "type": "address"
            }
          ],
          "internalType": "struct CoursesStorage.Course[]",
          "name": "",
          "type": "tuple[]"
        }
      ],
      "stateMutability": "view",
      "type": "function"
    },
    {
      "inputs": [
        {
          "internalType": "address",
          "name": "author",
          "type": "address"
        }
      ],
      "name": "getCoursesByAuthor",
      "outputs": [
        {
          "components": [
            {
              "internalType": "uint256",
              "name": "id",
              "type": "uint256"
            },
            {
              "internalType": "string",
              "name": "name",
              "type": "string"
            },
            {
              "internalType": "string",
              "name": "description",
              "type": "string"
            },
            {
              "internalType": "uint256[]",
              "name": "cardIds",
              "type": "uint256[]"
            },
            {
              "internalType": "address",
              "name": "author",
              "type": "address"
            }
          ],
          "internalType": "struct CoursesStorage.Course[]",
          "name": "",
          "type": "tuple[]"
        }
      ],
      "stateMutability": "view",
      "type": "function"
    },
    {
      "inputs": [],
      "name": "receivedEther",
      "outputs": [
        {
          "internalType": "uint256",
          "name": "",
          "type": "uint256"
        }
      ],
      "stateMutability": "view",
      "type": "function"
    },
    {
      "inputs": [
        {
          "internalType": "uint256",
          "name": "cardId",
          "type": "uint256"
        },
        {
          "internalType": "string",
          "name": "word",
          "type": "string"
        },
        {
          "internalType": "string",
          "name": "meaning",
          "type": "string"
        },
        {
          "internalType": "string",
          "name": "example",
          "type": "string"
        }
      ],
      "name": "updateCard",
      "outputs": [],
      "stateMutability": "nonpayable",
      "type": "function"
    },
    {
      "inputs": [
        {
          "internalType": "uint256",
          "name": "courseId",
          "type": "uint256"
        },
        {
          "internalType": "string",
          "name": "name",
          "type": "string"
        },
        {
          "internalType": "string",
          "name": "description",
          "type": "string"
        }
      ],
      "name": "updateCourse",
      "outputs": [],
      "stateMutability": "nonpayable",
      "type": "function"
    },
    {
      "stateMutability": "payable",
      "type": "receive"
    }
  ],
  "bytecode": "0x6080604052600060015560006003556128a58061001d6000396000f3fe6080604052600436106100e15760003560e01c806394f9d84c1161007f578063a26a795311610059578063a26a7953146102f9578063b51183b014610322578063cc1264791461034b578063cd53e45514610376576100ff565b806394f9d84c1461026757806396f979d2146102905780639dad8d22146102d0576100ff565b80635e1acf65116100bb5780635e1acf651461019557806366055159146101be57806370e24a2f146101e95780638dc1076814610226576100ff565b80631b6cde10146101045780635069ca2e1461012f57806357744a611461016c576100ff565b366100ff57346000808282546100f79190611a36565b925050819055005b600080fd5b34801561011057600080fd5b506101196103a1565b6040516101269190611a79565b60405180910390f35b34801561013b57600080fd5b5061015660048036038101906101519190611ad4565b6103a7565b6040516101639190611ce6565b60405180910390f35b34801561017857600080fd5b50610193600480360381019061018e9190611e3d565b610693565b005b3480156101a157600080fd5b506101bc60048036038101906101b79190611ad4565b6108ab565b005b3480156101ca57600080fd5b506101d36109c2565b6040516101e09190611a79565b60405180910390f35b3480156101f557600080fd5b50610210600480360381019061020b9190611f56565b6109c8565b60405161021d9190612187565b60405180910390f35b34801561023257600080fd5b5061024d60048036038101906102489190611ad4565b610d11565b60405161025e9594939291906121f3565b60405180910390f35b34801561027357600080fd5b5061028e6004803603810190610289919061225b565b610edf565b005b34801561029c57600080fd5b506102b760048036038101906102b29190611ad4565b611010565b6040516102c794939291906122f5565b60405180910390f35b3480156102dc57600080fd5b506102f760048036038101906102f29190611ad4565b611170565b005b34801561030557600080fd5b50610320600480360381019061031b9190612348565b611290565b005b34801561032e57600080fd5b50610349600480360381019061034491906123c0565b61148c565b005b34801561035757600080fd5b50610360611610565b60405161036d9190612187565b60405180910390f35b34801561038257600080fd5b5061038b6118b8565b6040516103989190611a79565b60405180910390f35b60035481565b60606000600260008481526020019081526020016000206003018054905067ffffffffffffffff8111156103de576103dd611d12565b5b60405190808252806020026020018201604052801561041757816020015b6104046118be565b8152602001906001900390816103fc5790505b50905060005b6002600085815260200190815260200160002060030180549050811015610689576004600060026000878152602001908152602001600020600301838154811061046a5761046961247b565b5b906000526020600020015481526020019081526020016000206040518060a0016040529081600082015481526020016001820180546104a8906124d9565b80601f01602080910402602001604051908101604052809291908181526020018280546104d4906124d9565b80156105215780601f106104f657610100808354040283529160200191610521565b820191906000526020600020905b81548152906001019060200180831161050457829003601f168201915b5050505050815260200160028201805461053a906124d9565b80601f0160208091040260200160405190810160405280929190818152602001828054610566906124d9565b80156105b35780601f10610588576101008083540402835291602001916105b3565b820191906000526020600020905b81548152906001019060200180831161059657829003601f168201915b505050505081526020016003820180546105cc906124d9565b80601f01602080910402602001604051908101604052809291908181526020018280546105f8906124d9565b80156106455780601f1061061a57610100808354040283529160200191610645565b820191906000526020600020905b81548152906001019060200180831161062857829003601f168201915b5050505050815260200160048201548152505082828151811061066b5761066a61247b565b5b602002602001018190525080806106819061250a565b91505061041d565b5080915050919050565b803373ffffffffffffffffffffffffffffffffffffffff166002600083815260200190815260200160002060040160009054906101000a900473ffffffffffffffffffffffffffffffffffffffff1673ffffffffffffffffffffffffffffffffffffffff161461073a57806040517ff034e0540000000000000000000000000000000000000000000000000000000081526004016107319190611a79565b60405180910390fd5b6003600081548092919061074d9061250a565b91905055506040518060a001604052806003548152602001868152602001858152602001848152602001838152506004600060035481526020019081526020016000206000820151816000015560208201518160010190816107af91906126fe565b5060408201518160020190816107c591906126fe565b5060608201518160030190816107db91906126fe565b50608082015181600401559050506002600083815260200190815260200160002060030160035490806001815401808255809150506001900390600052602060002001600090919091909150556006600083815260200190815260200160002060035490806001815401808255809150506001900390600052602060002001600090919091909150556003547fad8078e4cde9c5c4cad797281d98afbfec3bb4ca040ac0b3ad2d72b5677d13e18686868660405161089c94939291906127d0565b60405180910390a25050505050565b60046000828152602001908152602001600020600401543373ffffffffffffffffffffffffffffffffffffffff166002600083815260200190815260200160002060040160009054906101000a900473ffffffffffffffffffffffffffffffffffffffff1673ffffffffffffffffffffffffffffffffffffffff161461096857806040517ff034e05400000000000000000000000000000000000000000000000000000000815260040161095f9190611a79565b60405180910390fd5b6004600083815260200190815260200160002060008082016000905560018201600061099491906118ed565b6002820160006109a491906118ed565b6003820160006109b491906118ed565b600482016000905550505050565b60015481565b60606000600560008473ffffffffffffffffffffffffffffffffffffffff1673ffffffffffffffffffffffffffffffffffffffff168152602001908152602001600020805480602002602001604051908101604052809291908181526020018280548015610a5557602002820191906000526020600020905b815481526020019060010190808311610a41575b505050505090506000815167ffffffffffffffff811115610a7957610a78611d12565b5b604051908082528060200260200182016040528015610ab257816020015b610a9f61192d565b815260200190600190039081610a975790505b50905060005b8251811015610d065760026000848381518110610ad857610ad761247b565b5b602002602001015181526020019081526020016000206040518060a001604052908160008201548152602001600182018054610b13906124d9565b80601f0160208091040260200160405190810160405280929190818152602001828054610b3f906124d9565b8015610b8c5780601f10610b6157610100808354040283529160200191610b8c565b820191906000526020600020905b815481529060010190602001808311610b6f57829003601f168201915b50505050508152602001600282018054610ba5906124d9565b80601f0160208091040260200160405190810160405280929190818152602001828054610bd1906124d9565b8015610c1e5780601f10610bf357610100808354040283529160200191610c1e565b820191906000526020600020905b815481529060010190602001808311610c0157829003601f168201915b5050505050815260200160038201805480602002602001604051908101604052809291908181526020018280548015610c7657602002820191906000526020600020905b815481526020019060010190808311610c62575b505050505081526020016004820160009054906101000a900473ffffffffffffffffffffffffffffffffffffffff1673ffffffffffffffffffffffffffffffffffffffff1673ffffffffffffffffffffffffffffffffffffffff1681525050828281518110610ce857610ce761247b565b5b60200260200101819052508080610cfe9061250a565b915050610ab8565b508092505050919050565b6004602052806000526040600020600091509050806000015490806001018054610d3a906124d9565b80601f0160208091040260200160405190810160405280929190818152602001828054610d66906124d9565b8015610db35780601f10610d8857610100808354040283529160200191610db3565b820191906000526020600020905b815481529060010190602001808311610d9657829003601f168201915b505050505090806002018054610dc8906124d9565b80601f0160208091040260200160405190810160405280929190818152602001828054610df4906124d9565b8015610e415780601f10610e1657610100808354040283529160200191610e41565b820191906000526020600020905b815481529060010190602001808311610e2457829003601f168201915b505050505090806003018054610e56906124d9565b80601f0160208091040260200160405190810160405280929190818152602001828054610e82906124d9565b8015610ecf5780601f10610ea457610100808354040283529160200191610ecf565b820191906000526020600020905b815481529060010190602001808311610eb257829003601f168201915b5050505050908060040154905085565b823373ffffffffffffffffffffffffffffffffffffffff166002600083815260200190815260200160002060040160009054906101000a900473ffffffffffffffffffffffffffffffffffffffff1673ffffffffffffffffffffffffffffffffffffffff1614610f8657806040517ff034e054000000000000000000000000000000000000000000000000000000008152600401610f7d9190611a79565b60405180910390fd5b82600260008681526020019081526020016000206001019081610fa991906126fe565b5081600260008681526020019081526020016000206002019081610fcd91906126fe565b50837f258ba6fc11ff8d29dfc369bc96e8baaf90ae86401a366c5767a11c0f1f90b5ce8484336040516110029392919061282a565b60405180910390a250505050565b6002602052806000526040600020600091509050806000015490806001018054611039906124d9565b80601f0160208091040260200160405190810160405280929190818152602001828054611065906124d9565b80156110b25780601f10611087576101008083540402835291602001916110b2565b820191906000526020600020905b81548152906001019060200180831161109557829003601f168201915b5050505050908060020180546110c7906124d9565b80601f01602080910402602001604051908101604052809291908181526020018280546110f3906124d9565b80156111405780601f1061111557610100808354040283529160200191611140565b820191906000526020600020905b81548152906001019060200180831161112357829003601f168201915b5050505050908060040160009054906101000a900473ffffffffffffffffffffffffffffffffffffffff16905084565b803373ffffffffffffffffffffffffffffffffffffffff166002600083815260200190815260200160002060040160009054906101000a900473ffffffffffffffffffffffffffffffffffffffff1673ffffffffffffffffffffffffffffffffffffffff161461121757806040517ff034e05400000000000000000000000000000000000000000000000000000000815260040161120e9190611a79565b60405180910390fd5b6002600083815260200190815260200160002060008082016000905560018201600061124391906118ed565b60028201600061125391906118ed565b6003820160006112639190611972565b6004820160006101000a81549073ffffffffffffffffffffffffffffffffffffffff021916905550505050565b600160008154809291906112a39061250a565b91905055506040518060a001604052806001548152602001838152602001828152602001600067ffffffffffffffff8111156112e2576112e1611d12565b5b6040519080825280602002602001820160405280156113105781602001602082028036833780820191505090505b5081526020013373ffffffffffffffffffffffffffffffffffffffff1681525060026000600154815260200190815260200160002060008201518160000155602082015181600101908161136491906126fe565b50604082015181600201908161137a91906126fe565b506060820151816003019080519060200190611397929190611993565b5060808201518160040160006101000a81548173ffffffffffffffffffffffffffffffffffffffff021916908373ffffffffffffffffffffffffffffffffffffffff160217905550905050600560003373ffffffffffffffffffffffffffffffffffffffff1673ffffffffffffffffffffffffffffffffffffffff16815260200190815260200160002060015490806001815401808255809150506001900390600052602060002001600090919091909150556001547f258ba6fc11ff8d29dfc369bc96e8baaf90ae86401a366c5767a11c0f1f90b5ce8383336040516114809392919061282a565b60405180910390a25050565b60046000858152602001908152602001600020600401543373ffffffffffffffffffffffffffffffffffffffff166002600083815260200190815260200160002060040160009054906101000a900473ffffffffffffffffffffffffffffffffffffffff1673ffffffffffffffffffffffffffffffffffffffff161461154957806040517ff034e0540000000000000000000000000000000000000000000000000000000081526004016115409190611a79565b60405180910390fd5b8360046000878152602001908152602001600020600101908161156c91906126fe565b508260046000878152602001908152602001600020600201908161159091906126fe565b50816004600087815260200190815260200160002060030190816115b491906126fe565b50847fad8078e4cde9c5c4cad797281d98afbfec3bb4ca040ac0b3ad2d72b5677d13e1858585600460008b81526020019081526020016000206004015460405161160194939291906127d0565b60405180910390a25050505050565b6060600060015467ffffffffffffffff8111156116305761162f611d12565b5b60405190808252806020026020018201604052801561166957816020015b61165661192d565b81526020019060019003908161164e5790505b50905060005b6001548110156118b0576002600060018361168a9190611a36565b81526020019081526020016000206040518060a0016040529081600082015481526020016001820180546116bd906124d9565b80601f01602080910402602001604051908101604052809291908181526020018280546116e9906124d9565b80156117365780601f1061170b57610100808354040283529160200191611736565b820191906000526020600020905b81548152906001019060200180831161171957829003601f168201915b5050505050815260200160028201805461174f906124d9565b80601f016020809104026020016040519081016040528092919081815260200182805461177b906124d9565b80156117c85780601f1061179d576101008083540402835291602001916117c8565b820191906000526020600020905b8154815290600101906020018083116117ab57829003601f168201915b505050505081526020016003820180548060200260200160405190810160405280929190818152602001828054801561182057602002820191906000526020600020905b81548152602001906001019080831161180c575b505050505081526020016004820160009054906101000a900473ffffffffffffffffffffffffffffffffffffffff1673ffffffffffffffffffffffffffffffffffffffff1673ffffffffffffffffffffffffffffffffffffffff16815250508282815181106118925761189161247b565b5b602002602001018190525080806118a89061250a565b91505061166f565b508091505090565b60005481565b6040518060a0016040528060008152602001606081526020016060815260200160608152602001600081525090565b5080546118f9906124d9565b6000825580601f1061190b575061192a565b601f01602090049060005260206000209081019061192991906119e0565b5b50565b6040518060a0016040528060008152602001606081526020016060815260200160608152602001600073ffffffffffffffffffffffffffffffffffffffff1681525090565b508054600082559060005260206000209081019061199091906119e0565b50565b8280548282559060005260206000209081019282156119cf579160200282015b828111156119ce5782518255916020019190600101906119b3565b5b5090506119dc91906119e0565b5090565b5b808211156119f95760008160009055506001016119e1565b5090565b6000819050919050565b7f4e487b7100000000000000000000000000000000000000000000000000000000600052601160045260246000fd5b6000611a41826119fd565b9150611a4c836119fd565b9250828201905080821115611a6457611a63611a07565b5b92915050565b611a73816119fd565b82525050565b6000602082019050611a8e6000830184611a6a565b92915050565b6000604051905090565b600080fd5b600080fd5b611ab1816119fd565b8114611abc57600080fd5b50565b600081359050611ace81611aa8565b92915050565b600060208284031215611aea57611ae9611a9e565b5b6000611af884828501611abf565b91505092915050565b600081519050919050565b600082825260208201905092915050565b6000819050602082019050919050565b611b36816119fd565b82525050565b600081519050919050565b600082825260208201905092915050565b60005b83811015611b76578082015181840152602081019050611b5b565b60008484015250505050565b6000601f19601f8301169050919050565b6000611b9e82611b3c565b611ba88185611b47565b9350611bb8818560208601611b58565b611bc181611b82565b840191505092915050565b600060a083016000830151611be46000860182611b2d565b5060208301518482036020860152611bfc8282611b93565b91505060408301518482036040860152611c168282611b93565b91505060608301518482036060860152611c308282611b93565b9150506080830151611c456080860182611b2d565b508091505092915050565b6000611c5c8383611bcc565b905092915050565b6000602082019050919050565b6000611c7c82611b01565b611c868185611b0c565b935083602082028501611c9885611b1d565b8060005b85811015611cd45784840389528151611cb58582611c50565b9450611cc083611c64565b925060208a01995050600181019050611c9c565b50829750879550505050505092915050565b60006020820190508181036000830152611d008184611c71565b905092915050565b600080fd5b600080fd5b7f4e487b7100000000000000000000000000000000000000000000000000000000600052604160045260246000fd5b611d4a82611b82565b810181811067ffffffffffffffff82111715611d6957611d68611d12565b5b80604052505050565b6000611d7c611a94565b9050611d888282611d41565b919050565b600067ffffffffffffffff821115611da857611da7611d12565b5b611db182611b82565b9050602081019050919050565b82818337600083830152505050565b6000611de0611ddb84611d8d565b611d72565b905082815260208101848484011115611dfc57611dfb611d0d565b5b611e07848285611dbe565b509392505050565b600082601f830112611e2457611e23611d08565b5b8135611e34848260208601611dcd565b91505092915050565b60008060008060808587031215611e5757611e56611a9e565b5b600085013567ffffffffffffffff811115611e7557611e74611aa3565b5b611e8187828801611e0f565b945050602085013567ffffffffffffffff811115611ea257611ea1611aa3565b5b611eae87828801611e0f565b935050604085013567ffffffffffffffff811115611ecf57611ece611aa3565b5b611edb87828801611e0f565b9250506060611eec87828801611abf565b91505092959194509250565b600073ffffffffffffffffffffffffffffffffffffffff82169050919050565b6000611f2382611ef8565b9050919050565b611f3381611f18565b8114611f3e57600080fd5b50565b600081359050611f5081611f2a565b92915050565b600060208284031215611f6c57611f6b611a9e565b5b6000611f7a84828501611f41565b91505092915050565b600081519050919050565b600082825260208201905092915050565b6000819050602082019050919050565b600081519050919050565b600082825260208201905092915050565b6000819050602082019050919050565b6000611fe78383611b2d565b60208301905092915050565b6000602082019050919050565b600061200b82611faf565b6120158185611fba565b935061202083611fcb565b8060005b838110156120515781516120388882611fdb565b975061204383611ff3565b925050600181019050612024565b5085935050505092915050565b61206781611f18565b82525050565b600060a0830160008301516120856000860182611b2d565b506020830151848203602086015261209d8282611b93565b915050604083015184820360408601526120b78282611b93565b915050606083015184820360608601526120d18282612000565b91505060808301516120e6608086018261205e565b508091505092915050565b60006120fd838361206d565b905092915050565b6000602082019050919050565b600061211d82611f83565b6121278185611f8e565b93508360208202850161213985611f9f565b8060005b85811015612175578484038952815161215685826120f1565b945061216183612105565b925060208a0199505060018101905061213d565b50829750879550505050505092915050565b600060208201905081810360008301526121a18184612112565b905092915050565b600082825260208201905092915050565b60006121c582611b3c565b6121cf81856121a9565b93506121df818560208601611b58565b6121e881611b82565b840191505092915050565b600060a0820190506122086000830188611a6a565b818103602083015261221a81876121ba565b9050818103604083015261222e81866121ba565b9050818103606083015261224281856121ba565b90506122516080830184611a6a565b9695505050505050565b60008060006060848603121561227457612273611a9e565b5b600061228286828701611abf565b935050602084013567ffffffffffffffff8111156122a3576122a2611aa3565b5b6122af86828701611e0f565b925050604084013567ffffffffffffffff8111156122d0576122cf611aa3565b5b6122dc86828701611e0f565b9150509250925092565b6122ef81611f18565b82525050565b600060808201905061230a6000830187611a6a565b818103602083015261231c81866121ba565b9050818103604083015261233081856121ba565b905061233f60608301846122e6565b95945050505050565b6000806040838503121561235f5761235e611a9e565b5b600083013567ffffffffffffffff81111561237d5761237c611aa3565b5b61238985828601611e0f565b925050602083013567ffffffffffffffff8111156123aa576123a9611aa3565b5b6123b685828601611e0f565b9150509250929050565b600080600080608085870312156123da576123d9611a9e565b5b60006123e887828801611abf565b945050602085013567ffffffffffffffff81111561240957612408611aa3565b5b61241587828801611e0f565b935050604085013567ffffffffffffffff81111561243657612435611aa3565b5b61244287828801611e0f565b925050606085013567ffffffffffffffff81111561246357612462611aa3565b5b61246f87828801611e0f565b91505092959194509250565b7f4e487b7100000000000000000000000000000000000000000000000000000000600052603260045260246000fd5b7f4e487b7100000000000000000000000000000000000000000000000000000000600052602260045260246000fd5b600060028204905060018216806124f157607f821691505b602082108103612504576125036124aa565b5b50919050565b6000612515826119fd565b91507fffffffffffffffffffffffffffffffffffffffffffffffffffffffffffffffff820361254757612546611a07565b5b600182019050919050565b60008190508160005260206000209050919050565b60006020601f8301049050919050565b600082821b905092915050565b6000600883026125b47fffffffffffffffffffffffffffffffffffffffffffffffffffffffffffffffff82612577565b6125be8683612577565b95508019841693508086168417925050509392505050565b6000819050919050565b60006125fb6125f66125f1846119fd565b6125d6565b6119fd565b9050919050565b6000819050919050565b612615836125e0565b61262961262182612602565b848454612584565b825550505050565b600090565b61263e612631565b61264981848461260c565b505050565b5b8181101561266d57612662600082612636565b60018101905061264f565b5050565b601f8211156126b25761268381612552565b61268c84612567565b8101602085101561269b578190505b6126af6126a785612567565b83018261264e565b50505b505050565b600082821c905092915050565b60006126d5600019846008026126b7565b1980831691505092915050565b60006126ee83836126c4565b9150826002028217905092915050565b61270782611b3c565b67ffffffffffffffff8111156127205761271f611d12565b5b61272a82546124d9565b612735828285612671565b600060209050601f8311600181146127685760008415612756578287015190505b61276085826126e2565b8655506127c8565b601f19841661277686612552565b60005b8281101561279e57848901518255600182019150602085019450602081019050612779565b868310156127bb57848901516127b7601f8916826126c4565b8355505b6001600288020188555050505b505050505050565b600060808201905081810360008301526127ea81876121ba565b905081810360208301526127fe81866121ba565b9050818103604083015261281281856121ba565b90506128216060830184611a6a565b95945050505050565b6000606082019050818103600083015261284481866121ba565b9050818103602083015261285881856121ba565b905061286760408301846122e6565b94935050505056fea2646970667358221220ff11cb5d88982c29296e1e754fd156034aa7ca24786c458881ad6a683fee39f964736f6c63430008140033",
  "linkReferences": {},
  "deployedLinkReferences": {}
}