{
  "_format": "hh-sol-artifact-1",
  "contractName": "CoursesStorage",
  "sourceName": "contracts/CoursesStorage.sol",
  "abi": [
    {
      "inputs": [],
      "stateMutability": "payable",
      "type": "constructor"
    },
    {
      "inputs": [
        {
          "internalType": "uint256",
          "name": "courseId",
          "type": "uint256"
        }
      ],
      "name": "NotCourseAuthor",
      "type": "error"
    },
    {
      "anonymous": false,
      "inputs": [
        {
          "indexed": true,
          "internalType": "uint256",
          "name": "cardId",
          "type": "uint256"
        },
        {
          "indexed": false,
          "internalType": "string",
          "name": "word",
          "type": "string"
        },
        {
          "indexed": false,
          "internalType": "string",
          "name": "meaning",
          "type": "string"
        },
        {
          "indexed": false,
          "internalType": "string",
          "name": "example",
          "type": "string"
        },
        {
          "indexed": false,
          "internalType": "uint256",
          "name": "courseId",
          "type": "uint256"
        }
      ],
      "name": "CardChange",
      "type": "event"
    },
    {
      "anonymous": false,
      "inputs": [
        {
          "indexed": true,
          "internalType": "uint256",
          "name": "courseId",
          "type": "uint256"
        },
        {
          "indexed": false,
          "internalType": "string",
          "name": "name",
          "type": "string"
        },
        {
          "indexed": false,
          "internalType": "string",
          "name": "description",
          "type": "string"
        },
        {
          "indexed": false,
          "internalType": "address",
          "name": "author",
          "type": "address"
        }
      ],
      "name": "CourseChange",
      "type": "event"
    },
    {
      "inputs": [],
      "name": "cardCount",
      "outputs": [
        {
          "internalType": "uint256",
          "name": "",
          "type": "uint256"
        }
      ],
      "stateMutability": "view",
      "type": "function"
    },
    {
      "inputs": [],
      "name": "courseCount",
      "outputs": [
        {
          "internalType": "uint256",
          "name": "",
          "type": "uint256"
        }
      ],
      "stateMutability": "view",
      "type": "function"
    },
    {
      "inputs": [
        {
          "internalType": "string",
          "name": "word",
          "type": "string"
        },
        {
          "internalType": "string",
          "name": "meaning",
          "type": "string"
        },
        {
          "internalType": "string",
          "name": "example",
          "type": "string"
        },
        {
          "internalType": "uint256",
          "name": "courseId",
          "type": "uint256"
        }
      ],
      "name": "createCard",
      "outputs": [],
      "stateMutability": "nonpayable",
      "type": "function"
    },
    {
      "inputs": [
        {
          "internalType": "string",
          "name": "name",
          "type": "string"
        },
        {
          "internalType": "string",
          "name": "description",
          "type": "string"
        }
      ],
      "name": "createCourse",
      "outputs": [],
      "stateMutability": "nonpayable",
      "type": "function"
    },
    {
      "inputs": [
        {
          "internalType": "uint256",
          "name": "cardId",
          "type": "uint256"
        }
      ],
      "name": "deleteCard",
      "outputs": [],
      "stateMutability": "nonpayable",
      "type": "function"
    },
    {
      "inputs": [
        {
          "internalType": "uint256",
          "name": "courseId",
          "type": "uint256"
        }
      ],
      "name": "deleteCourse",
      "outputs": [],
      "stateMutability": "nonpayable",
      "type": "function"
    },
    {
      "inputs": [
        {
          "internalType": "uint256",
          "name": "courseId",
          "type": "uint256"
        }
      ],
      "name": "getCardsByCourse",
      "outputs": [
        {
          "components": [
            {
              "internalType": "uint256",
              "name": "id",
              "type": "uint256"
            },
            {
              "internalType": "string",
              "name": "word",
              "type": "string"
            },
            {
              "internalType": "string",
              "name": "meaning",
              "type": "string"
            },
            {
              "internalType": "string",
              "name": "example",
              "type": "string"
            },
            {
              "internalType": "uint256",
              "name": "courseId",
              "type": "uint256"
            }
          ],
          "internalType": "struct CoursesStorage.Card[]",
          "name": "",
          "type": "tuple[]"
        }
      ],
      "stateMutability": "view",
      "type": "function"
    },
    {
      "inputs": [],
      "name": "getCourses",
      "outputs": [
        {
          "components": [
            {
              "internalType": "uint256",
              "name": "id",
              "type": "uint256"
            },
            {
              "internalType": "string",
              "name": "name",
              "type": "string"
            },
            {
              "internalType": "string",
              "name": "description",
              "type": "string"
            },
            {
              "internalType": "address",
              "name": "author",
              "type": "address"
            }
          ],
          "internalType": "struct CoursesStorage.Course[]",
          "name": "",
          "type": "tuple[]"
        }
      ],
      "stateMutability": "view",
      "type": "function"
    },
    {
      "inputs": [
        {
          "internalType": "address",
          "name": "author",
          "type": "address"
        }
      ],
      "name": "getCoursesByAuthor",
      "outputs": [
        {
          "components": [
            {
              "internalType": "uint256",
              "name": "id",
              "type": "uint256"
            },
            {
              "internalType": "string",
              "name": "name",
              "type": "string"
            },
            {
              "internalType": "string",
              "name": "description",
              "type": "string"
            },
            {
              "internalType": "address",
              "name": "author",
              "type": "address"
            }
          ],
          "internalType": "struct CoursesStorage.Course[]",
          "name": "",
          "type": "tuple[]"
        }
      ],
      "stateMutability": "view",
      "type": "function"
    },
    {
      "inputs": [],
      "name": "receivedEther",
      "outputs": [
        {
          "internalType": "uint256",
          "name": "",
          "type": "uint256"
        }
      ],
      "stateMutability": "view",
      "type": "function"
    },
    {
      "inputs": [
        {
          "internalType": "uint256",
          "name": "cardId",
          "type": "uint256"
        },
        {
          "internalType": "string",
          "name": "word",
          "type": "string"
        },
        {
          "internalType": "string",
          "name": "meaning",
          "type": "string"
        },
        {
          "internalType": "string",
          "name": "example",
          "type": "string"
        }
      ],
      "name": "updateCard",
      "outputs": [],
      "stateMutability": "nonpayable",
      "type": "function"
    },
    {
      "inputs": [
        {
          "internalType": "uint256",
          "name": "courseId",
          "type": "uint256"
        },
        {
          "internalType": "string",
          "name": "name",
          "type": "string"
        },
        {
          "internalType": "string",
          "name": "description",
          "type": "string"
        }
      ],
      "name": "updateCourse",
      "outputs": [],
      "stateMutability": "nonpayable",
      "type": "function"
    },
    {
      "stateMutability": "payable",
      "type": "receive"
    }
  ],
  "bytecode": "0x6080604052600060015560006005556124968061001d6000396000f3fe6080604052600436106100ab5760003560e01c806394f9d84c1161006457806394f9d84c146101f05780639dad8d2214610219578063a26a795314610242578063b51183b01461026b578063cc12647914610294578063cd53e455146102bf576100c9565b80631b6cde10146100ce5780635069ca2e146100f957806357744a61146101365780635e1acf651461015f578063660551591461018857806370e24a2f146101b3576100c9565b366100c957346000808282546100c19190611748565b925050819055005b600080fd5b3480156100da57600080fd5b506100e36102ea565b6040516100f0919061178b565b60405180910390f35b34801561010557600080fd5b50610120600480360381019061011b91906117e6565b6102f0565b60405161012d91906119f8565b60405180910390f35b34801561014257600080fd5b5061015d60048036038101906101589190611b4f565b6105c7565b005b34801561016b57600080fd5b50610186600480360381019061018191906117e6565b610791565b005b34801561019457600080fd5b5061019d6108e7565b6040516101aa919061178b565b60405180910390f35b3480156101bf57600080fd5b506101da60048036038101906101d59190611c68565b6108ed565b6040516101e79190611dd0565b60405180910390f35b3480156101fc57600080fd5b5061021760048036038101906102129190611df2565b610c02565b005b34801561022557600080fd5b50610240600480360381019061023b91906117e6565b610d33565b005b34801561024e57600080fd5b5061026960048036038101906102649190611e7d565b610e98565b005b34801561027757600080fd5b50610292600480360381019061028d9190611ef5565b611019565b005b3480156102a057600080fd5b506102a961119d565b6040516102b69190611dd0565b60405180910390f35b3480156102cb57600080fd5b506102d46113f9565b6040516102e1919061178b565b60405180910390f35b60055481565b6060600061030f600a60008581526020019081526020016000206113ff565b67ffffffffffffffff81111561032857610327611a24565b5b60405190808252806020026020018201604052801561036157816020015b61034e611645565b8152602001906001900390816103465790505b50905060005b610382600a60008681526020019081526020016000206113ff565b8110156105bd57600660006103a9600a600088815260200190815260200160002084611414565b81526020019081526020016000206040518060a0016040529081600082015481526020016001820180546103dc90611fdf565b80601f016020809104026020016040519081016040528092919081815260200182805461040890611fdf565b80156104555780601f1061042a57610100808354040283529160200191610455565b820191906000526020600020905b81548152906001019060200180831161043857829003601f168201915b5050505050815260200160028201805461046e90611fdf565b80601f016020809104026020016040519081016040528092919081815260200182805461049a90611fdf565b80156104e75780601f106104bc576101008083540402835291602001916104e7565b820191906000526020600020905b8154815290600101906020018083116104ca57829003601f168201915b5050505050815260200160038201805461050090611fdf565b80601f016020809104026020016040519081016040528092919081815260200182805461052c90611fdf565b80156105795780601f1061054e57610100808354040283529160200191610579565b820191906000526020600020905b81548152906001019060200180831161055c57829003601f168201915b5050505050815260200160048201548152505082828151811061059f5761059e612010565b5b602002602001018190525080806105b59061203f565b915050610367565b5080915050919050565b803373ffffffffffffffffffffffffffffffffffffffff166002600083815260200190815260200160002060030160009054906101000a900473ffffffffffffffffffffffffffffffffffffffff1673ffffffffffffffffffffffffffffffffffffffff161461066e57806040517ff034e054000000000000000000000000000000000000000000000000000000008152600401610665919061178b565b60405180910390fd5b600560008154809291906106819061203f565b91905055506040518060a001604052806005548152602001868152602001858152602001848152602001838152506006600060055481526020019081526020016000206000820151816000015560208201518160010190816106e39190612233565b5060408201518160020190816106f99190612233565b50606082015181600301908161070f9190612233565b506080820151816004015590505061073b600a600084815260200190815260200160002060055461142e565b50610749600760055461142e565b506005547fad8078e4cde9c5c4cad797281d98afbfec3bb4ca040ac0b3ad2d72b5677d13e186868686604051610782949392919061234f565b60405180910390a25050505050565b60066000828152602001908152602001600020600401543373ffffffffffffffffffffffffffffffffffffffff166002600083815260200190815260200160002060030160009054906101000a900473ffffffffffffffffffffffffffffffffffffffff1673ffffffffffffffffffffffffffffffffffffffff161461084e57806040517ff034e054000000000000000000000000000000000000000000000000000000008152600401610845919061178b565b60405180910390fd5b610880600a60006006600086815260200190815260200160002060040154815260200190815260200160002083611448565b5061088c600783611448565b50600660008381526020019081526020016000206000808201600090556001820160006108b99190611674565b6002820160006108c99190611674565b6003820160006108d99190611674565b600482016000905550505050565b60015481565b60606000610938600960008573ffffffffffffffffffffffffffffffffffffffff1673ffffffffffffffffffffffffffffffffffffffff1681526020019081526020016000206113ff565b67ffffffffffffffff81111561095157610950611a24565b5b60405190808252806020026020018201604052801561098a57816020015b6109776116b4565b81526020019060019003908161096f5790505b50905060005b6109d7600960008673ffffffffffffffffffffffffffffffffffffffff1673ffffffffffffffffffffffffffffffffffffffff1681526020019081526020016000206113ff565b811015610bf85760026000610a2a600960008873ffffffffffffffffffffffffffffffffffffffff1673ffffffffffffffffffffffffffffffffffffffff16815260200190815260200160002084611414565b815260200190815260200160002060405180608001604052908160008201548152602001600182018054610a5d90611fdf565b80601f0160208091040260200160405190810160405280929190818152602001828054610a8990611fdf565b8015610ad65780601f10610aab57610100808354040283529160200191610ad6565b820191906000526020600020905b815481529060010190602001808311610ab957829003601f168201915b50505050508152602001600282018054610aef90611fdf565b80601f0160208091040260200160405190810160405280929190818152602001828054610b1b90611fdf565b8015610b685780601f10610b3d57610100808354040283529160200191610b68565b820191906000526020600020905b815481529060010190602001808311610b4b57829003601f168201915b505050505081526020016003820160009054906101000a900473ffffffffffffffffffffffffffffffffffffffff1673ffffffffffffffffffffffffffffffffffffffff1673ffffffffffffffffffffffffffffffffffffffff1681525050828281518110610bda57610bd9612010565b5b60200260200101819052508080610bf09061203f565b915050610990565b5080915050919050565b823373ffffffffffffffffffffffffffffffffffffffff166002600083815260200190815260200160002060030160009054906101000a900473ffffffffffffffffffffffffffffffffffffffff1673ffffffffffffffffffffffffffffffffffffffff1614610ca957806040517ff034e054000000000000000000000000000000000000000000000000000000008152600401610ca0919061178b565b60405180910390fd5b82600260008681526020019081526020016000206001019081610ccc9190612233565b5081600260008681526020019081526020016000206002019081610cf09190612233565b50837f258ba6fc11ff8d29dfc369bc96e8baaf90ae86401a366c5767a11c0f1f90b5ce848433604051610d25939291906123b8565b60405180910390a250505050565b803373ffffffffffffffffffffffffffffffffffffffff166002600083815260200190815260200160002060030160009054906101000a900473ffffffffffffffffffffffffffffffffffffffff1673ffffffffffffffffffffffffffffffffffffffff1614610dda57806040517ff034e054000000000000000000000000000000000000000000000000000000008152600401610dd1919061178b565b60405180910390fd5b610e22600960003373ffffffffffffffffffffffffffffffffffffffff1673ffffffffffffffffffffffffffffffffffffffff16815260200190815260200160002083611448565b50610e2e600383611448565b5060026000838152602001908152602001600020600080820160009055600182016000610e5b9190611674565b600282016000610e6b9190611674565b6003820160006101000a81549073ffffffffffffffffffffffffffffffffffffffff021916905550505050565b60016000815480929190610eab9061203f565b9190505550604051806080016040528060015481526020018381526020018281526020013373ffffffffffffffffffffffffffffffffffffffff16815250600260006001548152602001908152602001600020600082015181600001556020820151816001019081610f1d9190612233565b506040820151816002019081610f339190612233565b5060608201518160030160006101000a81548173ffffffffffffffffffffffffffffffffffffffff021916908373ffffffffffffffffffffffffffffffffffffffff160217905550905050610fc8600960003373ffffffffffffffffffffffffffffffffffffffff1673ffffffffffffffffffffffffffffffffffffffff16815260200190815260200160002060015461142e565b50610fd6600360015461142e565b506001547f258ba6fc11ff8d29dfc369bc96e8baaf90ae86401a366c5767a11c0f1f90b5ce83833360405161100d939291906123b8565b60405180910390a25050565b60066000858152602001908152602001600020600401543373ffffffffffffffffffffffffffffffffffffffff166002600083815260200190815260200160002060030160009054906101000a900473ffffffffffffffffffffffffffffffffffffffff1673ffffffffffffffffffffffffffffffffffffffff16146110d657806040517ff034e0540000000000000000000000000000000000000000000000000000000081526004016110cd919061178b565b60405180910390fd5b836006600087815260200190815260200160002060010190816110f99190612233565b508260066000878152602001908152602001600020600201908161111d9190612233565b50816006600087815260200190815260200160002060030190816111419190612233565b50847fad8078e4cde9c5c4cad797281d98afbfec3bb4ca040ac0b3ad2d72b5677d13e1858585600660008b81526020019081526020016000206004015460405161118e949392919061234f565b60405180910390a25050505050565b606060006111ab60036113ff565b67ffffffffffffffff8111156111c4576111c3611a24565b5b6040519080825280602002602001820160405280156111fd57816020015b6111ea6116b4565b8152602001906001900390816111e25790505b50905060005b61120d60036113ff565b8110156113f15760026000611223600384611414565b81526020019081526020016000206040518060800160405290816000820154815260200160018201805461125690611fdf565b80601f016020809104026020016040519081016040528092919081815260200182805461128290611fdf565b80156112cf5780601f106112a4576101008083540402835291602001916112cf565b820191906000526020600020905b8154815290600101906020018083116112b257829003601f168201915b505050505081526020016002820180546112e890611fdf565b80601f016020809104026020016040519081016040528092919081815260200182805461131490611fdf565b80156113615780601f1061133657610100808354040283529160200191611361565b820191906000526020600020905b81548152906001019060200180831161134457829003601f168201915b505050505081526020016003820160009054906101000a900473ffffffffffffffffffffffffffffffffffffffff1673ffffffffffffffffffffffffffffffffffffffff1673ffffffffffffffffffffffffffffffffffffffff16815250508282815181106113d3576113d2612010565b5b602002602001018190525080806113e99061203f565b915050611203565b508091505090565b60005481565b600061140d82600001611462565b9050919050565b60006114238360000183611473565b60001c905092915050565b6000611440836000018360001b61149e565b905092915050565b600061145a836000018360001b61150e565b905092915050565b600081600001805490509050919050565b600082600001828154811061148b5761148a612010565b5b9060005260206000200154905092915050565b60006114aa8383611622565b611503578260000182908060018154018082558091505060019003906000526020600020016000909190919091505582600001805490508360010160008481526020019081526020016000208190555060019050611508565b600090505b92915050565b6000808360010160008481526020019081526020016000205490506000811461161657600060018261154091906123fd565b905060006001866000018054905061155891906123fd565b90508082146115c757600086600001828154811061157957611578612010565b5b906000526020600020015490508087600001848154811061159d5761159c612010565b5b90600052602060002001819055508387600101600083815260200190815260200160002081905550505b856000018054806115db576115da612431565b5b60019003818190600052602060002001600090559055856001016000868152602001908152602001600020600090556001935050505061161c565b60009150505b92915050565b600080836001016000848152602001908152602001600020541415905092915050565b6040518060a0016040528060008152602001606081526020016060815260200160608152602001600081525090565b50805461168090611fdf565b6000825580601f1061169257506116b1565b601f0160209004906000526020600020908101906116b091906116f2565b5b50565b6040518060800160405280600081526020016060815260200160608152602001600073ffffffffffffffffffffffffffffffffffffffff1681525090565b5b8082111561170b5760008160009055506001016116f3565b5090565b6000819050919050565b7f4e487b7100000000000000000000000000000000000000000000000000000000600052601160045260246000fd5b60006117538261170f565b915061175e8361170f565b925082820190508082111561177657611775611719565b5b92915050565b6117858161170f565b82525050565b60006020820190506117a0600083018461177c565b92915050565b6000604051905090565b600080fd5b600080fd5b6117c38161170f565b81146117ce57600080fd5b50565b6000813590506117e0816117ba565b92915050565b6000602082840312156117fc576117fb6117b0565b5b600061180a848285016117d1565b91505092915050565b600081519050919050565b600082825260208201905092915050565b6000819050602082019050919050565b6118488161170f565b82525050565b600081519050919050565b600082825260208201905092915050565b60005b8381101561188857808201518184015260208101905061186d565b60008484015250505050565b6000601f19601f8301169050919050565b60006118b08261184e565b6118ba8185611859565b93506118ca81856020860161186a565b6118d381611894565b840191505092915050565b600060a0830160008301516118f6600086018261183f565b506020830151848203602086015261190e82826118a5565b9150506040830151848203604086015261192882826118a5565b9150506060830151848203606086015261194282826118a5565b9150506080830151611957608086018261183f565b508091505092915050565b600061196e83836118de565b905092915050565b6000602082019050919050565b600061198e82611813565b611998818561181e565b9350836020820285016119aa8561182f565b8060005b858110156119e657848403895281516119c78582611962565b94506119d283611976565b925060208a019950506001810190506119ae565b50829750879550505050505092915050565b60006020820190508181036000830152611a128184611983565b905092915050565b600080fd5b600080fd5b7f4e487b7100000000000000000000000000000000000000000000000000000000600052604160045260246000fd5b611a5c82611894565b810181811067ffffffffffffffff82111715611a7b57611a7a611a24565b5b80604052505050565b6000611a8e6117a6565b9050611a9a8282611a53565b919050565b600067ffffffffffffffff821115611aba57611ab9611a24565b5b611ac382611894565b9050602081019050919050565b82818337600083830152505050565b6000611af2611aed84611a9f565b611a84565b905082815260208101848484011115611b0e57611b0d611a1f565b5b611b19848285611ad0565b509392505050565b600082601f830112611b3657611b35611a1a565b5b8135611b46848260208601611adf565b91505092915050565b60008060008060808587031215611b6957611b686117b0565b5b600085013567ffffffffffffffff811115611b8757611b866117b5565b5b611b9387828801611b21565b945050602085013567ffffffffffffffff811115611bb457611bb36117b5565b5b611bc087828801611b21565b935050604085013567ffffffffffffffff811115611be157611be06117b5565b5b611bed87828801611b21565b9250506060611bfe878288016117d1565b91505092959194509250565b600073ffffffffffffffffffffffffffffffffffffffff82169050919050565b6000611c3582611c0a565b9050919050565b611c4581611c2a565b8114611c5057600080fd5b50565b600081359050611c6281611c3c565b92915050565b600060208284031215611c7e57611c7d6117b0565b5b6000611c8c84828501611c53565b91505092915050565b600081519050919050565b600082825260208201905092915050565b6000819050602082019050919050565b611cca81611c2a565b82525050565b6000608083016000830151611ce8600086018261183f565b5060208301518482036020860152611d0082826118a5565b91505060408301518482036040860152611d1a82826118a5565b9150506060830151611d2f6060860182611cc1565b508091505092915050565b6000611d468383611cd0565b905092915050565b6000602082019050919050565b6000611d6682611c95565b611d708185611ca0565b935083602082028501611d8285611cb1565b8060005b85811015611dbe5784840389528151611d9f8582611d3a565b9450611daa83611d4e565b925060208a01995050600181019050611d86565b50829750879550505050505092915050565b60006020820190508181036000830152611dea8184611d5b565b905092915050565b600080600060608486031215611e0b57611e0a6117b0565b5b6000611e19868287016117d1565b935050602084013567ffffffffffffffff811115611e3a57611e396117b5565b5b611e4686828701611b21565b925050604084013567ffffffffffffffff811115611e6757611e666117b5565b5b611e7386828701611b21565b9150509250925092565b60008060408385031215611e9457611e936117b0565b5b600083013567ffffffffffffffff811115611eb257611eb16117b5565b5b611ebe85828601611b21565b925050602083013567ffffffffffffffff811115611edf57611ede6117b5565b5b611eeb85828601611b21565b9150509250929050565b60008060008060808587031215611f0f57611f0e6117b0565b5b6000611f1d878288016117d1565b945050602085013567ffffffffffffffff811115611f3e57611f3d6117b5565b5b611f4a87828801611b21565b935050604085013567ffffffffffffffff811115611f6b57611f6a6117b5565b5b611f7787828801611b21565b925050606085013567ffffffffffffffff811115611f9857611f976117b5565b5b611fa487828801611b21565b91505092959194509250565b7f4e487b7100000000000000000000000000000000000000000000000000000000600052602260045260246000fd5b60006002820490506001821680611ff757607f821691505b60208210810361200a57612009611fb0565b5b50919050565b7f4e487b7100000000000000000000000000000000000000000000000000000000600052603260045260246000fd5b600061204a8261170f565b91507fffffffffffffffffffffffffffffffffffffffffffffffffffffffffffffffff820361207c5761207b611719565b5b600182019050919050565b60008190508160005260206000209050919050565b60006020601f8301049050919050565b600082821b905092915050565b6000600883026120e97fffffffffffffffffffffffffffffffffffffffffffffffffffffffffffffffff826120ac565b6120f386836120ac565b95508019841693508086168417925050509392505050565b6000819050919050565b600061213061212b6121268461170f565b61210b565b61170f565b9050919050565b6000819050919050565b61214a83612115565b61215e61215682612137565b8484546120b9565b825550505050565b600090565b612173612166565b61217e818484612141565b505050565b5b818110156121a25761219760008261216b565b600181019050612184565b5050565b601f8211156121e7576121b881612087565b6121c18461209c565b810160208510156121d0578190505b6121e46121dc8561209c565b830182612183565b50505b505050565b600082821c905092915050565b600061220a600019846008026121ec565b1980831691505092915050565b600061222383836121f9565b9150826002028217905092915050565b61223c8261184e565b67ffffffffffffffff81111561225557612254611a24565b5b61225f8254611fdf565b61226a8282856121a6565b600060209050601f83116001811461229d576000841561228b578287015190505b6122958582612217565b8655506122fd565b601f1984166122ab86612087565b60005b828110156122d3578489015182556001820191506020850194506020810190506122ae565b868310156122f057848901516122ec601f8916826121f9565b8355505b6001600288020188555050505b505050505050565b600082825260208201905092915050565b60006123218261184e565b61232b8185612305565b935061233b81856020860161186a565b61234481611894565b840191505092915050565b600060808201905081810360008301526123698187612316565b9050818103602083015261237d8186612316565b905081810360408301526123918185612316565b90506123a0606083018461177c565b95945050505050565b6123b281611c2a565b82525050565b600060608201905081810360008301526123d28186612316565b905081810360208301526123e68185612316565b90506123f560408301846123a9565b949350505050565b60006124088261170f565b91506124138361170f565b925082820390508181111561242b5761242a611719565b5b92915050565b7f4e487b7100000000000000000000000000000000000000000000000000000000600052603160045260246000fdfea264697066735822122003a142836fb917d1ecd93d3b5bb296097789508c9fd248b3f432e558d6a3a73764736f6c63430008140033",
  "linkReferences": {},
  "deployedLinkReferences": {}
}